{
  "_format": "hh-sol-artifact-1",
  "contractName": "Streal",
  "sourceName": "contracts/streal2.sol",
  "abi": [
    {
      "inputs": [],
      "stateMutability": "nonpayable",
      "type": "constructor"
    },
    {
      "anonymous": false,
      "inputs": [
        {
          "indexed": true,
          "internalType": "address",
          "name": "owner",
          "type": "address"
        },
        {
          "indexed": true,
          "internalType": "address",
          "name": "spender",
          "type": "address"
        },
        {
          "indexed": false,
          "internalType": "uint256",
          "name": "value",
          "type": "uint256"
        }
      ],
      "name": "Approval",
      "type": "event"
    },
    {
      "anonymous": false,
      "inputs": [
        {
          "indexed": true,
          "internalType": "address",
          "name": "previousOwner",
          "type": "address"
        },
        {
          "indexed": true,
          "internalType": "address",
          "name": "newOwner",
          "type": "address"
        }
      ],
      "name": "OwnershipTransferred",
      "type": "event"
    },
    {
      "anonymous": false,
      "inputs": [
        {
          "indexed": true,
          "internalType": "bytes32",
          "name": "role",
          "type": "bytes32"
        },
        {
          "indexed": true,
          "internalType": "bytes32",
          "name": "previousAdminRole",
          "type": "bytes32"
        },
        {
          "indexed": true,
          "internalType": "bytes32",
          "name": "newAdminRole",
          "type": "bytes32"
        }
      ],
      "name": "RoleAdminChanged",
      "type": "event"
    },
    {
      "anonymous": false,
      "inputs": [
        {
          "indexed": true,
          "internalType": "bytes32",
          "name": "role",
          "type": "bytes32"
        },
        {
          "indexed": true,
          "internalType": "address",
          "name": "account",
          "type": "address"
        },
        {
          "indexed": true,
          "internalType": "address",
          "name": "sender",
          "type": "address"
        }
      ],
      "name": "RoleGranted",
      "type": "event"
    },
    {
      "anonymous": false,
      "inputs": [
        {
          "indexed": true,
          "internalType": "bytes32",
          "name": "role",
          "type": "bytes32"
        },
        {
          "indexed": true,
          "internalType": "address",
          "name": "account",
          "type": "address"
        },
        {
          "indexed": true,
          "internalType": "address",
          "name": "sender",
          "type": "address"
        }
      ],
      "name": "RoleRevoked",
      "type": "event"
    },
    {
      "anonymous": false,
      "inputs": [
        {
          "indexed": false,
          "internalType": "uint256",
          "name": "id",
          "type": "uint256"
        }
      ],
      "name": "Snapshot",
      "type": "event"
    },
    {
      "anonymous": false,
      "inputs": [
        {
          "indexed": true,
          "internalType": "address",
          "name": "from",
          "type": "address"
        },
        {
          "indexed": true,
          "internalType": "address",
          "name": "to",
          "type": "address"
        },
        {
          "indexed": false,
          "internalType": "uint256",
          "name": "value",
          "type": "uint256"
        }
      ],
      "name": "Transfer",
      "type": "event"
    },
    {
      "anonymous": false,
      "inputs": [
        {
          "indexed": true,
          "internalType": "address",
          "name": "user",
          "type": "address"
        },
        {
          "indexed": true,
          "internalType": "address",
          "name": "token",
          "type": "address"
        },
        {
          "indexed": false,
          "internalType": "uint256",
          "name": "amount",
          "type": "uint256"
        }
      ],
      "name": "collateralDeposited",
      "type": "event"
    },
    {
      "inputs": [],
      "name": "ADMIN_ROLE",
      "outputs": [
        {
          "internalType": "bytes32",
          "name": "",
          "type": "bytes32"
        }
      ],
      "stateMutability": "view",
      "type": "function"
    },
    {
      "inputs": [],
      "name": "DEFAULT_ADMIN_ROLE",
      "outputs": [
        {
          "internalType": "bytes32",
          "name": "",
          "type": "bytes32"
        }
      ],
      "stateMutability": "view",
      "type": "function"
    },
    {
      "inputs": [],
      "name": "Liquidation_bonus",
      "outputs": [
        {
          "internalType": "uint256",
          "name": "",
          "type": "uint256"
        }
      ],
      "stateMutability": "view",
      "type": "function"
    },
    {
      "inputs": [
        {
          "internalType": "address",
          "name": "",
          "type": "address"
        },
        {
          "internalType": "address",
          "name": "",
          "type": "address"
        }
      ],
      "name": "_collateralDeposited",
      "outputs": [
        {
          "internalType": "uint256",
          "name": "",
          "type": "uint256"
        }
      ],
      "stateMutability": "view",
      "type": "function"
    },
    {
      "inputs": [
        {
          "internalType": "uint256",
          "name": "",
          "type": "uint256"
        }
      ],
      "name": "_collateralTokens",
      "outputs": [
        {
          "internalType": "address",
          "name": "",
          "type": "address"
        }
      ],
      "stateMutability": "view",
      "type": "function"
    },
    {
      "inputs": [
        {
          "internalType": "address",
          "name": "user",
          "type": "address"
        }
      ],
      "name": "_getAccountInfo",
      "outputs": [
        {
          "internalType": "uint256",
          "name": "totalStrealMinted",
          "type": "uint256"
        },
        {
          "internalType": "uint256",
          "name": "collateralValueInUsd",
          "type": "uint256"
        }
      ],
      "stateMutability": "view",
      "type": "function"
    },
    {
      "inputs": [
        {
          "internalType": "address[]",
          "name": "recipients",
          "type": "address[]"
        },
        {
          "internalType": "uint256[]",
          "name": "values",
          "type": "uint256[]"
        }
      ],
      "name": "airdrop",
      "outputs": [
        {
          "internalType": "bool",
          "name": "success",
          "type": "bool"
        }
      ],
      "stateMutability": "nonpayable",
      "type": "function"
    },
    {
      "inputs": [],
      "name": "airdrops",
      "outputs": [
        {
          "internalType": "uint256",
          "name": "",
          "type": "uint256"
        }
      ],
      "stateMutability": "view",
      "type": "function"
    },
    {
      "inputs": [
        {
          "internalType": "address",
          "name": "owner",
          "type": "address"
        },
        {
          "internalType": "address",
          "name": "spender",
          "type": "address"
        }
      ],
      "name": "allowance",
      "outputs": [
        {
          "internalType": "uint256",
          "name": "",
          "type": "uint256"
        }
      ],
      "stateMutability": "view",
      "type": "function"
    },
    {
      "inputs": [
        {
          "internalType": "address",
          "name": "spender",
          "type": "address"
        },
        {
          "internalType": "uint256",
          "name": "amount",
          "type": "uint256"
        }
      ],
      "name": "approve",
      "outputs": [
        {
          "internalType": "bool",
          "name": "",
          "type": "bool"
        }
      ],
      "stateMutability": "nonpayable",
      "type": "function"
    },
    {
      "inputs": [],
      "name": "balance",
      "outputs": [
        {
          "internalType": "uint256[]",
          "name": "",
          "type": "uint256[]"
        }
      ],
      "stateMutability": "view",
      "type": "function"
    },
    {
      "inputs": [
        {
          "internalType": "address",
          "name": "account",
          "type": "address"
        }
      ],
      "name": "balanceOf",
      "outputs": [
        {
          "internalType": "uint256",
          "name": "",
          "type": "uint256"
        }
      ],
      "stateMutability": "view",
      "type": "function"
    },
    {
      "inputs": [
        {
          "internalType": "address",
          "name": "account",
          "type": "address"
        },
        {
          "internalType": "uint256",
          "name": "snapshotId",
          "type": "uint256"
        }
      ],
      "name": "balanceOfAt",
      "outputs": [
        {
          "internalType": "uint256",
          "name": "",
          "type": "uint256"
        }
      ],
      "stateMutability": "view",
      "type": "function"
    },
    {
      "inputs": [
        {
          "internalType": "uint256",
          "name": "_amount",
          "type": "uint256"
        }
      ],
      "name": "burn",
      "outputs": [],
      "stateMutability": "nonpayable",
      "type": "function"
    },
    {
      "inputs": [
        {
          "internalType": "uint256",
          "name": "_amount",
          "type": "uint256"
        }
      ],
      "name": "burnForCommerce",
      "outputs": [],
      "stateMutability": "nonpayable",
      "type": "function"
    },
    {
      "inputs": [
        {
          "internalType": "address",
          "name": "account",
          "type": "address"
        },
        {
          "internalType": "uint256",
          "name": "amount",
          "type": "uint256"
        }
      ],
      "name": "burnFrom",
      "outputs": [],
      "stateMutability": "nonpayable",
      "type": "function"
    },
    {
      "inputs": [
        {
          "internalType": "address",
          "name": "tokenCollateralAddress",
          "type": "address"
        },
        {
          "internalType": "uint256",
          "name": "amountCollateral",
          "type": "uint256"
        }
      ],
      "name": "calculateEquivalentAmountToMint",
      "outputs": [
        {
          "internalType": "uint256",
          "name": "",
          "type": "uint256"
        }
      ],
      "stateMutability": "view",
      "type": "function"
    },
    {
      "inputs": [],
      "name": "decimals",
      "outputs": [
        {
          "internalType": "uint8",
          "name": "",
          "type": "uint8"
        }
      ],
      "stateMutability": "view",
      "type": "function"
    },
    {
      "inputs": [
        {
          "internalType": "address",
          "name": "spender",
          "type": "address"
        },
        {
          "internalType": "uint256",
          "name": "subtractedValue",
          "type": "uint256"
        }
      ],
      "name": "decreaseAllowance",
      "outputs": [
        {
          "internalType": "bool",
          "name": "",
          "type": "bool"
        }
      ],
      "stateMutability": "nonpayable",
      "type": "function"
    },
    {
      "inputs": [
        {
          "internalType": "address",
          "name": "tokenCollateralAddress",
          "type": "address"
        },
        {
          "internalType": "uint256",
          "name": "amountCollateral",
          "type": "uint256"
        }
      ],
      "name": "depositCollateralAndMintStreal",
      "outputs": [],
      "stateMutability": "nonpayable",
      "type": "function"
    },
    {
      "inputs": [
        {
          "internalType": "uint256",
          "name": "amountStreal",
          "type": "uint256"
        },
        {
          "internalType": "address",
          "name": "tokenCollateralAddress",
          "type": "address"
        }
      ],
      "name": "depositStrealAndGetToken",
      "outputs": [],
      "stateMutability": "nonpayable",
      "type": "function"
    },
    {
      "inputs": [
        {
          "internalType": "address",
          "name": "user",
          "type": "address"
        }
      ],
      "name": "getAccountCollateralValueInUsd",
      "outputs": [
        {
          "internalType": "uint256",
          "name": "totalCollateralValueInUsd",
          "type": "uint256"
        }
      ],
      "stateMutability": "view",
      "type": "function"
    },
    {
      "inputs": [
        {
          "internalType": "bytes32",
          "name": "role",
          "type": "bytes32"
        }
      ],
      "name": "getRoleAdmin",
      "outputs": [
        {
          "internalType": "bytes32",
          "name": "",
          "type": "bytes32"
        }
      ],
      "stateMutability": "view",
      "type": "function"
    },
    {
      "inputs": [
        {
          "internalType": "address",
          "name": "token",
          "type": "address"
        },
        {
          "internalType": "uint256",
          "name": "amount",
          "type": "uint256"
        }
      ],
      "name": "getUsdValue",
      "outputs": [
        {
          "internalType": "uint256",
          "name": "",
          "type": "uint256"
        }
      ],
      "stateMutability": "view",
      "type": "function"
    },
    {
      "inputs": [
        {
          "internalType": "bytes32",
          "name": "role",
          "type": "bytes32"
        },
        {
          "internalType": "address",
          "name": "account",
          "type": "address"
        }
      ],
      "name": "grantRole",
      "outputs": [],
      "stateMutability": "nonpayable",
      "type": "function"
    },
    {
      "inputs": [
        {
          "internalType": "bytes32",
          "name": "role",
          "type": "bytes32"
        },
        {
          "internalType": "address",
          "name": "account",
          "type": "address"
        }
      ],
      "name": "hasRole",
      "outputs": [
        {
          "internalType": "bool",
          "name": "",
          "type": "bool"
        }
      ],
      "stateMutability": "view",
      "type": "function"
    },
    {
      "inputs": [
        {
          "internalType": "address",
          "name": "",
          "type": "address"
        }
      ],
      "name": "hasVoted",
      "outputs": [
        {
          "internalType": "address",
          "name": "",
          "type": "address"
        }
      ],
      "stateMutability": "view",
      "type": "function"
    },
    {
      "inputs": [
        {
          "internalType": "address",
          "name": "spender",
          "type": "address"
        },
        {
          "internalType": "uint256",
          "name": "addedValue",
          "type": "uint256"
        }
      ],
      "name": "increaseAllowance",
      "outputs": [
        {
          "internalType": "bool",
          "name": "",
          "type": "bool"
        }
      ],
      "stateMutability": "nonpayable",
      "type": "function"
    },
    {
      "inputs": [
        {
          "internalType": "address",
          "name": "to",
          "type": "address"
        },
        {
          "internalType": "uint256",
          "name": "amount",
          "type": "uint256"
        }
      ],
      "name": "mintForCommerce",
      "outputs": [
        {
          "internalType": "bool",
          "name": "",
          "type": "bool"
        }
      ],
      "stateMutability": "nonpayable",
      "type": "function"
    },
    {
      "inputs": [
        {
          "internalType": "address[]",
          "name": "recipients",
          "type": "address[]"
        },
        {
          "internalType": "uint256[]",
          "name": "amounts",
          "type": "uint256[]"
        }
      ],
      "name": "mintReward",
      "outputs": [
        {
          "internalType": "bool",
          "name": "",
          "type": "bool"
        }
      ],
      "stateMutability": "nonpayable",
      "type": "function"
    },
    {
      "inputs": [
        {
          "internalType": "address",
          "name": "",
          "type": "address"
        }
      ],
      "name": "mintedStreal",
      "outputs": [
        {
          "internalType": "uint256",
          "name": "",
          "type": "uint256"
        }
      ],
      "stateMutability": "view",
      "type": "function"
    },
    {
      "inputs": [],
      "name": "name",
      "outputs": [
        {
          "internalType": "string",
          "name": "",
          "type": "string"
        }
      ],
      "stateMutability": "view",
      "type": "function"
    },
    {
      "inputs": [],
      "name": "owner",
      "outputs": [
        {
          "internalType": "address",
          "name": "",
          "type": "address"
        }
      ],
      "stateMutability": "view",
      "type": "function"
    },
    {
      "inputs": [
        {
          "internalType": "address",
          "name": "",
          "type": "address"
        }
      ],
      "name": "priceFeed",
      "outputs": [
        {
          "internalType": "address",
          "name": "",
          "type": "address"
        }
      ],
      "stateMutability": "view",
      "type": "function"
    },
    {
      "inputs": [
        {
          "internalType": "uint256",
          "name": "",
          "type": "uint256"
        }
      ],
      "name": "priceFeedAddress",
      "outputs": [
        {
          "internalType": "address",
          "name": "",
          "type": "address"
        }
      ],
      "stateMutability": "view",
      "type": "function"
    },
    {
      "inputs": [
        {
          "internalType": "address",
          "name": "tokenCollateralAddress",
          "type": "address"
        },
        {
          "internalType": "uint256",
          "name": "amountCollateral",
          "type": "uint256"
        }
      ],
      "name": "redeemCollateralForStreal",
      "outputs": [],
      "stateMutability": "nonpayable",
      "type": "function"
    },
    {
      "inputs": [],
      "name": "renounceOwnership",
      "outputs": [],
      "stateMutability": "nonpayable",
      "type": "function"
    },
    {
      "inputs": [
        {
          "internalType": "bytes32",
          "name": "role",
          "type": "bytes32"
        },
        {
          "internalType": "address",
          "name": "account",
          "type": "address"
        }
      ],
      "name": "renounceRole",
      "outputs": [],
      "stateMutability": "nonpayable",
      "type": "function"
    },
    {
      "inputs": [
        {
          "internalType": "bytes32",
          "name": "role",
          "type": "bytes32"
        },
        {
          "internalType": "address",
          "name": "account",
          "type": "address"
        }
      ],
      "name": "revokeRole",
      "outputs": [],
      "stateMutability": "nonpayable",
      "type": "function"
    },
    {
      "inputs": [],
      "name": "snapshot",
      "outputs": [],
      "stateMutability": "nonpayable",
      "type": "function"
    },
    {
      "inputs": [],
      "name": "supply",
      "outputs": [
        {
          "internalType": "uint256",
          "name": "",
          "type": "uint256"
        }
      ],
      "stateMutability": "view",
      "type": "function"
    },
    {
      "inputs": [
        {
          "internalType": "uint256",
          "name": "",
          "type": "uint256"
        }
      ],
      "name": "supportedTokens",
      "outputs": [
        {
          "internalType": "address",
          "name": "",
          "type": "address"
        }
      ],
      "stateMutability": "view",
      "type": "function"
    },
    {
      "inputs": [
        {
          "internalType": "bytes4",
          "name": "interfaceId",
          "type": "bytes4"
        }
      ],
      "name": "supportsInterface",
      "outputs": [
        {
          "internalType": "bool",
          "name": "",
          "type": "bool"
        }
      ],
      "stateMutability": "view",
      "type": "function"
    },
    {
      "inputs": [],
      "name": "symbol",
      "outputs": [
        {
          "internalType": "string",
          "name": "",
          "type": "string"
        }
      ],
      "stateMutability": "view",
      "type": "function"
    },
    {
      "inputs": [],
      "name": "totalSupply",
      "outputs": [
        {
          "internalType": "uint256",
          "name": "",
          "type": "uint256"
        }
      ],
      "stateMutability": "view",
      "type": "function"
    },
    {
      "inputs": [
        {
          "internalType": "uint256",
          "name": "snapshotId",
          "type": "uint256"
        }
      ],
      "name": "totalSupplyAt",
      "outputs": [
        {
          "internalType": "uint256",
          "name": "",
          "type": "uint256"
        }
      ],
      "stateMutability": "view",
      "type": "function"
    },
    {
      "inputs": [
        {
          "internalType": "address",
          "name": "to",
          "type": "address"
        },
        {
          "internalType": "uint256",
          "name": "amount",
          "type": "uint256"
        }
      ],
      "name": "transfer",
      "outputs": [
        {
          "internalType": "bool",
          "name": "",
          "type": "bool"
        }
      ],
      "stateMutability": "nonpayable",
      "type": "function"
    },
    {
      "inputs": [
        {
          "internalType": "address",
          "name": "from",
          "type": "address"
        },
        {
          "internalType": "address",
          "name": "to",
          "type": "address"
        },
        {
          "internalType": "uint256",
          "name": "amount",
          "type": "uint256"
        }
      ],
      "name": "transferFrom",
      "outputs": [
        {
          "internalType": "bool",
          "name": "",
          "type": "bool"
        }
      ],
      "stateMutability": "nonpayable",
      "type": "function"
    },
    {
      "inputs": [
        {
          "internalType": "address",
          "name": "newOwner",
          "type": "address"
        }
      ],
      "name": "transferOwnership",
      "outputs": [],
      "stateMutability": "nonpayable",
      "type": "function"
    },
    {
      "inputs": [
        {
          "internalType": "address",
          "name": "candidate",
          "type": "address"
        }
      ],
      "name": "vote",
      "outputs": [
        {
          "internalType": "bool",
          "name": "success",
          "type": "bool"
        }
      ],
      "stateMutability": "nonpayable",
      "type": "function"
    },
    {
      "inputs": [
        {
          "internalType": "address",
          "name": "",
          "type": "address"
        }
      ],
      "name": "votes",
      "outputs": [
        {
          "internalType": "uint256",
          "name": "",
          "type": "uint256"
        }
      ],
      "stateMutability": "view",
      "type": "function"
    },
    {
      "inputs": [],
      "name": "withdraw",
      "outputs": [],
      "stateMutability": "nonpayable",
      "type": "function"
    }
  ],
  "bytecode": "0x60806040526a52b7d2dcc80cd2e4000000600f556aa56fa5b99019a5c80000006010553480156200002f57600080fd5b506040518060400160405280600681526020017f53747265616c00000000000000000000000000000000000000000000000000008152506040518060400160405280600681526020017f53747265616c00000000000000000000000000000000000000000000000000008152508160039081620000ad919062000f07565b508060049081620000bf919062000f07565b505050620000e2620000d66200052d60201b60201c565b6200053560201b60201c565b6001600b81905550604051806060016040528073acde43b9e5f72a4f554d4346e69e8e7ac8f352f073ffffffffffffffffffffffffffffffffffffffff1673ffffffffffffffffffffffffffffffffffffffff16815260200173e9dce89b076ba6107bb64ef30678efec1193923473ffffffffffffffffffffffffffffffffffffffff1673ffffffffffffffffffffffffffffffffffffffff16815260200173f14f9596430931e177469715c591513308244e8f73ffffffffffffffffffffffffffffffffffffffff1673ffffffffffffffffffffffffffffffffffffffff16815250600d906003620001d792919062000bdf565b5060405180606001604052807392c09849638959196e976289418e5973cc96d64573ffffffffffffffffffffffffffffffffffffffff1673ffffffffffffffffffffffffffffffffffffffff16815260200173572ddec9087154dc5dfbb1546bb62713147e0ab073ffffffffffffffffffffffffffffffffffffffff1673ffffffffffffffffffffffffffffffffffffffff168152602001730fcaa9c899ec5a91ebc3d5dd869de833b06fb04673ffffffffffffffffffffffffffffffffffffffff1673ffffffffffffffffffffffffffffffffffffffff16815250600e906003620002c592919062000bdf565b50600e80549050600d805490501462000315576040517f08c379a00000000000000000000000000000000000000000000000000000000081526004016200030c906200104f565b60405180910390fd5b60005b600d80549050811015620004e057600e81815481106200033d576200033c62001071565b5b9060005260206000200160009054906101000a900473ffffffffffffffffffffffffffffffffffffffff1660136000600d848154811062000383576200038262001071565b5b9060005260206000200160009054906101000a900473ffffffffffffffffffffffffffffffffffffffff1673ffffffffffffffffffffffffffffffffffffffff1673ffffffffffffffffffffffffffffffffffffffff16815260200190815260200160002060006101000a81548173ffffffffffffffffffffffffffffffffffffffff021916908373ffffffffffffffffffffffffffffffffffffffff160217905550600c600d82815481106200043f576200043e62001071565b5b9060005260206000200160009054906101000a900473ffffffffffffffffffffffffffffffffffffffff169080600181540180825580915050600190039060005260206000200160009091909190916101000a81548173ffffffffffffffffffffffffffffffffffffffff021916908373ffffffffffffffffffffffffffffffffffffffff1602179055508080620004d790620010cf565b91505062000318565b50620004f66000801b33620005fb60201b60201c565b6200050a336010546200061160201b60201c565b600f54601060008282546200052091906200111c565b9250508190555062001232565b600033905090565b6000600960009054906101000a900473ffffffffffffffffffffffffffffffffffffffff16905081600960006101000a81548173ffffffffffffffffffffffffffffffffffffffff021916908373ffffffffffffffffffffffffffffffffffffffff1602179055508173ffffffffffffffffffffffffffffffffffffffff168173ffffffffffffffffffffffffffffffffffffffff167f8be0079c531659141344cd1fd0a4f28419497f9722a3daafe3b4186f6b6457e060405160405180910390a35050565b6200060d82826200077e60201b60201c565b5050565b600073ffffffffffffffffffffffffffffffffffffffff168273ffffffffffffffffffffffffffffffffffffffff160362000683576040517f08c379a00000000000000000000000000000000000000000000000000000000081526004016200067a90620011a7565b60405180910390fd5b62000697600083836200087060201b60201c565b8060026000828254620006ab9190620011c9565b92505081905550806000808473ffffffffffffffffffffffffffffffffffffffff1673ffffffffffffffffffffffffffffffffffffffff168152602001908152602001600020600082825401925050819055508173ffffffffffffffffffffffffffffffffffffffff16600073ffffffffffffffffffffffffffffffffffffffff167fddf252ad1be2c89b69c2b068fc378daa952ba7f163c4a11628f55a4df523b3ef836040516200075e919062001215565b60405180910390a36200077a600083836200088d60201b60201c565b5050565b6200079082826200089260201b60201c565b6200086c576001600a600084815260200190815260200160002060000160008373ffffffffffffffffffffffffffffffffffffffff1673ffffffffffffffffffffffffffffffffffffffff16815260200190815260200160002060006101000a81548160ff021916908315150217905550620008116200052d60201b60201c565b73ffffffffffffffffffffffffffffffffffffffff168173ffffffffffffffffffffffffffffffffffffffff16837f2f8788117e7eff1d82e926ec794901d17c78024a50270940304540a733656f0d60405160405180910390a45b5050565b62000888838383620008fd60201b6200272f1760201c565b505050565b505050565b6000600a600084815260200190815260200160002060000160008373ffffffffffffffffffffffffffffffffffffffff1673ffffffffffffffffffffffffffffffffffffffff16815260200190815260200160002060009054906101000a900460ff16905092915050565b62000915838383620009f660201b620027e71760201c565b600073ffffffffffffffffffffffffffffffffffffffff168373ffffffffffffffffffffffffffffffffffffffff160362000971576200095b82620009fb60201b60201c565b6200096b62000a5e60201b60201c565b620009f1565b600073ffffffffffffffffffffffffffffffffffffffff168273ffffffffffffffffffffffffffffffffffffffff1603620009cd57620009b783620009fb60201b60201c565b620009c762000a5e60201b60201c565b620009f0565b620009de83620009fb60201b60201c565b620009ef82620009fb60201b60201c565b5b5b505050565b505050565b62000a5b600560008373ffffffffffffffffffffffffffffffffffffffff1673ffffffffffffffffffffffffffffffffffffffff16815260200190815260200160002062000a4f8362000a8260201b60201c565b62000aca60201b60201c565b50565b62000a80600662000a7462000b5660201b60201c565b62000aca60201b60201c565b565b60008060008373ffffffffffffffffffffffffffffffffffffffff1673ffffffffffffffffffffffffffffffffffffffff168152602001908152602001600020549050919050565b600062000adc62000b6060201b60201c565b90508062000af38460000162000b7e60201b60201c565b101562000b515782600001819080600181540180825580915050600190039060005260206000200160009091909190915055826001018290806001815401808255809150506001900390600052602060002001600090919091909150555b505050565b6000600254905090565b600062000b79600862000bd160201b620027ec1760201c565b905090565b60008082805490500362000b96576000905062000bcc565b816001838054905062000baa91906200111c565b8154811062000bbe5762000bbd62001071565b5b906000526020600020015490505b919050565b600081600001549050919050565b82805482825590600052602060002090810192821562000c5b579160200282015b8281111562000c5a5782518260006101000a81548173ffffffffffffffffffffffffffffffffffffffff021916908373ffffffffffffffffffffffffffffffffffffffff1602179055509160200191906001019062000c00565b5b50905062000c6a919062000c6e565b5090565b5b8082111562000c8957600081600090555060010162000c6f565b5090565b600081519050919050565b7f4e487b7100000000000000000000000000000000000000000000000000000000600052604160045260246000fd5b7f4e487b7100000000000000000000000000000000000000000000000000000000600052602260045260246000fd5b6000600282049050600182168062000d0f57607f821691505b60208210810362000d255762000d2462000cc7565b5b50919050565b60008190508160005260206000209050919050565b60006020601f8301049050919050565b600082821b905092915050565b60006008830262000d8f7fffffffffffffffffffffffffffffffffffffffffffffffffffffffffffffffff8262000d50565b62000d9b868362000d50565b95508019841693508086168417925050509392505050565b6000819050919050565b6000819050919050565b600062000de862000de262000ddc8462000db3565b62000dbd565b62000db3565b9050919050565b6000819050919050565b62000e048362000dc7565b62000e1c62000e138262000def565b84845462000d5d565b825550505050565b600090565b62000e3362000e24565b62000e4081848462000df9565b505050565b5b8181101562000e685762000e5c60008262000e29565b60018101905062000e46565b5050565b601f82111562000eb75762000e818162000d2b565b62000e8c8462000d40565b8101602085101562000e9c578190505b62000eb462000eab8562000d40565b83018262000e45565b50505b505050565b600082821c905092915050565b600062000edc6000198460080262000ebc565b1980831691505092915050565b600062000ef7838362000ec9565b9150826002028217905092915050565b62000f128262000c8d565b67ffffffffffffffff81111562000f2e5762000f2d62000c98565b5b62000f3a825462000cf6565b62000f4782828562000e6c565b600060209050601f83116001811462000f7f576000841562000f6a578287015190505b62000f76858262000ee9565b86555062000fe6565b601f19841662000f8f8662000d2b565b60005b8281101562000fb95784890151825560018201915060208501945060208101905062000f92565b8683101562000fd9578489015162000fd5601f89168262000ec9565b8355505b6001600288020188555050505b505050505050565b600082825260208201905092915050565b7f616472657373206d7573742062652073616d65206c656e677468000000000000600082015250565b600062001037601a8362000fee565b9150620010448262000fff565b602082019050919050565b600060208201905081810360008301526200106a8162001028565b9050919050565b7f4e487b7100000000000000000000000000000000000000000000000000000000600052603260045260246000fd5b7f4e487b7100000000000000000000000000000000000000000000000000000000600052601160045260246000fd5b6000620010dc8262000db3565b91507fffffffffffffffffffffffffffffffffffffffffffffffffffffffffffffffff8203620011115762001110620010a0565b5b600182019050919050565b6000620011298262000db3565b9150620011368362000db3565b9250828203905081811115620011515762001150620010a0565b5b92915050565b7f45524332303a206d696e7420746f20746865207a65726f206164647265737300600082015250565b60006200118f601f8362000fee565b91506200119c8262001157565b602082019050919050565b60006020820190508181036000830152620011c28162001180565b9050919050565b6000620011d68262000db3565b9150620011e38362000db3565b9250828201905080821115620011fe57620011fd620010a0565b5b92915050565b6200120f8162000db3565b82525050565b60006020820190506200122c600083018462001204565b92915050565b615fb680620012426000396000f3fe608060405234801561001057600080fd5b506004361061030c5760003560e01c806375b238fc1161019d578063b69ef8a8116100e9578063d8bff5a5116100a2578063f2fde38b1161007c578063f2fde38b14610a5e578063f70f439414610a7a578063fd489a8e14610a98578063ff51359114610ab45761030c565b8063d8bff5a5146109ce578063dd62ed3e146109fe578063e2f764a314610a2e5761030c565b8063b69ef8a8146108e8578063bf8daa9514610906578063c625562614610936578063c660d11214610966578063d547741f14610996578063d88b2bee146109b25761030c565b8063981b24d011610156578063a217fddf11610130578063a217fddf1461083a578063a457c2d714610858578063a595483414610888578063a9059cbb146108b85761030c565b8063981b24d0146107be5780639998dcbe146107ee5780639f222fe01461081e5761030c565b806375b238fc1461070e57806379cc67901461072c5780638da5cb5b1461074857806391d148541461076657806395d89b41146107965780639711715a146107b45761030c565b8063313ce5671161025c5780634ee2cd7e1161021557806367243482116101ef57806367243482146106745780636dd7d8ea146106a457806370a08231146106d4578063715018a6146107045761030c565b80634ee2cd7e146105e4578063545af4fe146106145780635f66a768146106445761030c565b8063313ce5671461053857806336568abe1461055657806339509351146105725780633c44d740146105a25780633ccfd60b146105be57806342966c68146105c85761030c565b806318160ddd116102c957806323b872dd116102a357806323b872dd1461048c578063248a9ca3146104bc5780632f2ff15d146104ec5780632f61ebc8146105085761030c565b806318160ddd1461040e5780631fd48b9a1461042c5780631ff9b7031461045c5761030c565b806301ffc9a714610311578063037768c214610341578063047fc9aa1461037257806306fdde0314610390578063095ea7b3146103ae57806309eef43e146103de575b600080fd5b61032b600480360381019061032691906140d7565b610ad2565b604051610338919061411f565b60405180910390f35b61035b60048036038101906103569190614198565b610b4c565b6040516103699291906141de565b60405180910390f35b61037a610ba1565b6040516103879190614207565b60405180910390f35b610398610ba7565b6040516103a591906142b2565b60405180910390f35b6103c860048036038101906103c39190614300565b610c39565b6040516103d5919061411f565b60405180910390f35b6103f860048036038101906103f39190614198565b610c5c565b604051610405919061434f565b60405180910390f35b610416610c8f565b6040516104239190614207565b60405180910390f35b61044660048036038101906104419190614198565b610c99565b604051610453919061434f565b60405180910390f35b61047660048036038101906104719190614198565b610ccc565b6040516104839190614207565b60405180910390f35b6104a660048036038101906104a1919061436a565b610ce4565b6040516104b3919061411f565b60405180910390f35b6104d660048036038101906104d191906143f3565b610d13565b6040516104e3919061442f565b60405180910390f35b6105066004803603810190610501919061444a565b610d33565b005b610522600480360381019061051d919061448a565b610d54565b60405161052f919061434f565b60405180910390f35b610540610d93565b60405161054d91906144d3565b60405180910390f35b610570600480360381019061056b919061444a565b610d9c565b005b61058c60048036038101906105879190614300565b610e1f565b604051610599919061411f565b60405180910390f35b6105bc60048036038101906105b7919061448a565b610e56565b005b6105c6610f23565b005b6105e260048036038101906105dd919061448a565b61109d565b005b6105fe60048036038101906105f99190614300565b61113d565b60405161060b9190614207565b60405180910390f35b61062e60048036038101906106299190614198565b6111ad565b60405161063b9190614207565b60405180910390f35b61065e6004803603810190610659919061448a565b6112b8565b60405161066b919061434f565b60405180910390f35b61068e600480360381019061068991906146f9565b6112f7565b60405161069b919061411f565b60405180910390f35b6106be60048036038101906106b99190614198565b611515565b6040516106cb919061411f565b60405180910390f35b6106ee60048036038101906106e99190614198565b611730565b6040516106fb9190614207565b60405180910390f35b61070c611778565b005b61071661178c565b604051610723919061442f565b60405180910390f35b61074660048036038101906107419190614300565b6117b0565b005b6107506117d0565b60405161075d919061434f565b60405180910390f35b610780600480360381019061077b919061444a565b6117fa565b60405161078d919061411f565b60405180910390f35b61079e611865565b6040516107ab91906142b2565b60405180910390f35b6107bc6118f7565b005b6107d860048036038101906107d3919061448a565b61190a565b6040516107e59190614207565b60405180910390f35b61080860048036038101906108039190614771565b61193b565b6040516108159190614207565b60405180910390f35b610838600480360381019061083391906147b1565b611960565b005b610842611bcb565b60405161084f919061442f565b60405180910390f35b610872600480360381019061086d9190614300565b611bd2565b60405161087f919061411f565b60405180910390f35b6108a2600480360381019061089d9190614300565b611c49565b6040516108af9190614207565b60405180910390f35b6108d260048036038101906108cd9190614300565b611cc0565b6040516108df919061411f565b60405180910390f35b6108f0611ce3565b6040516108fd91906148af565b60405180910390f35b610920600480360381019061091b9190614300565b611e3f565b60405161092d919061411f565b60405180910390f35b610950600480360381019061094b919061448a565b611ec7565b60405161095d919061434f565b60405180910390f35b610980600480360381019061097b9190614300565b611f06565b60405161098d9190614207565b60405180910390f35b6109b060048036038101906109ab919061444a565b61201b565b005b6109cc60048036038101906109c79190614300565b61203c565b005b6109e860048036038101906109e39190614198565b61242b565b6040516109f59190614207565b60405180910390f35b610a186004803603810190610a139190614771565b612443565b604051610a259190614207565b60405180910390f35b610a486004803603810190610a4391906146f9565b6124ca565b604051610a55919061411f565b60405180910390f35b610a786004803603810190610a739190614198565b612662565b005b610a826126e5565b604051610a8f9190614207565b60405180910390f35b610ab26004803603810190610aad9190614300565b6126ea565b005b610abc612729565b604051610ac99190614207565b60405180910390f35b60007f7965db0b000000000000000000000000000000000000000000000000000000007bffffffffffffffffffffffffffffffffffffffffffffffffffffffff1916827bffffffffffffffffffffffffffffffffffffffffffffffffffffffff19161480610b455750610b44826127fa565b5b9050919050565b600080601160008473ffffffffffffffffffffffffffffffffffffffff1673ffffffffffffffffffffffffffffffffffffffff168152602001908152602001600020549150610b9a836111ad565b9050915091565b60105481565b606060038054610bb690614900565b80601f0160208091040260200160405190810160405280929190818152602001828054610be290614900565b8015610c2f5780601f10610c0457610100808354040283529160200191610c2f565b820191906000526020600020905b815481529060010190602001808311610c1257829003601f168201915b5050505050905090565b600080610c44612864565b9050610c5181858561286c565b600191505092915050565b60156020528060005260406000206000915054906101000a900473ffffffffffffffffffffffffffffffffffffffff1681565b6000600254905090565b60136020528060005260406000206000915054906101000a900473ffffffffffffffffffffffffffffffffffffffff1681565b60116020528060005260406000206000915090505481565b600080610cef612864565b9050610cfc858285612a35565b610d07858585612ac1565b60019150509392505050565b6000600a6000838152602001908152602001600020600101549050919050565b610d3c82610d13565b610d4581612d37565b610d4f8383612d4b565b505050565b600e8181548110610d6457600080fd5b906000526020600020016000915054906101000a900473ffffffffffffffffffffffffffffffffffffffff1681565b60006012905090565b610da4612864565b73ffffffffffffffffffffffffffffffffffffffff168173ffffffffffffffffffffffffffffffffffffffff1614610e11576040517f08c379a0000000000000000000000000000000000000000000000000000000008152600401610e08906149a3565b60405180910390fd5b610e1b8282612e2c565b5050565b600080610e2a612864565b9050610e4b818585610e3c8589612443565b610e4691906149f2565b61286c565b600191505092915050565b610e5e612f0e565b8060008111610ea2576040517f08c379a0000000000000000000000000000000000000000000000000000000008152600401610e9990614a72565b60405180910390fd5b610eaa612f8c565b6000610eb533611730565b905082811015610efa576040517f08c379a0000000000000000000000000000000000000000000000000000000008152600401610ef190614ade565b60405180910390fd5b610f16670de0b6b3a764000084610f119190614afe565b612fdb565b50610f1f612fef565b5050565b610f2b612f0e565b60005b600d8054905081101561109a576000600d8281548110610f5157610f50614b40565b5b9060005260206000200160009054906101000a900473ffffffffffffffffffffffffffffffffffffffff16905060008173ffffffffffffffffffffffffffffffffffffffff166370a08231306040518263ffffffff1660e01b8152600401610fb9919061434f565b602060405180830381865afa158015610fd6573d6000803e3d6000fd5b505050506040513d601f19601f82011682018060405250810190610ffa9190614b84565b90506000811115611085578173ffffffffffffffffffffffffffffffffffffffff1663a9059cbb33836040518363ffffffff1660e01b8152600401611040929190614bb1565b6020604051808303816000875af115801561105f573d6000803e3d6000fd5b505050506040513d601f19601f820116820180604052508101906110839190614c06565b505b5050808061109290614c33565b915050610f2e565b50565b60006110a833611730565b9050600082116110ed576040517f08c379a00000000000000000000000000000000000000000000000000000000081526004016110e490614cc7565b60405180910390fd5b81811015611130576040517f08c379a000000000000000000000000000000000000000000000000000000000815260040161112790614ade565b60405180910390fd5b61113982612fdb565b5050565b600080600061118a84600560008873ffffffffffffffffffffffffffffffffffffffff1673ffffffffffffffffffffffffffffffffffffffff168152602001908152602001600020612ff9565b91509150816111a15761119c85611730565b6111a3565b805b9250505092915050565b600080600090505b600c805490508110156112b2576000600c82815481106111d8576111d7614b40565b5b9060005260206000200160009054906101000a900473ffffffffffffffffffffffffffffffffffffffff1690506000601260008673ffffffffffffffffffffffffffffffffffffffff1673ffffffffffffffffffffffffffffffffffffffff16815260200190815260200160002060008373ffffffffffffffffffffffffffffffffffffffff1673ffffffffffffffffffffffffffffffffffffffff1681526020019081526020016000205490506112908282611f06565b8461129b91906149f2565b9350505080806112aa90614c33565b9150506111b5565b50919050565b600c81815481106112c857600080fd5b906000526020600020016000915054906101000a900473ffffffffffffffffffffffffffffffffffffffff1681565b6000611301612f0e565b611309612f8c565b815183511461134d576040517f08c379a000000000000000000000000000000000000000000000000000000000815260040161134490614d33565b60405180910390fd5b6000805b845181101561141e57600073ffffffffffffffffffffffffffffffffffffffff1685828151811061138557611384614b40565b5b602002602001015173ffffffffffffffffffffffffffffffffffffffff16036113e3576040517f08c379a00000000000000000000000000000000000000000000000000000000081526004016113da90614d9f565b60405180910390fd5b8381815181106113f6576113f5614b40565b5b60200260200101518261140991906149f2565b9150808061141690614c33565b915050611351565b50600f54811115611464576040517f08c379a000000000000000000000000000000000000000000000000000000000815260040161145b90614e0b565b60405180910390fd5b60005b84518110156114d5576114c185828151811061148657611485614b40565b5b6020026020010151670de0b6b3a76400008684815181106114aa576114a9614b40565b5b60200260200101516114bc9190614afe565b611cc0565b5080806114cd90614c33565b915050611467565b50670de0b6b3a7640000816114ea9190614afe565b600f60008282546114fb9190614e2b565b92505081905550600191505061150f612fef565b92915050565b60003373ffffffffffffffffffffffffffffffffffffffff168273ffffffffffffffffffffffffffffffffffffffff1603611585576040517f08c379a000000000000000000000000000000000000000000000000000000000815260040161157c90614eab565b60405180910390fd5b8173ffffffffffffffffffffffffffffffffffffffff16601560003373ffffffffffffffffffffffffffffffffffffffff1673ffffffffffffffffffffffffffffffffffffffff16815260200190815260200160002060009054906101000a900473ffffffffffffffffffffffffffffffffffffffff1673ffffffffffffffffffffffffffffffffffffffff1603611652576040517f08c379a000000000000000000000000000000000000000000000000000000000815260040161164990614f3d565b60405180910390fd5b6001601460008473ffffffffffffffffffffffffffffffffffffffff1673ffffffffffffffffffffffffffffffffffffffff16815260200190815260200160002060008282546116a291906149f2565b9250508190555081601560003373ffffffffffffffffffffffffffffffffffffffff1673ffffffffffffffffffffffffffffffffffffffff16815260200190815260200160002060006101000a81548173ffffffffffffffffffffffffffffffffffffffff021916908373ffffffffffffffffffffffffffffffffffffffff16021790555060019050919050565b60008060008373ffffffffffffffffffffffffffffffffffffffff1673ffffffffffffffffffffffffffffffffffffffff168152602001908152602001600020549050919050565b611780612f0e565b61178a60006130ee565b565b7fa49807205ce4d355092ef5a8a18f56e8913cf4a201fbe287825b095693c2177581565b6117c2826117bc612864565b83612a35565b6117cc82826131b4565b5050565b6000600960009054906101000a900473ffffffffffffffffffffffffffffffffffffffff16905090565b6000600a600084815260200190815260200160002060000160008373ffffffffffffffffffffffffffffffffffffffff1673ffffffffffffffffffffffffffffffffffffffff16815260200190815260200160002060009054906101000a900460ff16905092915050565b60606004805461187490614900565b80601f01602080910402602001604051908101604052809291908181526020018280546118a090614900565b80156118ed5780601f106118c2576101008083540402835291602001916118ed565b820191906000526020600020905b8154815290600101906020018083116118d057829003601f168201915b5050505050905090565b6118ff612f0e565b611907613381565b50565b600080600061191a846006612ff9565b91509150816119305761192b610c8f565b611932565b805b92505050919050565b6012602052816000526040600020602052806000526040600020600091509150505481565b600061196b826133d7565b9050600081600a61197c9190615090565b6005856119899190614afe565b6119939190614afe565b9050600060646002836119a69190614afe565b6119b0919061510a565b9050600081836119c09190614e2b565b9050828573ffffffffffffffffffffffffffffffffffffffff166370a08231306040518263ffffffff1660e01b81526004016119fc919061434f565b602060405180830381865afa158015611a19573d6000803e3d6000fd5b505050506040513d601f19601f82011682018060405250810190611a3d9190614b84565b1015611a7e576040517f08c379a0000000000000000000000000000000000000000000000000000000008152600401611a7590615187565b60405180910390fd5b611a9a670de0b6b3a764000087611a959190614afe565b613454565b611abe611aa56117d0565b670de0b6b3a764000088611ab99190614afe565b6134bc565b8473ffffffffffffffffffffffffffffffffffffffff1663a9059cbb611ae26117d0565b846040518363ffffffff1660e01b8152600401611b00929190614bb1565b6020604051808303816000875af1158015611b1f573d6000803e3d6000fd5b505050506040513d601f19601f82011682018060405250810190611b439190614c06565b508473ffffffffffffffffffffffffffffffffffffffff1663a9059cbb33836040518363ffffffff1660e01b8152600401611b7f929190614bb1565b6020604051808303816000875af1158015611b9e573d6000803e3d6000fd5b505050506040513d601f19601f82011682018060405250810190611bc29190614c06565b50505050505050565b6000801b81565b600080611bdd612864565b90506000611beb8286612443565b905083811015611c30576040517f08c379a0000000000000000000000000000000000000000000000000000000008152600401611c2790615219565b60405180910390fd5b611c3d828686840361286c565b60019250505092915050565b600080611c55846133d7565b9050600081600a611c669190615090565b84611c719190614afe565b90506000674563918244f400009050600081846012611c909190615239565b600a611c9c9190615090565b84611ca79190614afe565b611cb1919061510a565b90508094505050505092915050565b600080611ccb612864565b9050611cd8818585612ac1565b600191505092915050565b60606000600d8054905067ffffffffffffffff811115611d0657611d056144f3565b5b604051908082528060200260200182016040528015611d345781602001602082028036833780820191505090505b50905060005b600d80549050811015611e37576000600d8281548110611d5d57611d5c614b40565b5b9060005260206000200160009054906101000a900473ffffffffffffffffffffffffffffffffffffffff1690508073ffffffffffffffffffffffffffffffffffffffff166370a08231306040518263ffffffff1660e01b8152600401611dc3919061434f565b602060405180830381865afa158015611de0573d6000803e3d6000fd5b505050506040513d601f19601f82011682018060405250810190611e049190614b84565b838381518110611e1757611e16614b40565b5b602002602001018181525050508080611e2f90614c33565b915050611d3a565b508091505090565b6000611e49612f8c565b611e51612f0e565b3392506000821015611e98576040517f08c379a0000000000000000000000000000000000000000000000000000000008152600401611e8f90614cc7565b60405180910390fd5b611eb583670de0b6b3a764000084611eb09190614afe565b6134bc565b60019050611ec1612fef565b92915050565b600d8181548110611ed757600080fd5b906000526020600020016000915054906101000a900473ffffffffffffffffffffffffffffffffffffffff1681565b600080601360008573ffffffffffffffffffffffffffffffffffffffff1673ffffffffffffffffffffffffffffffffffffffff16815260200190815260200160002060009054906101000a900473ffffffffffffffffffffffffffffffffffffffff16905060008173ffffffffffffffffffffffffffffffffffffffff1663feaf968c6040518163ffffffff1660e01b815260040160a060405180830381865afa158015611fb8573d6000803e3d6000fd5b505050506040513d601f19601f82011682018060405250810190611fdc91906152e6565b505050915050670de0b6b3a7640000846402540be40083611ffd9190614afe565b6120079190614afe565b612011919061510a565b9250505092915050565b61202482610d13565b61202d81612d37565b6120378383612e2c565b505050565b6000612047836133d7565b9050600081600a6120589190615090565b836120639190614afe565b905060006120718585611c49565b90506000670de0b6b3a7640000826120899190614afe565b90506000606460038561209c9190614afe565b6120a6919061510a565b905085601260003373ffffffffffffffffffffffffffffffffffffffff1673ffffffffffffffffffffffffffffffffffffffff16815260200190815260200160002060008973ffffffffffffffffffffffffffffffffffffffff1673ffffffffffffffffffffffffffffffffffffffff168152602001908152602001600020541015612167576040517f08c379a000000000000000000000000000000000000000000000000000000000815260040161215e906153ad565b60405180910390fd5b85601260003373ffffffffffffffffffffffffffffffffffffffff1673ffffffffffffffffffffffffffffffffffffffff16815260200190815260200160002060008973ffffffffffffffffffffffffffffffffffffffff1673ffffffffffffffffffffffffffffffffffffffff16815260200190815260200160002060008282546121f39190614e2b565b92505081905550600081856122089190614e2b565b945084905060008873ffffffffffffffffffffffffffffffffffffffff166370a08231306040518263ffffffff1660e01b8152600401612248919061434f565b602060405180830381865afa158015612265573d6000803e3d6000fd5b505050506040513d601f19601f820116820180604052508101906122899190614b84565b9050818110156122ce576040517f08c379a00000000000000000000000000000000000000000000000000000000081526004016122c590615187565b60405180910390fd5b60008973ffffffffffffffffffffffffffffffffffffffff1663a9059cbb33856040518363ffffffff1660e01b815260040161230b929190614bb1565b6020604051808303816000875af115801561232a573d6000803e3d6000fd5b505050506040513d601f19601f8201168201806040525081019061234e9190614c06565b905080612390576040517f08c379a000000000000000000000000000000000000000000000000000000000815260040161238790615419565b60405180910390fd5b8973ffffffffffffffffffffffffffffffffffffffff1663a9059cbb6123b46117d0565b866040518363ffffffff1660e01b81526004016123d2929190614bb1565b6020604051808303816000875af11580156123f1573d6000803e3d6000fd5b505050506040513d601f19601f820116820180604052508101906124159190614c06565b5061241f85613454565b50505050505050505050565b60146020528060005260406000206000915090505481565b6000600160008473ffffffffffffffffffffffffffffffffffffffff1673ffffffffffffffffffffffffffffffffffffffff16815260200190815260200160002060008373ffffffffffffffffffffffffffffffffffffffff1673ffffffffffffffffffffffffffffffffffffffff16815260200190815260200160002054905092915050565b60006124d4612f0e565b6124dc612f8c565b8151835114612520576040517f08c379a0000000000000000000000000000000000000000000000000000000008152600401612517906154ab565b60405180910390fd5b60005b835181101561264f57600084828151811061254157612540614b40565b5b6020026020010151905060008483815181106125605761255f614b40565b5b60200260200101519050600073ffffffffffffffffffffffffffffffffffffffff168273ffffffffffffffffffffffffffffffffffffffff16036125d9576040517f08c379a00000000000000000000000000000000000000000000000000000000081526004016125d090615517565b60405180910390fd5b600081101561261d576040517f08c379a000000000000000000000000000000000000000000000000000000000815260040161261490614cc7565b60405180910390fd5b61263a82670de0b6b3a7640000836126359190614afe565b6134bc565b5050808061264790614c33565b915050612523565b506001905061265c612fef565b92915050565b61266a612f0e565b600073ffffffffffffffffffffffffffffffffffffffff168173ffffffffffffffffffffffffffffffffffffffff16036126d9576040517f08c379a00000000000000000000000000000000000000000000000000000000081526004016126d0906155a9565b60405180910390fd5b6126e2816130ee565b50565b600a81565b6126f48282613612565b60006127008383611c49565b90506000670de0b6b3a7640000826127189190614afe565b9050612723816138df565b50505050565b600f5481565b61273a8383836127e7565b600073ffffffffffffffffffffffffffffffffffffffff168373ffffffffffffffffffffffffffffffffffffffff160361278457612777826139cc565b61277f613a1f565b6127e2565b600073ffffffffffffffffffffffffffffffffffffffff168273ffffffffffffffffffffffffffffffffffffffff16036127ce576127c1836139cc565b6127c9613a1f565b6127e1565b6127d7836139cc565b6127e0826139cc565b5b5b505050565b505050565b600081600001549050919050565b60007f01ffc9a7000000000000000000000000000000000000000000000000000000007bffffffffffffffffffffffffffffffffffffffffffffffffffffffff1916827bffffffffffffffffffffffffffffffffffffffffffffffffffffffff1916149050919050565b600033905090565b600073ffffffffffffffffffffffffffffffffffffffff168373ffffffffffffffffffffffffffffffffffffffff16036128db576040517f08c379a00000000000000000000000000000000000000000000000000000000081526004016128d29061563b565b60405180910390fd5b600073ffffffffffffffffffffffffffffffffffffffff168273ffffffffffffffffffffffffffffffffffffffff160361294a576040517f08c379a0000000000000000000000000000000000000000000000000000000008152600401612941906156cd565b60405180910390fd5b80600160008573ffffffffffffffffffffffffffffffffffffffff1673ffffffffffffffffffffffffffffffffffffffff16815260200190815260200160002060008473ffffffffffffffffffffffffffffffffffffffff1673ffffffffffffffffffffffffffffffffffffffff168152602001908152602001600020819055508173ffffffffffffffffffffffffffffffffffffffff168373ffffffffffffffffffffffffffffffffffffffff167f8c5be1e5ebec7d5bd14f71427d1e84f3dd0314c0f7b2291e5b200ac8c7c3b92583604051612a289190614207565b60405180910390a3505050565b6000612a418484612443565b90507fffffffffffffffffffffffffffffffffffffffffffffffffffffffffffffffff8114612abb5781811015612aad576040517f08c379a0000000000000000000000000000000000000000000000000000000008152600401612aa490615739565b60405180910390fd5b612aba848484840361286c565b5b50505050565b600073ffffffffffffffffffffffffffffffffffffffff168373ffffffffffffffffffffffffffffffffffffffff1603612b30576040517f08c379a0000000000000000000000000000000000000000000000000000000008152600401612b27906157cb565b60405180910390fd5b600073ffffffffffffffffffffffffffffffffffffffff168273ffffffffffffffffffffffffffffffffffffffff1603612b9f576040517f08c379a0000000000000000000000000000000000000000000000000000000008152600401612b969061585d565b60405180910390fd5b612baa838383613a33565b60008060008573ffffffffffffffffffffffffffffffffffffffff1673ffffffffffffffffffffffffffffffffffffffff16815260200190815260200160002054905081811015612c30576040517f08c379a0000000000000000000000000000000000000000000000000000000008152600401612c27906158ef565b60405180910390fd5b8181036000808673ffffffffffffffffffffffffffffffffffffffff1673ffffffffffffffffffffffffffffffffffffffff16815260200190815260200160002081905550816000808573ffffffffffffffffffffffffffffffffffffffff1673ffffffffffffffffffffffffffffffffffffffff168152602001908152602001600020600082825401925050819055508273ffffffffffffffffffffffffffffffffffffffff168473ffffffffffffffffffffffffffffffffffffffff167fddf252ad1be2c89b69c2b068fc378daa952ba7f163c4a11628f55a4df523b3ef84604051612d1e9190614207565b60405180910390a3612d31848484613a43565b50505050565b612d4881612d43612864565b613a48565b50565b612d5582826117fa565b612e28576001600a600084815260200190815260200160002060000160008373ffffffffffffffffffffffffffffffffffffffff1673ffffffffffffffffffffffffffffffffffffffff16815260200190815260200160002060006101000a81548160ff021916908315150217905550612dcd612864565b73ffffffffffffffffffffffffffffffffffffffff168173ffffffffffffffffffffffffffffffffffffffff16837f2f8788117e7eff1d82e926ec794901d17c78024a50270940304540a733656f0d60405160405180910390a45b5050565b612e3682826117fa565b15612f0a576000600a600084815260200190815260200160002060000160008373ffffffffffffffffffffffffffffffffffffffff1673ffffffffffffffffffffffffffffffffffffffff16815260200190815260200160002060006101000a81548160ff021916908315150217905550612eaf612864565b73ffffffffffffffffffffffffffffffffffffffff168173ffffffffffffffffffffffffffffffffffffffff16837ff6391f5c32d9c69d2a47ea670b442974b53935d1edc7fd64eb21e047a839171b60405160405180910390a45b5050565b612f16612864565b73ffffffffffffffffffffffffffffffffffffffff16612f346117d0565b73ffffffffffffffffffffffffffffffffffffffff1614612f8a576040517f08c379a0000000000000000000000000000000000000000000000000000000008152600401612f819061595b565b60405180910390fd5b565b6002600b5403612fd1576040517f08c379a0000000000000000000000000000000000000000000000000000000008152600401612fc8906159c7565b60405180910390fd5b6002600b81905550565b612fec612fe6612864565b826131b4565b50565b6001600b81905550565b6000806000841161303f576040517f08c379a000000000000000000000000000000000000000000000000000000000815260040161303690615a33565b60405180910390fd5b613047613acd565b841115613089576040517f08c379a000000000000000000000000000000000000000000000000000000000815260040161308090615a9f565b60405180910390fd5b60006130a18585600001613ade90919063ffffffff16565b9050836000018054905081036130be5760008092509250506130e7565b60018460010182815481106130d6576130d5614b40565b5b906000526020600020015492509250505b9250929050565b6000600960009054906101000a900473ffffffffffffffffffffffffffffffffffffffff16905081600960006101000a81548173ffffffffffffffffffffffffffffffffffffffff021916908373ffffffffffffffffffffffffffffffffffffffff1602179055508173ffffffffffffffffffffffffffffffffffffffff168173ffffffffffffffffffffffffffffffffffffffff167f8be0079c531659141344cd1fd0a4f28419497f9722a3daafe3b4186f6b6457e060405160405180910390a35050565b600073ffffffffffffffffffffffffffffffffffffffff168273ffffffffffffffffffffffffffffffffffffffff1603613223576040517f08c379a000000000000000000000000000000000000000000000000000000000815260040161321a90615b31565b60405180910390fd5b61322f82600083613a33565b60008060008473ffffffffffffffffffffffffffffffffffffffff1673ffffffffffffffffffffffffffffffffffffffff168152602001908152602001600020549050818110156132b5576040517f08c379a00000000000000000000000000000000000000000000000000000000081526004016132ac90615bc3565b60405180910390fd5b8181036000808573ffffffffffffffffffffffffffffffffffffffff1673ffffffffffffffffffffffffffffffffffffffff1681526020019081526020016000208190555081600260008282540392505081905550600073ffffffffffffffffffffffffffffffffffffffff168373ffffffffffffffffffffffffffffffffffffffff167fddf252ad1be2c89b69c2b068fc378daa952ba7f163c4a11628f55a4df523b3ef846040516133689190614207565b60405180910390a361337c83600084613a43565b505050565b600061338d6008613b97565b6000613397613acd565b90507f8030e83b04d87bef53480e26263266d6ca66863aa8506aca6f2559d18aa1cb67816040516133c89190614207565b60405180910390a18091505090565b6000808290508073ffffffffffffffffffffffffffffffffffffffff1663313ce5676040518163ffffffff1660e01b8152600401602060405180830381865afa158015613428573d6000803e3d6000fd5b505050506040513d601f19601f8201168201806040525081019061344c9190615c0f565b915050919050565b8060008111613498576040517f08c379a000000000000000000000000000000000000000000000000000000000815260040161348f90614a72565b60405180910390fd5b6134a0612f8c565b60008290506134af8133613bad565b506134b8612fef565b5050565b600073ffffffffffffffffffffffffffffffffffffffff168273ffffffffffffffffffffffffffffffffffffffff160361352b576040517f08c379a000000000000000000000000000000000000000000000000000000000815260040161352290615c88565b60405180910390fd5b61353760008383613a33565b806002600082825461354991906149f2565b92505081905550806000808473ffffffffffffffffffffffffffffffffffffffff1673ffffffffffffffffffffffffffffffffffffffff168152602001908152602001600020600082825401925050819055508173ffffffffffffffffffffffffffffffffffffffff16600073ffffffffffffffffffffffffffffffffffffffff167fddf252ad1be2c89b69c2b068fc378daa952ba7f163c4a11628f55a4df523b3ef836040516135fa9190614207565b60405180910390a361360e60008383613a43565b5050565b8060008111613656576040517f08c379a000000000000000000000000000000000000000000000000000000000815260040161364d90614a72565b60405180910390fd5b61365e612f8c565b82600073ffffffffffffffffffffffffffffffffffffffff16601360008373ffffffffffffffffffffffffffffffffffffffff1673ffffffffffffffffffffffffffffffffffffffff16815260200190815260200160002060009054906101000a900473ffffffffffffffffffffffffffffffffffffffff1673ffffffffffffffffffffffffffffffffffffffff160361372d576040517f08c379a000000000000000000000000000000000000000000000000000000000815260040161372490615cf4565b60405180910390fd5b6000613738856133d7565b9050600081600a6137499190615090565b856137549190614afe565b905080601260003373ffffffffffffffffffffffffffffffffffffffff1673ffffffffffffffffffffffffffffffffffffffff16815260200190815260200160002060008873ffffffffffffffffffffffffffffffffffffffff1673ffffffffffffffffffffffffffffffffffffffff16815260200190815260200160002060008282546137e291906149f2565b925050819055508573ffffffffffffffffffffffffffffffffffffffff163373ffffffffffffffffffffffffffffffffffffffff167fe4c032bd651f378a59936633a0f92b7497fd3577f65c95dc20a01acface334cc836040516138469190614207565b60405180910390a38573ffffffffffffffffffffffffffffffffffffffff166323b872dd3330846040518463ffffffff1660e01b815260040161388b93929190615d14565b6020604051808303816000875af11580156138aa573d6000803e3d6000fd5b505050506040513d601f19601f820116820180604052508101906138ce9190614c06565b505050506138da612fef565b505050565b8060008111613923576040517f08c379a000000000000000000000000000000000000000000000000000000000815260040161391a90614a72565b60405180910390fd5b81601160003373ffffffffffffffffffffffffffffffffffffffff1673ffffffffffffffffffffffffffffffffffffffff168152602001908152602001600020600082825461397291906149f2565b9250508190555060006139853384613c10565b9050806139c7576040517f08c379a00000000000000000000000000000000000000000000000000000000081526004016139be90615dbd565b60405180910390fd5b505050565b613a1c600560008373ffffffffffffffffffffffffffffffffffffffff1673ffffffffffffffffffffffffffffffffffffffff168152602001908152602001600020613a1783611730565b613ce9565b50565b613a316006613a2c610c8f565b613ce9565b565b613a3e83838361272f565b505050565b505050565b613a5282826117fa565b613ac957613a5f81613d64565b613a6d8360001c6020613d91565b604051602001613a7e929190615eb1565b6040516020818303038152906040526040517f08c379a0000000000000000000000000000000000000000000000000000000008152600401613ac091906142b2565b60405180910390fd5b5050565b6000613ad960086127ec565b905090565b600080838054905003613af45760009050613b91565b600080848054905090505b80821015613b48576000613b138383613fcd565b905084613b208783613ff3565b600001541115613b3257809150613b42565b600181613b3f91906149f2565b92505b50613aff565b600082118015613b70575083613b6a86600185613b659190614e2b565b613ff3565b60000154145b15613b8b57600182613b829190614e2b565b92505050613b91565b81925050505b92915050565b6001816000016000828254019250508190555050565b81601160008373ffffffffffffffffffffffffffffffffffffffff1673ffffffffffffffffffffffffffffffffffffffff1681526020019081526020016000206000828254613bfc9190614e2b565b92505081905550613c0c8261109d565b5050565b6000613c1a612f8c565b600073ffffffffffffffffffffffffffffffffffffffff168373ffffffffffffffffffffffffffffffffffffffff1603613c89576040517f08c379a0000000000000000000000000000000000000000000000000000000008152600401613c8090615517565b60405180910390fd5b6000821015613ccd576040517f08c379a0000000000000000000000000000000000000000000000000000000008152600401613cc490614cc7565b60405180910390fd5b613cd783836134bc565b60019050613ce3612fef565b92915050565b6000613cf3613acd565b905080613d0284600001614015565b1015613d5f5782600001819080600181540180825580915050600190039060005260206000200160009091909190915055826001018290806001815401808255809150506001900390600052602060002001600090919091909150555b505050565b6060613d8a8273ffffffffffffffffffffffffffffffffffffffff16601460ff16613d91565b9050919050565b606060006002836002613da49190614afe565b613dae91906149f2565b67ffffffffffffffff811115613dc757613dc66144f3565b5b6040519080825280601f01601f191660200182016040528015613df95781602001600182028036833780820191505090505b5090507f300000000000000000000000000000000000000000000000000000000000000081600081518110613e3157613e30614b40565b5b60200101907effffffffffffffffffffffffffffffffffffffffffffffffffffffffffffff1916908160001a9053507f780000000000000000000000000000000000000000000000000000000000000081600181518110613e9557613e94614b40565b5b60200101907effffffffffffffffffffffffffffffffffffffffffffffffffffffffffffff1916908160001a90535060006001846002613ed59190614afe565b613edf91906149f2565b90505b6001811115613f7f577f3031323334353637383961626364656600000000000000000000000000000000600f861660108110613f2157613f20614b40565b5b1a60f81b828281518110613f3857613f37614b40565b5b60200101907effffffffffffffffffffffffffffffffffffffffffffffffffffffffffffff1916908160001a905350600485901c945080613f7890615eeb565b9050613ee2565b5060008414613fc3576040517f08c379a0000000000000000000000000000000000000000000000000000000008152600401613fba90615f60565b60405180910390fd5b8091505092915050565b60006002828418613fde919061510a565b828416613feb91906149f2565b905092915050565b6000808360005282602060002001905061400c81614061565b91505092915050565b60008082805490500361402b576000905061405c565b816001838054905061403d9190614e2b565b8154811061404e5761404d614b40565b5b906000526020600020015490505b919050565b6000819050919050565b6000604051905090565b600080fd5b600080fd5b60007fffffffff0000000000000000000000000000000000000000000000000000000082169050919050565b6140b48161407f565b81146140bf57600080fd5b50565b6000813590506140d1816140ab565b92915050565b6000602082840312156140ed576140ec614075565b5b60006140fb848285016140c2565b91505092915050565b60008115159050919050565b61411981614104565b82525050565b60006020820190506141346000830184614110565b92915050565b600073ffffffffffffffffffffffffffffffffffffffff82169050919050565b60006141658261413a565b9050919050565b6141758161415a565b811461418057600080fd5b50565b6000813590506141928161416c565b92915050565b6000602082840312156141ae576141ad614075565b5b60006141bc84828501614183565b91505092915050565b6000819050919050565b6141d8816141c5565b82525050565b60006040820190506141f360008301856141cf565b61420060208301846141cf565b9392505050565b600060208201905061421c60008301846141cf565b92915050565b600081519050919050565b600082825260208201905092915050565b60005b8381101561425c578082015181840152602081019050614241565b60008484015250505050565b6000601f19601f8301169050919050565b600061428482614222565b61428e818561422d565b935061429e81856020860161423e565b6142a781614268565b840191505092915050565b600060208201905081810360008301526142cc8184614279565b905092915050565b6142dd816141c5565b81146142e857600080fd5b50565b6000813590506142fa816142d4565b92915050565b6000806040838503121561431757614316614075565b5b600061432585828601614183565b9250506020614336858286016142eb565b9150509250929050565b6143498161415a565b82525050565b60006020820190506143646000830184614340565b92915050565b60008060006060848603121561438357614382614075565b5b600061439186828701614183565b93505060206143a286828701614183565b92505060406143b3868287016142eb565b9150509250925092565b6000819050919050565b6143d0816143bd565b81146143db57600080fd5b50565b6000813590506143ed816143c7565b92915050565b60006020828403121561440957614408614075565b5b6000614417848285016143de565b91505092915050565b614429816143bd565b82525050565b60006020820190506144446000830184614420565b92915050565b6000806040838503121561446157614460614075565b5b600061446f858286016143de565b925050602061448085828601614183565b9150509250929050565b6000602082840312156144a05761449f614075565b5b60006144ae848285016142eb565b91505092915050565b600060ff82169050919050565b6144cd816144b7565b82525050565b60006020820190506144e860008301846144c4565b92915050565b600080fd5b7f4e487b7100000000000000000000000000000000000000000000000000000000600052604160045260246000fd5b61452b82614268565b810181811067ffffffffffffffff8211171561454a576145496144f3565b5b80604052505050565b600061455d61406b565b90506145698282614522565b919050565b600067ffffffffffffffff821115614589576145886144f3565b5b602082029050602081019050919050565b600080fd5b60006145b26145ad8461456e565b614553565b905080838252602082019050602084028301858111156145d5576145d461459a565b5b835b818110156145fe57806145ea8882614183565b8452602084019350506020810190506145d7565b5050509392505050565b600082601f83011261461d5761461c6144ee565b5b813561462d84826020860161459f565b91505092915050565b600067ffffffffffffffff821115614651576146506144f3565b5b602082029050602081019050919050565b600061467561467084614636565b614553565b905080838252602082019050602084028301858111156146985761469761459a565b5b835b818110156146c157806146ad88826142eb565b84526020840193505060208101905061469a565b5050509392505050565b600082601f8301126146e0576146df6144ee565b5b81356146f0848260208601614662565b91505092915050565b600080604083850312156147105761470f614075565b5b600083013567ffffffffffffffff81111561472e5761472d61407a565b5b61473a85828601614608565b925050602083013567ffffffffffffffff81111561475b5761475a61407a565b5b614767858286016146cb565b9150509250929050565b6000806040838503121561478857614787614075565b5b600061479685828601614183565b92505060206147a785828601614183565b9150509250929050565b600080604083850312156147c8576147c7614075565b5b60006147d6858286016142eb565b92505060206147e785828601614183565b9150509250929050565b600081519050919050565b600082825260208201905092915050565b6000819050602082019050919050565b614826816141c5565b82525050565b6000614838838361481d565b60208301905092915050565b6000602082019050919050565b600061485c826147f1565b61486681856147fc565b93506148718361480d565b8060005b838110156148a2578151614889888261482c565b975061489483614844565b925050600181019050614875565b5085935050505092915050565b600060208201905081810360008301526148c98184614851565b905092915050565b7f4e487b7100000000000000000000000000000000000000000000000000000000600052602260045260246000fd5b6000600282049050600182168061491857607f821691505b60208210810361492b5761492a6148d1565b5b50919050565b7f416363657373436f6e74726f6c3a2063616e206f6e6c792072656e6f756e636560008201527f20726f6c657320666f722073656c660000000000000000000000000000000000602082015250565b600061498d602f8361422d565b915061499882614931565b604082019050919050565b600060208201905081810360008301526149bc81614980565b9050919050565b7f4e487b7100000000000000000000000000000000000000000000000000000000600052601160045260246000fd5b60006149fd826141c5565b9150614a08836141c5565b9250828201905080821115614a2057614a1f6149c3565b5b92915050565b7f616d6f756e74206d7573742062652067726561746572207468616e207a65726f600082015250565b6000614a5c60208361422d565b9150614a6782614a26565b602082019050919050565b60006020820190508181036000830152614a8b81614a4f565b9050919050565b7f6275726e61626c6520657863656564732062616c616e63650000000000000000600082015250565b6000614ac860188361422d565b9150614ad382614a92565b602082019050919050565b60006020820190508181036000830152614af781614abb565b9050919050565b6000614b09826141c5565b9150614b14836141c5565b9250828202614b22816141c5565b91508282048414831517614b3957614b386149c3565b5b5092915050565b7f4e487b7100000000000000000000000000000000000000000000000000000000600052603260045260246000fd5b600081519050614b7e816142d4565b92915050565b600060208284031215614b9a57614b99614075565b5b6000614ba884828501614b6f565b91505092915050565b6000604082019050614bc66000830185614340565b614bd360208301846141cf565b9392505050565b614be381614104565b8114614bee57600080fd5b50565b600081519050614c0081614bda565b92915050565b600060208284031215614c1c57614c1b614075565b5b6000614c2a84828501614bf1565b91505092915050565b6000614c3e826141c5565b91507fffffffffffffffffffffffffffffffffffffffffffffffffffffffffffffffff8203614c7057614c6f6149c3565b5b600182019050919050565b7f616d6f756e74206d757374206265206d6f7265207468616e207a65726f000000600082015250565b6000614cb1601d8361422d565b9150614cbc82614c7b565b602082019050919050565b60006020820190508181036000830152614ce081614ca4565b9050919050565b7f496e76616c696420696e70757420617272617973000000000000000000000000600082015250565b6000614d1d60148361422d565b9150614d2882614ce7565b602082019050919050565b60006020820190508181036000830152614d4c81614d10565b9050919050565b7f496e76616c696420726563697069656e74206164647265737300000000000000600082015250565b6000614d8960198361422d565b9150614d9482614d53565b602082019050919050565b60006020820190508181036000830152614db881614d7c565b9050919050565b7f496e73756666696369656e742061697264726f702062616c616e636500000000600082015250565b6000614df5601c8361422d565b9150614e0082614dbf565b602082019050919050565b60006020820190508181036000830152614e2481614de8565b9050919050565b6000614e36826141c5565b9150614e41836141c5565b9250828203905081811115614e5957614e586149c3565b5b92915050565b7f596f752063616e6e6f7420766f746520666f7220796f757273656c6600000000600082015250565b6000614e95601c8361422d565b9150614ea082614e5f565b602082019050919050565b60006020820190508181036000830152614ec481614e88565b9050919050565b7f596f75206861766520616c726561647920766f74656420666f7220746869732060008201527f63616e6469646174650000000000000000000000000000000000000000000000602082015250565b6000614f2760298361422d565b9150614f3282614ecb565b604082019050919050565b60006020820190508181036000830152614f5681614f1a565b9050919050565b60008160011c9050919050565b6000808291508390505b6001851115614fb457808604811115614f9057614f8f6149c3565b5b6001851615614f9f5780820291505b8081029050614fad85614f5d565b9450614f74565b94509492505050565b600082614fcd5760019050615089565b81614fdb5760009050615089565b8160018114614ff15760028114614ffb5761502a565b6001915050615089565b60ff84111561500d5761500c6149c3565b5b8360020a915084821115615024576150236149c3565b5b50615089565b5060208310610133831016604e8410600b841016171561505f5782820a90508381111561505a576150596149c3565b5b615089565b61506c8484846001614f6a565b92509050818404811115615083576150826149c3565b5b81810290505b9392505050565b600061509b826141c5565b91506150a6836144b7565b92506150d37fffffffffffffffffffffffffffffffffffffffffffffffffffffffffffffffff8484614fbd565b905092915050565b7f4e487b7100000000000000000000000000000000000000000000000000000000600052601260045260246000fd5b6000615115826141c5565b9150615120836141c5565b9250826151305761512f6150db565b5b828204905092915050565b7f4e6f7420656e6f75676820746f6b656e7320696e20636f6e7472616374000000600082015250565b6000615171601d8361422d565b915061517c8261513b565b602082019050919050565b600060208201905081810360008301526151a081615164565b9050919050565b7f45524332303a2064656372656173656420616c6c6f77616e63652062656c6f7760008201527f207a65726f000000000000000000000000000000000000000000000000000000602082015250565b600061520360258361422d565b915061520e826151a7565b604082019050919050565b60006020820190508181036000830152615232816151f6565b9050919050565b6000615244826144b7565b915061524f836144b7565b9250828203905060ff811115615268576152676149c3565b5b92915050565b600069ffffffffffffffffffff82169050919050565b61528d8161526e565b811461529857600080fd5b50565b6000815190506152aa81615284565b92915050565b6000819050919050565b6152c3816152b0565b81146152ce57600080fd5b50565b6000815190506152e0816152ba565b92915050565b600080600080600060a0868803121561530257615301614075565b5b60006153108882890161529b565b9550506020615321888289016152d1565b945050604061533288828901614b6f565b935050606061534388828901614b6f565b92505060806153548882890161529b565b9150509295509295909350565b7f4e6f7420656e6f75676820636f6c6c61746572616c206465706f736974656400600082015250565b6000615397601f8361422d565b91506153a282615361565b602082019050919050565b600060208201905081810360008301526153c68161538a565b9050919050565b7f5472616e73666572206f6620636f6c6c61746572616c206661696c6564000000600082015250565b6000615403601d8361422d565b915061540e826153cd565b602082019050919050565b60006020820190508181036000830152615432816153f6565b9050919050565b7f726563697069656e747320616e6420616d6f756e747320617272617973206d7560008201527f73742068617665207468652073616d65206c656e677468000000000000000000602082015250565b600061549560378361422d565b91506154a082615439565b604082019050919050565b600060208201905081810360008301526154c481615488565b9050919050565b7f696e76616c696420616464726573730000000000000000000000000000000000600082015250565b6000615501600f8361422d565b915061550c826154cb565b602082019050919050565b60006020820190508181036000830152615530816154f4565b9050919050565b7f4f776e61626c653a206e6577206f776e657220697320746865207a65726f206160008201527f6464726573730000000000000000000000000000000000000000000000000000602082015250565b600061559360268361422d565b915061559e82615537565b604082019050919050565b600060208201905081810360008301526155c281615586565b9050919050565b7f45524332303a20617070726f76652066726f6d20746865207a65726f2061646460008201527f7265737300000000000000000000000000000000000000000000000000000000602082015250565b600061562560248361422d565b9150615630826155c9565b604082019050919050565b6000602082019050818103600083015261565481615618565b9050919050565b7f45524332303a20617070726f766520746f20746865207a65726f20616464726560008201527f7373000000000000000000000000000000000000000000000000000000000000602082015250565b60006156b760228361422d565b91506156c28261565b565b604082019050919050565b600060208201905081810360008301526156e6816156aa565b9050919050565b7f45524332303a20696e73756666696369656e7420616c6c6f77616e6365000000600082015250565b6000615723601d8361422d565b915061572e826156ed565b602082019050919050565b6000602082019050818103600083015261575281615716565b9050919050565b7f45524332303a207472616e736665722066726f6d20746865207a65726f20616460008201527f6472657373000000000000000000000000000000000000000000000000000000602082015250565b60006157b560258361422d565b91506157c082615759565b604082019050919050565b600060208201905081810360008301526157e4816157a8565b9050919050565b7f45524332303a207472616e7366657220746f20746865207a65726f206164647260008201527f6573730000000000000000000000000000000000000000000000000000000000602082015250565b600061584760238361422d565b9150615852826157eb565b604082019050919050565b600060208201905081810360008301526158768161583a565b9050919050565b7f45524332303a207472616e7366657220616d6f756e742065786365656473206260008201527f616c616e63650000000000000000000000000000000000000000000000000000602082015250565b60006158d960268361422d565b91506158e48261587d565b604082019050919050565b60006020820190508181036000830152615908816158cc565b9050919050565b7f4f776e61626c653a2063616c6c6572206973206e6f7420746865206f776e6572600082015250565b600061594560208361422d565b91506159508261590f565b602082019050919050565b6000602082019050818103600083015261597481615938565b9050919050565b7f5265656e7472616e637947756172643a207265656e7472616e742063616c6c00600082015250565b60006159b1601f8361422d565b91506159bc8261597b565b602082019050919050565b600060208201905081810360008301526159e0816159a4565b9050919050565b7f4552433230536e617073686f743a206964206973203000000000000000000000600082015250565b6000615a1d60168361422d565b9150615a28826159e7565b602082019050919050565b60006020820190508181036000830152615a4c81615a10565b9050919050565b7f4552433230536e617073686f743a206e6f6e6578697374656e74206964000000600082015250565b6000615a89601d8361422d565b9150615a9482615a53565b602082019050919050565b60006020820190508181036000830152615ab881615a7c565b9050919050565b7f45524332303a206275726e2066726f6d20746865207a65726f2061646472657360008201527f7300000000000000000000000000000000000000000000000000000000000000602082015250565b6000615b1b60218361422d565b9150615b2682615abf565b604082019050919050565b60006020820190508181036000830152615b4a81615b0e565b9050919050565b7f45524332303a206275726e20616d6f756e7420657863656564732062616c616e60008201527f6365000000000000000000000000000000000000000000000000000000000000602082015250565b6000615bad60228361422d565b9150615bb882615b51565b604082019050919050565b60006020820190508181036000830152615bdc81615ba0565b9050919050565b615bec816144b7565b8114615bf757600080fd5b50565b600081519050615c0981615be3565b92915050565b600060208284031215615c2557615c24614075565b5b6000615c3384828501615bfa565b91505092915050565b7f45524332303a206d696e7420746f20746865207a65726f206164647265737300600082015250565b6000615c72601f8361422d565b9150615c7d82615c3c565b602082019050919050565b60006020820190508181036000830152615ca181615c65565b9050919050565b7f696e76616c696420746f6b656e00000000000000000000000000000000000000600082015250565b6000615cde600d8361422d565b9150615ce982615ca8565b602082019050919050565b60006020820190508181036000830152615d0d81615cd1565b9050919050565b6000606082019050615d296000830186614340565b615d366020830185614340565b615d4360408301846141cf565b949350505050565b7f6d696e74206661696c65642c20636865636b206d696e7453747265616c20667560008201527f6e6374696f6e0000000000000000000000000000000000000000000000000000602082015250565b6000615da760268361422d565b9150615db282615d4b565b604082019050919050565b60006020820190508181036000830152615dd681615d9a565b9050919050565b600081905092915050565b7f416363657373436f6e74726f6c3a206163636f756e7420000000000000000000600082015250565b6000615e1e601783615ddd565b9150615e2982615de8565b601782019050919050565b6000615e3f82614222565b615e498185615ddd565b9350615e5981856020860161423e565b80840191505092915050565b7f206973206d697373696e6720726f6c6520000000000000000000000000000000600082015250565b6000615e9b601183615ddd565b9150615ea682615e65565b601182019050919050565b6000615ebc82615e11565b9150615ec88285615e34565b9150615ed382615e8e565b9150615edf8284615e34565b91508190509392505050565b6000615ef6826141c5565b915060008203615f0957615f086149c3565b5b600182039050919050565b7f537472696e67733a20686578206c656e67746820696e73756666696369656e74600082015250565b6000615f4a60208361422d565b9150615f5582615f14565b602082019050919050565b60006020820190508181036000830152615f7981615f3d565b905091905056fea2646970667358221220df7297a6a65b8587742c9e280a0ec0912eaa409cbd6de4106cbbb229a2db320f64736f6c63430008120033",
  "linkReferences": {},
  "deployedLinkReferences": {}
}