{
  "_format": "hh-sol-artifact-1",
  "contractName": "Streal",
  "sourceName": "contracts/streal2.sol",
  "abi": [
    {
      "inputs": [],
      "stateMutability": "nonpayable",
      "type": "constructor"
    },
    {
      "anonymous": false,
      "inputs": [
        {
          "indexed": true,
          "internalType": "address",
          "name": "owner",
          "type": "address"
        },
        {
          "indexed": true,
          "internalType": "address",
          "name": "spender",
          "type": "address"
        },
        {
          "indexed": false,
          "internalType": "uint256",
          "name": "value",
          "type": "uint256"
        }
      ],
      "name": "Approval",
      "type": "event"
    },
    {
      "anonymous": false,
      "inputs": [
        {
          "indexed": true,
          "internalType": "address",
          "name": "previousOwner",
          "type": "address"
        },
        {
          "indexed": true,
          "internalType": "address",
          "name": "newOwner",
          "type": "address"
        }
      ],
      "name": "OwnershipTransferred",
      "type": "event"
    },
    {
      "anonymous": false,
      "inputs": [
        {
          "indexed": false,
          "internalType": "uint256",
          "name": "id",
          "type": "uint256"
        }
      ],
      "name": "Snapshot",
      "type": "event"
    },
    {
      "anonymous": false,
      "inputs": [
        {
          "indexed": true,
          "internalType": "address",
          "name": "from",
          "type": "address"
        },
        {
          "indexed": true,
          "internalType": "address",
          "name": "to",
          "type": "address"
        },
        {
          "indexed": false,
          "internalType": "uint256",
          "name": "value",
          "type": "uint256"
        }
      ],
      "name": "Transfer",
      "type": "event"
    },
    {
      "anonymous": false,
      "inputs": [
        {
          "indexed": true,
          "internalType": "address",
          "name": "user",
          "type": "address"
        },
        {
          "indexed": false,
          "internalType": "uint256",
          "name": "amount",
          "type": "uint256"
        }
      ],
      "name": "airdropped",
      "type": "event"
    },
    {
      "anonymous": false,
      "inputs": [
        {
          "indexed": true,
          "internalType": "address",
          "name": "user",
          "type": "address"
        },
        {
          "indexed": true,
          "internalType": "address",
          "name": "token",
          "type": "address"
        },
        {
          "indexed": false,
          "internalType": "uint256",
          "name": "amount",
          "type": "uint256"
        }
      ],
      "name": "collateralDeposited",
      "type": "event"
    },
    {
      "anonymous": false,
      "inputs": [
        {
          "indexed": true,
          "internalType": "address",
          "name": "recipients",
          "type": "address"
        }
      ],
      "name": "mintRewards",
      "type": "event"
    },
    {
      "anonymous": false,
      "inputs": [
        {
          "indexed": true,
          "internalType": "address",
          "name": "user",
          "type": "address"
        },
        {
          "indexed": false,
          "internalType": "uint256",
          "name": "amount",
          "type": "uint256"
        }
      ],
      "name": "redeemedCollateral",
      "type": "event"
    },
    {
      "anonymous": false,
      "inputs": [
        {
          "indexed": true,
          "internalType": "address",
          "name": "user",
          "type": "address"
        },
        {
          "indexed": false,
          "internalType": "uint256",
          "name": "amount",
          "type": "uint256"
        }
      ],
      "name": "strealDeposited",
      "type": "event"
    },
    {
      "anonymous": false,
      "inputs": [
        {
          "indexed": true,
          "internalType": "address",
          "name": "user",
          "type": "address"
        }
      ],
      "name": "voted",
      "type": "event"
    },
    {
      "anonymous": false,
      "inputs": [
        {
          "indexed": true,
          "internalType": "address",
          "name": "user",
          "type": "address"
        },
        {
          "indexed": false,
          "internalType": "uint256",
          "name": "amount",
          "type": "uint256"
        }
      ],
      "name": "withdrawal",
      "type": "event"
    },
    {
      "inputs": [
        {
          "internalType": "address",
          "name": "",
          "type": "address"
        },
        {
          "internalType": "address",
          "name": "",
          "type": "address"
        }
      ],
      "name": "_collateralDeposited",
      "outputs": [
        {
          "internalType": "uint256",
          "name": "",
          "type": "uint256"
        }
      ],
      "stateMutability": "view",
      "type": "function"
    },
    {
      "inputs": [
        {
          "internalType": "uint256",
          "name": "",
          "type": "uint256"
        }
      ],
      "name": "_collateralTokens",
      "outputs": [
        {
          "internalType": "address",
          "name": "",
          "type": "address"
        }
      ],
      "stateMutability": "view",
      "type": "function"
    },
    {
      "inputs": [
        {
          "internalType": "address",
          "name": "user",
          "type": "address"
        }
      ],
      "name": "_getAccountInfo",
      "outputs": [
        {
          "internalType": "uint256",
          "name": "totalStrealMinted",
          "type": "uint256"
        },
        {
          "internalType": "uint256",
          "name": "collateralValueInUsd",
          "type": "uint256"
        }
      ],
      "stateMutability": "view",
      "type": "function"
    },
    {
      "inputs": [
        {
          "internalType": "address[]",
          "name": "recipients",
          "type": "address[]"
        },
        {
          "internalType": "uint256[]",
          "name": "values",
          "type": "uint256[]"
        }
      ],
      "name": "airdrop",
      "outputs": [
        {
          "internalType": "bool",
          "name": "success",
          "type": "bool"
        }
      ],
      "stateMutability": "nonpayable",
      "type": "function"
    },
    {
      "inputs": [],
      "name": "airdropLockTime",
      "outputs": [
        {
          "internalType": "uint256",
          "name": "",
          "type": "uint256"
        }
      ],
      "stateMutability": "view",
      "type": "function"
    },
    {
      "inputs": [],
      "name": "airdropLockTimeSet",
      "outputs": [
        {
          "internalType": "uint256",
          "name": "",
          "type": "uint256"
        }
      ],
      "stateMutability": "view",
      "type": "function"
    },
    {
      "inputs": [
        {
          "internalType": "address",
          "name": "",
          "type": "address"
        }
      ],
      "name": "airdropTimes",
      "outputs": [
        {
          "internalType": "uint256",
          "name": "",
          "type": "uint256"
        }
      ],
      "stateMutability": "view",
      "type": "function"
    },
    {
      "inputs": [
        {
          "internalType": "address",
          "name": "",
          "type": "address"
        }
      ],
      "name": "airdroppedAddress",
      "outputs": [
        {
          "internalType": "bool",
          "name": "",
          "type": "bool"
        }
      ],
      "stateMutability": "view",
      "type": "function"
    },
    {
      "inputs": [
        {
          "internalType": "uint256",
          "name": "",
          "type": "uint256"
        }
      ],
      "name": "airdroppedAddresses",
      "outputs": [
        {
          "internalType": "address",
          "name": "",
          "type": "address"
        }
      ],
      "stateMutability": "view",
      "type": "function"
    },
    {
      "inputs": [],
      "name": "airdrops",
      "outputs": [
        {
          "internalType": "uint256",
          "name": "",
          "type": "uint256"
        }
      ],
      "stateMutability": "view",
      "type": "function"
    },
    {
      "inputs": [
        {
          "internalType": "address",
          "name": "owner",
          "type": "address"
        },
        {
          "internalType": "address",
          "name": "spender",
          "type": "address"
        }
      ],
      "name": "allowance",
      "outputs": [
        {
          "internalType": "uint256",
          "name": "",
          "type": "uint256"
        }
      ],
      "stateMutability": "view",
      "type": "function"
    },
    {
      "inputs": [
        {
          "internalType": "address",
          "name": "spender",
          "type": "address"
        },
        {
          "internalType": "uint256",
          "name": "amount",
          "type": "uint256"
        }
      ],
      "name": "approve",
      "outputs": [
        {
          "internalType": "bool",
          "name": "",
          "type": "bool"
        }
      ],
      "stateMutability": "nonpayable",
      "type": "function"
    },
    {
      "inputs": [],
      "name": "balance",
      "outputs": [
        {
          "internalType": "uint256[]",
          "name": "",
          "type": "uint256[]"
        }
      ],
      "stateMutability": "view",
      "type": "function"
    },
    {
      "inputs": [
        {
          "internalType": "address",
          "name": "account",
          "type": "address"
        }
      ],
      "name": "balanceOf",
      "outputs": [
        {
          "internalType": "uint256",
          "name": "",
          "type": "uint256"
        }
      ],
      "stateMutability": "view",
      "type": "function"
    },
    {
      "inputs": [
        {
          "internalType": "address",
          "name": "account",
          "type": "address"
        },
        {
          "internalType": "uint256",
          "name": "snapshotId",
          "type": "uint256"
        }
      ],
      "name": "balanceOfAt",
      "outputs": [
        {
          "internalType": "uint256",
          "name": "",
          "type": "uint256"
        }
      ],
      "stateMutability": "view",
      "type": "function"
    },
    {
      "inputs": [
        {
          "internalType": "uint256",
          "name": "_amount",
          "type": "uint256"
        }
      ],
      "name": "burn",
      "outputs": [],
      "stateMutability": "nonpayable",
      "type": "function"
    },
    {
      "inputs": [
        {
          "internalType": "uint256",
          "name": "_amount",
          "type": "uint256"
        }
      ],
      "name": "burnForCommerce",
      "outputs": [],
      "stateMutability": "nonpayable",
      "type": "function"
    },
    {
      "inputs": [
        {
          "internalType": "address",
          "name": "account",
          "type": "address"
        },
        {
          "internalType": "uint256",
          "name": "amount",
          "type": "uint256"
        }
      ],
      "name": "burnFrom",
      "outputs": [],
      "stateMutability": "nonpayable",
      "type": "function"
    },
    {
      "inputs": [
        {
          "internalType": "address",
          "name": "tokenCollateralAddress",
          "type": "address"
        },
        {
          "internalType": "uint256",
          "name": "amountCollateral",
          "type": "uint256"
        }
      ],
      "name": "calculateEquivalentAmountToMint",
      "outputs": [
        {
          "internalType": "uint256",
          "name": "",
          "type": "uint256"
        }
      ],
      "stateMutability": "view",
      "type": "function"
    },
    {
      "inputs": [],
      "name": "decimals",
      "outputs": [
        {
          "internalType": "uint8",
          "name": "",
          "type": "uint8"
        }
      ],
      "stateMutability": "view",
      "type": "function"
    },
    {
      "inputs": [
        {
          "internalType": "address",
          "name": "spender",
          "type": "address"
        },
        {
          "internalType": "uint256",
          "name": "subtractedValue",
          "type": "uint256"
        }
      ],
      "name": "decreaseAllowance",
      "outputs": [
        {
          "internalType": "bool",
          "name": "",
          "type": "bool"
        }
      ],
      "stateMutability": "nonpayable",
      "type": "function"
    },
    {
      "inputs": [
        {
          "internalType": "address",
          "name": "user",
          "type": "address"
        },
        {
          "internalType": "address",
          "name": "tokenCollateralAddress",
          "type": "address"
        },
        {
          "internalType": "uint256",
          "name": "_amount",
          "type": "uint256"
        }
      ],
      "name": "depositCollateral",
      "outputs": [
        {
          "internalType": "uint256",
          "name": "payment",
          "type": "uint256"
        }
      ],
      "stateMutability": "nonpayable",
      "type": "function"
    },
    {
      "inputs": [
        {
          "internalType": "address",
          "name": "tokenCollateralAddress",
          "type": "address"
        },
        {
          "internalType": "uint256",
          "name": "amountCollateral",
          "type": "uint256"
        }
      ],
      "name": "depositCollateralAndMintStreal",
      "outputs": [],
      "stateMutability": "nonpayable",
      "type": "function"
    },
    {
      "inputs": [],
      "name": "depositLocktime",
      "outputs": [
        {
          "internalType": "uint256",
          "name": "",
          "type": "uint256"
        }
      ],
      "stateMutability": "view",
      "type": "function"
    },
    {
      "inputs": [
        {
          "internalType": "uint256",
          "name": "amountStreal",
          "type": "uint256"
        },
        {
          "internalType": "address",
          "name": "tokenCollateralAddress",
          "type": "address"
        }
      ],
      "name": "depositStrealAndGetToken",
      "outputs": [],
      "stateMutability": "nonpayable",
      "type": "function"
    },
    {
      "inputs": [
        {
          "internalType": "address",
          "name": "user",
          "type": "address"
        }
      ],
      "name": "getAccountCollateralValueInUsd",
      "outputs": [
        {
          "internalType": "uint256",
          "name": "totalCollateralValueInUsd",
          "type": "uint256"
        }
      ],
      "stateMutability": "view",
      "type": "function"
    },
    {
      "inputs": [
        {
          "internalType": "address",
          "name": "tokenAddress",
          "type": "address"
        }
      ],
      "name": "getDecimals",
      "outputs": [
        {
          "internalType": "uint8",
          "name": "",
          "type": "uint8"
        }
      ],
      "stateMutability": "view",
      "type": "function"
    },
    {
      "inputs": [
        {
          "internalType": "address",
          "name": "token",
          "type": "address"
        },
        {
          "internalType": "uint256",
          "name": "amount",
          "type": "uint256"
        }
      ],
      "name": "getUsdValue",
      "outputs": [
        {
          "internalType": "uint256",
          "name": "",
          "type": "uint256"
        }
      ],
      "stateMutability": "view",
      "type": "function"
    },
    {
      "inputs": [
        {
          "internalType": "address",
          "name": "user",
          "type": "address"
        }
      ],
      "name": "getUserStartTime",
      "outputs": [
        {
          "internalType": "uint256",
          "name": "",
          "type": "uint256"
        }
      ],
      "stateMutability": "view",
      "type": "function"
    },
    {
      "inputs": [
        {
          "internalType": "address",
          "name": "",
          "type": "address"
        }
      ],
      "name": "hasVoted",
      "outputs": [
        {
          "internalType": "address",
          "name": "",
          "type": "address"
        }
      ],
      "stateMutability": "view",
      "type": "function"
    },
    {
      "inputs": [],
      "name": "i_vault",
      "outputs": [
        {
          "internalType": "contract Vault",
          "name": "",
          "type": "address"
        }
      ],
      "stateMutability": "view",
      "type": "function"
    },
    {
      "inputs": [
        {
          "internalType": "address",
          "name": "spender",
          "type": "address"
        },
        {
          "internalType": "uint256",
          "name": "addedValue",
          "type": "uint256"
        }
      ],
      "name": "increaseAllowance",
      "outputs": [
        {
          "internalType": "bool",
          "name": "",
          "type": "bool"
        }
      ],
      "stateMutability": "nonpayable",
      "type": "function"
    },
    {
      "inputs": [
        {
          "internalType": "address",
          "name": "_to",
          "type": "address"
        },
        {
          "internalType": "uint256",
          "name": "amount",
          "type": "uint256"
        }
      ],
      "name": "mintForCommerce",
      "outputs": [
        {
          "internalType": "bool",
          "name": "",
          "type": "bool"
        }
      ],
      "stateMutability": "nonpayable",
      "type": "function"
    },
    {
      "inputs": [
        {
          "internalType": "address[]",
          "name": "recipients",
          "type": "address[]"
        },
        {
          "internalType": "uint256[]",
          "name": "amounts",
          "type": "uint256[]"
        }
      ],
      "name": "mintReward",
      "outputs": [
        {
          "internalType": "bool",
          "name": "",
          "type": "bool"
        }
      ],
      "stateMutability": "nonpayable",
      "type": "function"
    },
    {
      "inputs": [
        {
          "internalType": "address",
          "name": "",
          "type": "address"
        }
      ],
      "name": "mintedStreal",
      "outputs": [
        {
          "internalType": "uint256",
          "name": "",
          "type": "uint256"
        }
      ],
      "stateMutability": "view",
      "type": "function"
    },
    {
      "inputs": [],
      "name": "name",
      "outputs": [
        {
          "internalType": "string",
          "name": "",
          "type": "string"
        }
      ],
      "stateMutability": "view",
      "type": "function"
    },
    {
      "inputs": [],
      "name": "owner",
      "outputs": [
        {
          "internalType": "address",
          "name": "",
          "type": "address"
        }
      ],
      "stateMutability": "view",
      "type": "function"
    },
    {
      "inputs": [
        {
          "internalType": "address",
          "name": "",
          "type": "address"
        }
      ],
      "name": "priceFeed",
      "outputs": [
        {
          "internalType": "address",
          "name": "",
          "type": "address"
        }
      ],
      "stateMutability": "view",
      "type": "function"
    },
    {
      "inputs": [
        {
          "internalType": "uint256",
          "name": "",
          "type": "uint256"
        }
      ],
      "name": "priceFeedAddress",
      "outputs": [
        {
          "internalType": "address",
          "name": "",
          "type": "address"
        }
      ],
      "stateMutability": "view",
      "type": "function"
    },
    {
      "inputs": [
        {
          "internalType": "address",
          "name": "tokenCollateralAddress",
          "type": "address"
        },
        {
          "internalType": "uint256",
          "name": "amountCollateral",
          "type": "uint256"
        }
      ],
      "name": "redeemCollateralForStreal",
      "outputs": [],
      "stateMutability": "nonpayable",
      "type": "function"
    },
    {
      "inputs": [],
      "name": "renounceOwnership",
      "outputs": [],
      "stateMutability": "nonpayable",
      "type": "function"
    },
    {
      "inputs": [
        {
          "internalType": "uint256",
          "name": "_airdropLockTime",
          "type": "uint256"
        },
        {
          "internalType": "uint256",
          "name": "_depositLocktime",
          "type": "uint256"
        }
      ],
      "name": "setAirdropLockTime",
      "outputs": [],
      "stateMutability": "nonpayable",
      "type": "function"
    },
    {
      "inputs": [
        {
          "internalType": "address",
          "name": "_contractAddress",
          "type": "address"
        }
      ],
      "name": "setContractAddress",
      "outputs": [],
      "stateMutability": "nonpayable",
      "type": "function"
    },
    {
      "inputs": [
        {
          "internalType": "uint256",
          "name": "_value",
          "type": "uint256"
        }
      ],
      "name": "setStrealValue",
      "outputs": [],
      "stateMutability": "nonpayable",
      "type": "function"
    },
    {
      "inputs": [],
      "name": "snapshot",
      "outputs": [],
      "stateMutability": "nonpayable",
      "type": "function"
    },
    {
      "inputs": [
        {
          "internalType": "uint256",
          "name": "",
          "type": "uint256"
        }
      ],
      "name": "supportedTokens",
      "outputs": [
        {
          "internalType": "address",
          "name": "",
          "type": "address"
        }
      ],
      "stateMutability": "view",
      "type": "function"
    },
    {
      "inputs": [],
      "name": "symbol",
      "outputs": [
        {
          "internalType": "string",
          "name": "",
          "type": "string"
        }
      ],
      "stateMutability": "view",
      "type": "function"
    },
    {
      "inputs": [],
      "name": "totalSupply",
      "outputs": [
        {
          "internalType": "uint256",
          "name": "",
          "type": "uint256"
        }
      ],
      "stateMutability": "view",
      "type": "function"
    },
    {
      "inputs": [
        {
          "internalType": "uint256",
          "name": "snapshotId",
          "type": "uint256"
        }
      ],
      "name": "totalSupplyAt",
      "outputs": [
        {
          "internalType": "uint256",
          "name": "",
          "type": "uint256"
        }
      ],
      "stateMutability": "view",
      "type": "function"
    },
    {
      "inputs": [
        {
          "internalType": "address",
          "name": "to",
          "type": "address"
        },
        {
          "internalType": "uint256",
          "name": "amount",
          "type": "uint256"
        }
      ],
      "name": "transfer",
      "outputs": [
        {
          "internalType": "bool",
          "name": "",
          "type": "bool"
        }
      ],
      "stateMutability": "nonpayable",
      "type": "function"
    },
    {
      "inputs": [
        {
          "internalType": "address",
          "name": "from",
          "type": "address"
        },
        {
          "internalType": "address",
          "name": "to",
          "type": "address"
        },
        {
          "internalType": "uint256",
          "name": "amount",
          "type": "uint256"
        }
      ],
      "name": "transferFrom",
      "outputs": [
        {
          "internalType": "bool",
          "name": "",
          "type": "bool"
        }
      ],
      "stateMutability": "nonpayable",
      "type": "function"
    },
    {
      "inputs": [
        {
          "internalType": "address",
          "name": "newOwner",
          "type": "address"
        }
      ],
      "name": "transferOwnership",
      "outputs": [],
      "stateMutability": "nonpayable",
      "type": "function"
    },
    {
      "inputs": [
        {
          "internalType": "address",
          "name": "candidate",
          "type": "address"
        },
        {
          "internalType": "uint256",
          "name": "_amount",
          "type": "uint256"
        }
      ],
      "name": "vote",
      "outputs": [
        {
          "internalType": "bool",
          "name": "success",
          "type": "bool"
        }
      ],
      "stateMutability": "nonpayable",
      "type": "function"
    },
    {
      "inputs": [
        {
          "internalType": "address",
          "name": "",
          "type": "address"
        }
      ],
      "name": "votes",
      "outputs": [
        {
          "internalType": "uint256",
          "name": "",
          "type": "uint256"
        }
      ],
      "stateMutability": "view",
      "type": "function"
    },
    {
      "inputs": [],
      "name": "withdraw",
      "outputs": [],
      "stateMutability": "nonpayable",
      "type": "function"
    }
  ],
  "bytecode": "0x60806040526a52b7d2dcc80cd2e40000006010556aa56fa5b99019a5c8000000601155604051806040016040528073285b84acb1b237ce2d3a3bb6bf4997c0db63bd7173ffffffffffffffffffffffffffffffffffffffff1673ffffffffffffffffffffffffffffffffffffffff16815260200173b5e45bc8e119fb3ab8cfbc4f182cc0150de58c7573ffffffffffffffffffffffffffffffffffffffff1673ffffffffffffffffffffffffffffffffffffffff168152506015906002620000c992919062000ac7565b50348015620000d757600080fd5b506040518060400160405280600681526020017f53747265616c00000000000000000000000000000000000000000000000000008152506040518060400160405280600381526020017f5354520000000000000000000000000000000000000000000000000000000000815250816003908162000155919062000e7e565b50806004908162000167919062000e7e565b5050506200018a6200017e6200058860201b60201c565b6200059060201b60201c565b6001600a81905550604051806060016040528073acde43b9e5f72a4f554d4346e69e8e7ac8f352f073ffffffffffffffffffffffffffffffffffffffff1673ffffffffffffffffffffffffffffffffffffffff16815260200173e9dce89b076ba6107bb64ef30678efec1193923473ffffffffffffffffffffffffffffffffffffffff1673ffffffffffffffffffffffffffffffffffffffff16815260200173f14f9596430931e177469715c591513308244e8f73ffffffffffffffffffffffffffffffffffffffff1673ffffffffffffffffffffffffffffffffffffffff16815250600d9060036200027f92919062000b56565b5060405180606001604052807392c09849638959196e976289418e5973cc96d64573ffffffffffffffffffffffffffffffffffffffff1673ffffffffffffffffffffffffffffffffffffffff16815260200173572ddec9087154dc5dfbb1546bb62713147e0ab073ffffffffffffffffffffffffffffffffffffffff1673ffffffffffffffffffffffffffffffffffffffff168152602001730fcaa9c899ec5a91ebc3d5dd869de833b06fb04673ffffffffffffffffffffffffffffffffffffffff1673ffffffffffffffffffffffffffffffffffffffff16815250600e9060036200036d92919062000b56565b50600e80549050600d80549050146200038557600080fd5b60005b600d805490508110156200055057600e8181548110620003ad57620003ac62000f65565b5b9060005260206000200160009054906101000a900473ffffffffffffffffffffffffffffffffffffffff1660196000600d8481548110620003f357620003f262000f65565b5b9060005260206000200160009054906101000a900473ffffffffffffffffffffffffffffffffffffffff1673ffffffffffffffffffffffffffffffffffffffff1673ffffffffffffffffffffffffffffffffffffffff16815260200190815260200160002060006101000a81548173ffffffffffffffffffffffffffffffffffffffff021916908373ffffffffffffffffffffffffffffffffffffffff160217905550600b600d8281548110620004af57620004ae62000f65565b5b9060005260206000200160009054906101000a900473ffffffffffffffffffffffffffffffffffffffff169080600181540180825580915050600190039060005260206000200160009091909190916101000a81548173ffffffffffffffffffffffffffffffffffffffff021916908373ffffffffffffffffffffffffffffffffffffffff1602179055508080620005479062000fc3565b91505062000388565b5062000565336011546200065660201b60201c565b601054601160008282546200057b919062001010565b9250508190555062001137565b600033905090565b6000600960009054906101000a900473ffffffffffffffffffffffffffffffffffffffff16905081600960006101000a81548173ffffffffffffffffffffffffffffffffffffffff021916908373ffffffffffffffffffffffffffffffffffffffff1602179055508173ffffffffffffffffffffffffffffffffffffffff168173ffffffffffffffffffffffffffffffffffffffff167f8be0079c531659141344cd1fd0a4f28419497f9722a3daafe3b4186f6b6457e060405160405180910390a35050565b600073ffffffffffffffffffffffffffffffffffffffff168273ffffffffffffffffffffffffffffffffffffffff1603620006c8576040517f08c379a0000000000000000000000000000000000000000000000000000000008152600401620006bf90620010ac565b60405180910390fd5b620006dc60008383620007c360201b60201c565b8060026000828254620006f09190620010ce565b92505081905550806000808473ffffffffffffffffffffffffffffffffffffffff1673ffffffffffffffffffffffffffffffffffffffff168152602001908152602001600020600082825401925050819055508173ffffffffffffffffffffffffffffffffffffffff16600073ffffffffffffffffffffffffffffffffffffffff167fddf252ad1be2c89b69c2b068fc378daa952ba7f163c4a11628f55a4df523b3ef83604051620007a391906200111a565b60405180910390a3620007bf60008383620007e060201b60201c565b5050565b620007db838383620007e560201b62002e021760201c565b505050565b505050565b620007fd838383620008de60201b62002eba1760201c565b600073ffffffffffffffffffffffffffffffffffffffff168373ffffffffffffffffffffffffffffffffffffffff160362000859576200084382620008e360201b60201c565b620008536200094660201b60201c565b620008d9565b600073ffffffffffffffffffffffffffffffffffffffff168273ffffffffffffffffffffffffffffffffffffffff1603620008b5576200089f83620008e360201b60201c565b620008af6200094660201b60201c565b620008d8565b620008c683620008e360201b60201c565b620008d782620008e360201b60201c565b5b5b505050565b505050565b62000943600560008373ffffffffffffffffffffffffffffffffffffffff1673ffffffffffffffffffffffffffffffffffffffff16815260200190815260200160002062000937836200096a60201b60201c565b620009b260201b60201c565b50565b6200096860066200095c62000a3e60201b60201c565b620009b260201b60201c565b565b60008060008373ffffffffffffffffffffffffffffffffffffffff1673ffffffffffffffffffffffffffffffffffffffff168152602001908152602001600020549050919050565b6000620009c462000a4860201b60201c565b905080620009db8460000162000a6660201b60201c565b101562000a395782600001819080600181540180825580915050600190039060005260206000200160009091909190915055826001018290806001815401808255809150506001900390600052602060002001600090919091909150555b505050565b6000600254905090565b600062000a61600862000ab960201b62002ebf1760201c565b905090565b60008082805490500362000a7e576000905062000ab4565b816001838054905062000a92919062001010565b8154811062000aa65762000aa562000f65565b5b906000526020600020015490505b919050565b600081600001549050919050565b82805482825590600052602060002090810192821562000b43579160200282015b8281111562000b425782518260006101000a81548173ffffffffffffffffffffffffffffffffffffffff021916908373ffffffffffffffffffffffffffffffffffffffff1602179055509160200191906001019062000ae8565b5b50905062000b52919062000be5565b5090565b82805482825590600052602060002090810192821562000bd2579160200282015b8281111562000bd15782518260006101000a81548173ffffffffffffffffffffffffffffffffffffffff021916908373ffffffffffffffffffffffffffffffffffffffff1602179055509160200191906001019062000b77565b5b50905062000be1919062000be5565b5090565b5b8082111562000c0057600081600090555060010162000be6565b5090565b600081519050919050565b7f4e487b7100000000000000000000000000000000000000000000000000000000600052604160045260246000fd5b7f4e487b7100000000000000000000000000000000000000000000000000000000600052602260045260246000fd5b6000600282049050600182168062000c8657607f821691505b60208210810362000c9c5762000c9b62000c3e565b5b50919050565b60008190508160005260206000209050919050565b60006020601f8301049050919050565b600082821b905092915050565b60006008830262000d067fffffffffffffffffffffffffffffffffffffffffffffffffffffffffffffffff8262000cc7565b62000d12868362000cc7565b95508019841693508086168417925050509392505050565b6000819050919050565b6000819050919050565b600062000d5f62000d5962000d538462000d2a565b62000d34565b62000d2a565b9050919050565b6000819050919050565b62000d7b8362000d3e565b62000d9362000d8a8262000d66565b84845462000cd4565b825550505050565b600090565b62000daa62000d9b565b62000db781848462000d70565b505050565b5b8181101562000ddf5762000dd360008262000da0565b60018101905062000dbd565b5050565b601f82111562000e2e5762000df88162000ca2565b62000e038462000cb7565b8101602085101562000e13578190505b62000e2b62000e228562000cb7565b83018262000dbc565b50505b505050565b600082821c905092915050565b600062000e536000198460080262000e33565b1980831691505092915050565b600062000e6e838362000e40565b9150826002028217905092915050565b62000e898262000c04565b67ffffffffffffffff81111562000ea55762000ea462000c0f565b5b62000eb1825462000c6d565b62000ebe82828562000de3565b600060209050601f83116001811462000ef6576000841562000ee1578287015190505b62000eed858262000e60565b86555062000f5d565b601f19841662000f068662000ca2565b60005b8281101562000f305784890151825560018201915060208501945060208101905062000f09565b8683101562000f50578489015162000f4c601f89168262000e40565b8355505b6001600288020188555050505b505050505050565b7f4e487b7100000000000000000000000000000000000000000000000000000000600052603260045260246000fd5b7f4e487b7100000000000000000000000000000000000000000000000000000000600052601160045260246000fd5b600062000fd08262000d2a565b91507fffffffffffffffffffffffffffffffffffffffffffffffffffffffffffffffff820362001005576200100462000f94565b5b600182019050919050565b60006200101d8262000d2a565b91506200102a8362000d2a565b925082820390508181111562001045576200104462000f94565b5b92915050565b600082825260208201905092915050565b7f45524332303a206d696e7420746f20746865207a65726f206164647265737300600082015250565b600062001094601f836200104b565b9150620010a1826200105c565b602082019050919050565b60006020820190508181036000830152620010c78162001085565b9050919050565b6000620010db8262000d2a565b9150620010e88362000d2a565b925082820190508082111562001103576200110262000f94565b5b92915050565b620011148162000d2a565b82525050565b600060208201905062001131600083018462001109565b92915050565b6153dc80620011476000396000f3fe608060405234801561001057600080fd5b506004361061035d5760003560e01c806379cc6790116101d3578063b69ef8a811610104578063d8bff5a5116100a2578063f2fde38b1161007c578063f2fde38b14610b2d578063f970c3b714610b49578063fd489a8e14610b79578063ff51359114610b955761035d565b8063d8bff5a514610a9d578063dd62ed3e14610acd578063e2f764a314610afd5761035d565b8063c660d112116100de578063c660d112146109f1578063cc20743d14610a21578063cf54aaa014610a51578063d88b2bee14610a815761035d565b8063b69ef8a814610973578063bf8daa9514610991578063c6255626146109c15761035d565b80639998dcbe11610171578063a59548341161014b578063a5954834146108d9578063a9059cbb14610909578063ae9fea2d14610939578063b15f0a0d146109575761035d565b80639998dcbe1461085d5780639f222fe01461088d578063a457c2d7146108a95761035d565b806393a23c8c116101ad57806393a23c8c146107d557806395d89b41146108055780639711715a14610823578063981b24d01461082d5761035d565b806379cc67901461077d5780638b94b84b146107995780638da5cb5b146107b75761035d565b806339509351116102ad57806358b35ce41161024b578063672434821161022557806367243482146106f757806370a0823114610727578063715018a61461075757806371f2ceee146107615761035d565b806358b35ce4146106675780635f66a768146106975780635f74bbde146106c75761035d565b806342966c681161028757806342966c68146105cf578063477bddaa146105eb5780634ee2cd7e14610607578063545af4fe146106375761035d565b806339509351146105795780633c44d740146105a95780633ccfd60b146105c55761035d565b80630c59ef341161031a5780631ff9b703116102f45780631ff9b703146104cb57806323b872dd146104fb5780632f61ebc81461052b578063313ce5671461055b5761035d565b80630c59ef341461044d57806318160ddd1461047d5780631fd48b9a1461049b5761035d565b8063037768c214610362578063056df4961461039357806306dfa992146103b157806306fdde03146103cf578063095ea7b3146103ed57806309eef43e1461041d575b600080fd5b61037c60048036038101906103779190613e2a565b610bb3565b60405161038a929190613e70565b60405180910390f35b61039b610c08565b6040516103a89190613ef8565b60405180910390f35b6103b9610c2e565b6040516103c69190613f13565b60405180910390f35b6103d7610c34565b6040516103e49190613fbe565b60405180910390f35b6104076004803603810190610402919061400c565b610cc6565b6040516104149190614067565b60405180910390f35b61043760048036038101906104329190613e2a565b610ce9565b6040516104449190614091565b60405180910390f35b61046760048036038101906104629190613e2a565b610d1c565b6040516104749190613f13565b60405180910390f35b610485610dc2565b6040516104929190613f13565b60405180910390f35b6104b560048036038101906104b09190613e2a565b610dcc565b6040516104c29190614091565b60405180910390f35b6104e560048036038101906104e09190613e2a565b610dff565b6040516104f29190613f13565b60405180910390f35b610515600480360381019061051091906140ac565b610e17565b6040516105229190614067565b60405180910390f35b610545600480360381019061054091906140ff565b610e46565b6040516105529190614091565b60405180910390f35b610563610e85565b6040516105709190614148565b60405180910390f35b610593600480360381019061058e919061400c565b610e8e565b6040516105a09190614067565b60405180910390f35b6105c360048036038101906105be91906140ff565b610ec5565b005b6105cd610f26565b005b6105e960048036038101906105e491906140ff565b6110ee565b005b61060560048036038101906106009190613e2a565b611122565b005b610621600480360381019061061c919061400c565b61116e565b60405161062e9190613f13565b60405180910390f35b610651600480360381019061064c9190613e2a565b6111de565b60405161065e9190613f13565b60405180910390f35b610681600480360381019061067c91906140ff565b6112e9565b60405161068e9190614091565b60405180910390f35b6106b160048036038101906106ac91906140ff565b611328565b6040516106be9190614091565b60405180910390f35b6106e160048036038101906106dc919061400c565b611367565b6040516106ee9190614067565b60405180910390f35b610711600480360381019061070c919061436e565b6115be565b60405161071e9190614067565b60405180910390f35b610741600480360381019061073c9190613e2a565b611938565b60405161074e9190613f13565b60405180910390f35b61075f611980565b005b61077b600480360381019061077691906140ff565b611994565b005b6107976004803603810190610792919061400c565b6119a6565b005b6107a16119c6565b6040516107ae9190613f13565b60405180910390f35b6107bf6119cc565b6040516107cc9190614091565b60405180910390f35b6107ef60048036038101906107ea9190613e2a565b6119f6565b6040516107fc9190613f13565b60405180910390f35b61080d611a0e565b60405161081a9190613fbe565b60405180910390f35b61082b611aa0565b005b610847600480360381019061084291906140ff565b611ab3565b6040516108549190613f13565b60405180910390f35b610877600480360381019061087291906143e6565b611ae4565b6040516108849190613f13565b60405180910390f35b6108a760048036038101906108a29190614426565b611b09565b005b6108c360048036038101906108be919061400c565b611ebc565b6040516108d09190614067565b60405180910390f35b6108f360048036038101906108ee919061400c565b611f33565b6040516109009190613f13565b60405180910390f35b610923600480360381019061091e919061400c565b611fb7565b6040516109309190614067565b60405180910390f35b610941611fda565b60405161094e9190613f13565b60405180910390f35b610971600480360381019061096c9190614466565b611fe0565b005b61097b612001565b6040516109889190614564565b60405180910390f35b6109ab60048036038101906109a6919061400c565b61215d565b6040516109b89190614067565b60405180910390f35b6109db60048036038101906109d691906140ff565b61220e565b6040516109e89190614091565b60405180910390f35b610a0b6004803603810190610a06919061400c565b61224d565b604051610a189190613f13565b60405180910390f35b610a3b6004803603810190610a369190613e2a565b612362565b604051610a489190614067565b60405180910390f35b610a6b6004803603810190610a669190613e2a565b612382565b604051610a789190614148565b60405180910390f35b610a9b6004803603810190610a96919061400c565b6123ff565b005b610ab76004803603810190610ab29190613e2a565b612882565b604051610ac49190613f13565b60405180910390f35b610ae76004803603810190610ae291906143e6565b61289a565b604051610af49190613f13565b60405180910390f35b610b176004803603810190610b12919061436e565b612921565b604051610b249190614067565b60405180910390f35b610b476004803603810190610b429190613e2a565b612a74565b005b610b636004803603810190610b5e91906140ac565b612af7565b604051610b709190613f13565b60405180910390f35b610b936004803603810190610b8e919061400c565b612dde565b005b610b9d612dfc565b604051610baa9190613f13565b60405180910390f35b600080601760008473ffffffffffffffffffffffffffffffffffffffff1673ffffffffffffffffffffffffffffffffffffffff168152602001908152602001600020549150610c01836111de565b9050915091565b601660009054906101000a900473ffffffffffffffffffffffffffffffffffffffff1681565b60135481565b606060038054610c43906145b5565b80601f0160208091040260200160405190810160405280929190818152602001828054610c6f906145b5565b8015610cbc5780601f10610c9157610100808354040283529160200191610cbc565b820191906000526020600020905b815481529060010190602001808311610c9f57829003601f168201915b5050505050905090565b600080610cd1612ecd565b9050610cde818585612ed5565b600191505092915050565b601b6020528060005260406000206000915054906101000a900473ffffffffffffffffffffffffffffffffffffffff1681565b6000601d60008373ffffffffffffffffffffffffffffffffffffffff1673ffffffffffffffffffffffffffffffffffffffff16815260200190815260200160002060009054906101000a900460ff1615610db757601c60008373ffffffffffffffffffffffffffffffffffffffff1673ffffffffffffffffffffffffffffffffffffffff168152602001908152602001600020549050610dbd565b60145490505b919050565b6000600254905090565b60196020528060005260406000206000915054906101000a900473ffffffffffffffffffffffffffffffffffffffff1681565b60176020528060005260406000206000915090505481565b600080610e22612ecd565b9050610e2f85828561309e565b610e3a85858561312a565b60019150509392505050565b600e8181548110610e5657600080fd5b906000526020600020016000915054906101000a900473ffffffffffffffffffffffffffffffffffffffff1681565b60006012905090565b600080610e99612ecd565b9050610eba818585610eab858961289a565b610eb59190614615565b612ed5565b600191505092915050565b610ecd6133a0565b8060008111610edb57600080fd5b610ee361341e565b6000610eee33611938565b905082811015610efd57600080fd5b610f19670de0b6b3a764000084610f149190614649565b61346d565b50610f22613481565b5050565b610f2e6133a0565b60005b600d805490508110156110eb576000600d8281548110610f5457610f5361468b565b5b9060005260206000200160009054906101000a900473ffffffffffffffffffffffffffffffffffffffff16905060008173ffffffffffffffffffffffffffffffffffffffff166370a08231306040518263ffffffff1660e01b8152600401610fbc9190614091565b602060405180830381865afa158015610fd9573d6000803e3d6000fd5b505050506040513d601f19601f82011682018060405250810190610ffd91906146cf565b90506000811115611088578173ffffffffffffffffffffffffffffffffffffffff1663a9059cbb33836040518363ffffffff1660e01b81526004016110439291906146fc565b6020604051808303816000875af1158015611062573d6000803e3d6000fd5b505050506040513d601f19601f820116820180604052508101906110869190614751565b505b3373ffffffffffffffffffffffffffffffffffffffff167f5a6b26bafd3957bf06ea3b4915f51221953ed272573c779820e6e39df3e646cf826040516110ce9190613f13565b60405180910390a2505080806110e39061477e565b915050610f31565b50565b60006110f933611938565b90506000821161110857600080fd5b8181101561111557600080fd5b61111e8261346d565b5050565b61112a6133a0565b80601660006101000a81548173ffffffffffffffffffffffffffffffffffffffff021916908373ffffffffffffffffffffffffffffffffffffffff16021790555050565b60008060006111bb84600560008873ffffffffffffffffffffffffffffffffffffffff1673ffffffffffffffffffffffffffffffffffffffff16815260200190815260200160002061348b565b91509150816111d2576111cd85611938565b6111d4565b805b9250505092915050565b600080600090505b600b805490508110156112e3576000600b82815481106112095761120861468b565b5b9060005260206000200160009054906101000a900473ffffffffffffffffffffffffffffffffffffffff1690506000601860008673ffffffffffffffffffffffffffffffffffffffff1673ffffffffffffffffffffffffffffffffffffffff16815260200190815260200160002060008373ffffffffffffffffffffffffffffffffffffffff1673ffffffffffffffffffffffffffffffffffffffff1681526020019081526020016000205490506112c1828261224d565b846112cc9190614615565b9350505080806112db9061477e565b9150506111e6565b50919050565b600f81815481106112f957600080fd5b906000526020600020016000915054906101000a900473ffffffffffffffffffffffffffffffffffffffff1681565b600b818154811061133857600080fd5b906000526020600020016000915054906101000a900473ffffffffffffffffffffffffffffffffffffffff1681565b60003373ffffffffffffffffffffffffffffffffffffffff168373ffffffffffffffffffffffffffffffffffffffff16036113a157600080fd5b8273ffffffffffffffffffffffffffffffffffffffff16601b60003373ffffffffffffffffffffffffffffffffffffffff1673ffffffffffffffffffffffffffffffffffffffff16815260200190815260200160002060009054906101000a900473ffffffffffffffffffffffffffffffffffffffff1673ffffffffffffffffffffffffffffffffffffffff160361143857600080fd5b8160016114459190614649565b601a60008573ffffffffffffffffffffffffffffffffffffffff1673ffffffffffffffffffffffffffffffffffffffff16815260200190815260200160002060008282546114939190614615565b9250508190555082601b60003373ffffffffffffffffffffffffffffffffffffffff1673ffffffffffffffffffffffffffffffffffffffff16815260200190815260200160002060006101000a81548173ffffffffffffffffffffffffffffffffffffffff021916908373ffffffffffffffffffffffffffffffffffffffff1602179055506115753360156001815481106115315761153061468b565b5b9060005260206000200160009054906101000a900473ffffffffffffffffffffffffffffffffffffffff16670de0b6b3a7640000856115709190614649565b61312a565b8273ffffffffffffffffffffffffffffffffffffffff167faec2ccae8681fd01ad220ecb7e9b5f7d485b1cc3cc01599acb1578016b30a6bd60405160405180910390a292915050565b60006115c86133a0565b6115d061341e565b81518351146115de57600080fd5b6000805b845181101561167957600073ffffffffffffffffffffffffffffffffffffffff168582815181106116165761161561468b565b5b602002602001015173ffffffffffffffffffffffffffffffffffffffff160361163e57600080fd5b8381815181106116515761165061468b565b5b6020026020010151826116649190614615565b915080806116719061477e565b9150506115e2565b5060105481111561168957600080fd5b60005b845181101561187e576116e68582815181106116ab576116aa61468b565b5b6020026020010151670de0b6b3a76400008684815181106116cf576116ce61468b565b5b60200260200101516116e19190614649565b611fb7565b50600f8582815181106116fc576116fb61468b565b5b60200260200101519080600181540180825580915050600190039060005260206000200160009091909190916101000a81548173ffffffffffffffffffffffffffffffffffffffff021916908373ffffffffffffffffffffffffffffffffffffffff1602179055506001601d600087848151811061177d5761177c61468b565b5b602002602001015173ffffffffffffffffffffffffffffffffffffffff1673ffffffffffffffffffffffffffffffffffffffff16815260200190815260200160002060006101000a81548160ff0219169083151502179055508481815181106117e9576117e861468b565b5b602002602001015173ffffffffffffffffffffffffffffffffffffffff167f3ea1f7fd2e5f2a54346a9c36803b810392514eea944090aa52756d8044b140ae670de0b6b3a76400008684815181106118445761184361468b565b5b60200260200101516118569190614649565b6040516118639190613f13565b60405180910390a280806118769061477e565b91505061168c565b5060005b84518110156118fc5742601c60008784815181106118a3576118a261468b565b5b602002602001015173ffffffffffffffffffffffffffffffffffffffff1673ffffffffffffffffffffffffffffffffffffffff1681526020019081526020016000208190555080806118f49061477e565b915050611882565b50670de0b6b3a7640000816119119190614649565b6010600082825461192291906147c6565b9250508190555050611932613481565b92915050565b60008060008373ffffffffffffffffffffffffffffffffffffffff1673ffffffffffffffffffffffffffffffffffffffff168152602001908152602001600020549050919050565b6119886133a0565b6119926000613580565b565b61199c6133a0565b80600c8190555050565b6119b8826119b2612ecd565b8361309e565b6119c28282613646565b5050565b60145481565b6000600960009054906101000a900473ffffffffffffffffffffffffffffffffffffffff16905090565b601c6020528060005260406000206000915090505481565b606060048054611a1d906145b5565b80601f0160208091040260200160405190810160405280929190818152602001828054611a49906145b5565b8015611a965780601f10611a6b57610100808354040283529160200191611a96565b820191906000526020600020905b815481529060010190602001808311611a7957829003601f168201915b5050505050905090565b611aa86133a0565b611ab0613813565b50565b6000806000611ac384600661348b565b9150915081611ad957611ad4610dc2565b611adb565b805b92505050919050565b6018602052816000526040600020602052806000526040600020600091509150505481565b601354611b1533610d1c565b611b1f9190614615565b421015611b2b57600080fd5b601d60003373ffffffffffffffffffffffffffffffffffffffff1673ffffffffffffffffffffffffffffffffffffffff16815260200190815260200160002060009054906101000a900460ff1615611bb8576040517f08c379a0000000000000000000000000000000000000000000000000000000008152600401611baf90614846565b60405180910390fd5b6000611bc382612382565b9050600081600a611bd49190614999565b600c5485611be29190614649565b611bec9190614649565b905060006064600383611bff9190614649565b611c099190614a13565b905060008183611c1991906147c6565b9050600084600a611c2a9190614999565b82611c359190614a13565b9050838673ffffffffffffffffffffffffffffffffffffffff166370a082316015600081548110611c6957611c6861468b565b5b9060005260206000200160009054906101000a900473ffffffffffffffffffffffffffffffffffffffff166040518263ffffffff1660e01b8152600401611cb09190614091565b602060405180830381865afa158015611ccd573d6000803e3d6000fd5b505050506040513d601f19601f82011682018060405250810190611cf191906146cf565b1015611cfc57600080fd5b611d18670de0b6b3a764000088611d139190614649565b613869565b611d3c611d236119cc565b670de0b6b3a764000089611d379190614649565b61389b565b601660009054906101000a900473ffffffffffffffffffffffffffffffffffffffff1673ffffffffffffffffffffffffffffffffffffffff1663f5537ede87611d836119cc565b866040518463ffffffff1660e01b8152600401611da293929190614a44565b600060405180830381600087803b158015611dbc57600080fd5b505af1158015611dd0573d6000803e3d6000fd5b50505050601660009054906101000a900473ffffffffffffffffffffffffffffffffffffffff1673ffffffffffffffffffffffffffffffffffffffff1663f5537ede8733856040518463ffffffff1660e01b8152600401611e3393929190614a44565b600060405180830381600087803b158015611e4d57600080fd5b505af1158015611e61573d6000803e3d6000fd5b505050503373ffffffffffffffffffffffffffffffffffffffff167f60d1fd7fd855dfe756b409098634ddac69f2cab9378c527ea6f5683bb8421b0382604051611eab9190613f13565b60405180910390a250505050505050565b600080611ec7612ecd565b90506000611ed5828661289a565b905083811015611f1a576040517f08c379a0000000000000000000000000000000000000000000000000000000008152600401611f1190614aed565b60405180910390fd5b611f278286868403612ed5565b60019250505092915050565b600080611f3f84612382565b9050600081600a611f509190614999565b84611f5b9190614649565b90506000670de0b6b3a7640000600c54611f759190614649565b9050600081846012611f879190614b0d565b600a611f939190614999565b84611f9e9190614649565b611fa89190614a13565b90508094505050505092915050565b600080611fc2612ecd565b9050611fcf81858561312a565b600191505092915050565b60125481565b611fe86133a0565b8160128190555080601381905550426014819055505050565b60606000600d8054905067ffffffffffffffff81111561202457612023614168565b5b6040519080825280602002602001820160405280156120525781602001602082028036833780820191505090505b50905060005b600d80549050811015612155576000600d828154811061207b5761207a61468b565b5b9060005260206000200160009054906101000a900473ffffffffffffffffffffffffffffffffffffffff1690508073ffffffffffffffffffffffffffffffffffffffff166370a08231306040518263ffffffff1660e01b81526004016120e19190614091565b602060405180830381865afa1580156120fe573d6000803e3d6000fd5b505050506040513d601f19601f8201168201806040525081019061212291906146cf565b8383815181106121355761213461468b565b5b60200260200101818152505050808061214d9061477e565b915050612058565b508091505090565b600061216761341e565b601560008154811061217c5761217b61468b565b5b9060005260206000200160009054906101000a900473ffffffffffffffffffffffffffffffffffffffff1673ffffffffffffffffffffffffffffffffffffffff163373ffffffffffffffffffffffffffffffffffffffff16146121de57600080fd5b600083905060008310156121f157600080fd5b6121fb818461389b565b6001915050612208613481565b92915050565b600d818154811061221e57600080fd5b906000526020600020016000915054906101000a900473ffffffffffffffffffffffffffffffffffffffff1681565b600080601960008573ffffffffffffffffffffffffffffffffffffffff1673ffffffffffffffffffffffffffffffffffffffff16815260200190815260200160002060009054906101000a900473ffffffffffffffffffffffffffffffffffffffff16905060008173ffffffffffffffffffffffffffffffffffffffff1663feaf968c6040518163ffffffff1660e01b815260040160a060405180830381865afa1580156122ff573d6000803e3d6000fd5b505050506040513d601f19601f820116820180604052508101906123239190614bba565b505050915050670de0b6b3a7640000846402540be400836123449190614649565b61234e9190614649565b6123589190614a13565b9250505092915050565b601d6020528060005260406000206000915054906101000a900460ff1681565b6000808290508073ffffffffffffffffffffffffffffffffffffffff1663313ce5676040518163ffffffff1660e01b8152600401602060405180830381865afa1580156123d3573d6000803e3d6000fd5b505050506040513d601f19601f820116820180604052508101906123f79190614c61565b915050919050565b60125461240b33610d1c565b6124159190614615565b42101561242157600080fd5b601d60003373ffffffffffffffffffffffffffffffffffffffff1673ffffffffffffffffffffffffffffffffffffffff16815260200190815260200160002060009054906101000a900460ff161561247857600080fd5b600061248383612382565b9050600081600a6124949190614999565b8361249f9190614649565b905060006124ad8585611f33565b90506000670de0b6b3a7640000826124c59190614649565b9050600060646005856124d89190614649565b6124e29190614a13565b905083601860003373ffffffffffffffffffffffffffffffffffffffff1673ffffffffffffffffffffffffffffffffffffffff16815260200190815260200160002060008973ffffffffffffffffffffffffffffffffffffffff1673ffffffffffffffffffffffffffffffffffffffff16815260200190815260200160002054101561256d57600080fd5b83601860003373ffffffffffffffffffffffffffffffffffffffff1673ffffffffffffffffffffffffffffffffffffffff16815260200190815260200160002060008973ffffffffffffffffffffffffffffffffffffffff1673ffffffffffffffffffffffffffffffffffffffff16815260200190815260200160002060008282546125f991906147c6565b925050819055506000818561260e91906147c6565b9050600086600a61261f9190614999565b8261262a9190614a13565b905060008973ffffffffffffffffffffffffffffffffffffffff166370a08231601560008154811061265f5761265e61468b565b5b9060005260206000200160009054906101000a900473ffffffffffffffffffffffffffffffffffffffff166040518263ffffffff1660e01b81526004016126a69190614091565b602060405180830381865afa1580156126c3573d6000803e3d6000fd5b505050506040513d601f19601f820116820180604052508101906126e791906146cf565b9050828110156126f657600080fd5b601660009054906101000a900473ffffffffffffffffffffffffffffffffffffffff1673ffffffffffffffffffffffffffffffffffffffff1663f5537ede8b61273d6119cc565b876040518463ffffffff1660e01b815260040161275c93929190614a44565b600060405180830381600087803b15801561277657600080fd5b505af115801561278a573d6000803e3d6000fd5b50505050601660009054906101000a900473ffffffffffffffffffffffffffffffffffffffff1673ffffffffffffffffffffffffffffffffffffffff1663f5537ede8b33866040518463ffffffff1660e01b81526004016127ed93929190614a44565b600060405180830381600087803b15801561280757600080fd5b505af115801561281b573d6000803e3d6000fd5b5050505061282885613869565b3373ffffffffffffffffffffffffffffffffffffffff167f920a3c8586f296bd0cf50659d78531871da77c0699c12e5fd7afd2fb95c592a08360405161286e9190613f13565b60405180910390a250505050505050505050565b601a6020528060005260406000206000915090505481565b6000600160008473ffffffffffffffffffffffffffffffffffffffff1673ffffffffffffffffffffffffffffffffffffffff16815260200190815260200160002060008373ffffffffffffffffffffffffffffffffffffffff1673ffffffffffffffffffffffffffffffffffffffff16815260200190815260200160002054905092915050565b600061292b6133a0565b61293361341e565b815183511461294157600080fd5b60005b8351811015612a615760008482815181106129625761296161468b565b5b6020026020010151905060008483815181106129815761298061468b565b5b60200260200101519050600073ffffffffffffffffffffffffffffffffffffffff168273ffffffffffffffffffffffffffffffffffffffff16036129c457600080fd5b60008110156129d257600080fd5b8583815181106129e5576129e461468b565b5b602002602001015173ffffffffffffffffffffffffffffffffffffffff167f896dadd6e1b6d419e549525c037d8d20b5a294b61dacda17b7de7632fbf8893360405160405180910390a2612a4c82670de0b6b3a764000083612a479190614649565b61389b565b50508080612a599061477e565b915050612944565b5060019050612a6e613481565b92915050565b612a7c6133a0565b600073ffffffffffffffffffffffffffffffffffffffff168173ffffffffffffffffffffffffffffffffffffffff1603612aeb576040517f08c379a0000000000000000000000000000000000000000000000000000000008152600401612ae290614d00565b60405180910390fd5b612af481613580565b50565b60008160008111612b0757600080fd5b612b0f61341e565b83600073ffffffffffffffffffffffffffffffffffffffff16601960008373ffffffffffffffffffffffffffffffffffffffff1673ffffffffffffffffffffffffffffffffffffffff16815260200190815260200160002060009054906101000a900473ffffffffffffffffffffffffffffffffffffffff1673ffffffffffffffffffffffffffffffffffffffff1603612ba857600080fd5b6000612bb386612382565b9050600081600a612bc49190614999565b86612bcf9190614649565b905080601860008a73ffffffffffffffffffffffffffffffffffffffff1673ffffffffffffffffffffffffffffffffffffffff16815260200190815260200160002060008973ffffffffffffffffffffffffffffffffffffffff1673ffffffffffffffffffffffffffffffffffffffff1681526020019081526020016000206000828254612c5d9190614615565b925050819055508673ffffffffffffffffffffffffffffffffffffffff168873ffffffffffffffffffffffffffffffffffffffff167fe4c032bd651f378a59936633a0f92b7497fd3577f65c95dc20a01acface334cc83604051612cc19190613f13565b60405180910390a38673ffffffffffffffffffffffffffffffffffffffff166323b872dd896015600081548110612cfb57612cfa61468b565b5b9060005260206000200160009054906101000a900473ffffffffffffffffffffffffffffffffffffffff16846040518463ffffffff1660e01b8152600401612d4593929190614a44565b6020604051808303816000875af1158015612d64573d6000803e3d6000fd5b505050506040513d601f19601f82011682018060405250810190612d889190614751565b50600082600a612d989190614999565b82612da39190614a13565b90506000612db18983611f33565b9050670de0b6b3a764000081612dc79190614649565b96505050505050612dd6613481565b509392505050565b6000612deb338484612af7565b9050612df733826139f1565b505050565b60105481565b612e0d838383612eba565b600073ffffffffffffffffffffffffffffffffffffffff168373ffffffffffffffffffffffffffffffffffffffff1603612e5757612e4a82613a73565b612e52613ac6565b612eb5565b600073ffffffffffffffffffffffffffffffffffffffff168273ffffffffffffffffffffffffffffffffffffffff1603612ea157612e9483613a73565b612e9c613ac6565b612eb4565b612eaa83613a73565b612eb382613a73565b5b5b505050565b505050565b600081600001549050919050565b600033905090565b600073ffffffffffffffffffffffffffffffffffffffff168373ffffffffffffffffffffffffffffffffffffffff1603612f44576040517f08c379a0000000000000000000000000000000000000000000000000000000008152600401612f3b90614d92565b60405180910390fd5b600073ffffffffffffffffffffffffffffffffffffffff168273ffffffffffffffffffffffffffffffffffffffff1603612fb3576040517f08c379a0000000000000000000000000000000000000000000000000000000008152600401612faa90614e24565b60405180910390fd5b80600160008573ffffffffffffffffffffffffffffffffffffffff1673ffffffffffffffffffffffffffffffffffffffff16815260200190815260200160002060008473ffffffffffffffffffffffffffffffffffffffff1673ffffffffffffffffffffffffffffffffffffffff168152602001908152602001600020819055508173ffffffffffffffffffffffffffffffffffffffff168373ffffffffffffffffffffffffffffffffffffffff167f8c5be1e5ebec7d5bd14f71427d1e84f3dd0314c0f7b2291e5b200ac8c7c3b925836040516130919190613f13565b60405180910390a3505050565b60006130aa848461289a565b90507fffffffffffffffffffffffffffffffffffffffffffffffffffffffffffffffff81146131245781811015613116576040517f08c379a000000000000000000000000000000000000000000000000000000000815260040161310d90614e90565b60405180910390fd5b6131238484848403612ed5565b5b50505050565b600073ffffffffffffffffffffffffffffffffffffffff168373ffffffffffffffffffffffffffffffffffffffff1603613199576040517f08c379a000000000000000000000000000000000000000000000000000000000815260040161319090614f22565b60405180910390fd5b600073ffffffffffffffffffffffffffffffffffffffff168273ffffffffffffffffffffffffffffffffffffffff1603613208576040517f08c379a00000000000000000000000000000000000000000000000000000000081526004016131ff90614fb4565b60405180910390fd5b613213838383613ada565b60008060008573ffffffffffffffffffffffffffffffffffffffff1673ffffffffffffffffffffffffffffffffffffffff16815260200190815260200160002054905081811015613299576040517f08c379a000000000000000000000000000000000000000000000000000000000815260040161329090615046565b60405180910390fd5b8181036000808673ffffffffffffffffffffffffffffffffffffffff1673ffffffffffffffffffffffffffffffffffffffff16815260200190815260200160002081905550816000808573ffffffffffffffffffffffffffffffffffffffff1673ffffffffffffffffffffffffffffffffffffffff168152602001908152602001600020600082825401925050819055508273ffffffffffffffffffffffffffffffffffffffff168473ffffffffffffffffffffffffffffffffffffffff167fddf252ad1be2c89b69c2b068fc378daa952ba7f163c4a11628f55a4df523b3ef846040516133879190613f13565b60405180910390a361339a848484613aea565b50505050565b6133a8612ecd565b73ffffffffffffffffffffffffffffffffffffffff166133c66119cc565b73ffffffffffffffffffffffffffffffffffffffff161461341c576040517f08c379a0000000000000000000000000000000000000000000000000000000008152600401613413906150b2565b60405180910390fd5b565b6002600a5403613463576040517f08c379a000000000000000000000000000000000000000000000000000000000815260040161345a9061511e565b60405180910390fd5b6002600a81905550565b61347e613478612ecd565b82613646565b50565b6001600a81905550565b600080600084116134d1576040517f08c379a00000000000000000000000000000000000000000000000000000000081526004016134c89061518a565b60405180910390fd5b6134d9613aef565b84111561351b576040517f08c379a0000000000000000000000000000000000000000000000000000000008152600401613512906151f6565b60405180910390fd5b60006135338585600001613b0090919063ffffffff16565b905083600001805490508103613550576000809250925050613579565b60018460010182815481106135685761356761468b565b5b906000526020600020015492509250505b9250929050565b6000600960009054906101000a900473ffffffffffffffffffffffffffffffffffffffff16905081600960006101000a81548173ffffffffffffffffffffffffffffffffffffffff021916908373ffffffffffffffffffffffffffffffffffffffff1602179055508173ffffffffffffffffffffffffffffffffffffffff168173ffffffffffffffffffffffffffffffffffffffff167f8be0079c531659141344cd1fd0a4f28419497f9722a3daafe3b4186f6b6457e060405160405180910390a35050565b600073ffffffffffffffffffffffffffffffffffffffff168273ffffffffffffffffffffffffffffffffffffffff16036136b5576040517f08c379a00000000000000000000000000000000000000000000000000000000081526004016136ac90615288565b60405180910390fd5b6136c182600083613ada565b60008060008473ffffffffffffffffffffffffffffffffffffffff1673ffffffffffffffffffffffffffffffffffffffff16815260200190815260200160002054905081811015613747576040517f08c379a000000000000000000000000000000000000000000000000000000000815260040161373e9061531a565b60405180910390fd5b8181036000808573ffffffffffffffffffffffffffffffffffffffff1673ffffffffffffffffffffffffffffffffffffffff1681526020019081526020016000208190555081600260008282540392505081905550600073ffffffffffffffffffffffffffffffffffffffff168373ffffffffffffffffffffffffffffffffffffffff167fddf252ad1be2c89b69c2b068fc378daa952ba7f163c4a11628f55a4df523b3ef846040516137fa9190613f13565b60405180910390a361380e83600084613aea565b505050565b600061381f6008613bb9565b6000613829613aef565b90507f8030e83b04d87bef53480e26263266d6ca66863aa8506aca6f2559d18aa1cb678160405161385a9190613f13565b60405180910390a18091505090565b806000811161387757600080fd5b61387f61341e565b600082905061388e8133613bcf565b50613897613481565b5050565b600073ffffffffffffffffffffffffffffffffffffffff168273ffffffffffffffffffffffffffffffffffffffff160361390a576040517f08c379a000000000000000000000000000000000000000000000000000000000815260040161390190615386565b60405180910390fd5b61391660008383613ada565b80600260008282546139289190614615565b92505081905550806000808473ffffffffffffffffffffffffffffffffffffffff1673ffffffffffffffffffffffffffffffffffffffff168152602001908152602001600020600082825401925050819055508173ffffffffffffffffffffffffffffffffffffffff16600073ffffffffffffffffffffffffffffffffffffffff167fddf252ad1be2c89b69c2b068fc378daa952ba7f163c4a11628f55a4df523b3ef836040516139d99190613f13565b60405180910390a36139ed60008383613aea565b5050565b80600081116139ff57600080fd5b81601760008573ffffffffffffffffffffffffffffffffffffffff1673ffffffffffffffffffffffffffffffffffffffff1681526020019081526020016000206000828254613a4e9190614615565b925050819055506000613a618484613c32565b905080613a6d57600080fd5b50505050565b613ac3600560008373ffffffffffffffffffffffffffffffffffffffff1673ffffffffffffffffffffffffffffffffffffffff168152602001908152602001600020613abe83611938565b613c9f565b50565b613ad86006613ad3610dc2565b613c9f565b565b613ae5838383612e02565b505050565b505050565b6000613afb6008612ebf565b905090565b600080838054905003613b165760009050613bb3565b600080848054905090505b80821015613b6a576000613b358383613d1a565b905084613b428783613d40565b600001541115613b5457809150613b64565b600181613b619190614615565b92505b50613b21565b600082118015613b92575083613b8c86600185613b8791906147c6565b613d40565b60000154145b15613bad57600182613ba491906147c6565b92505050613bb3565b81925050505b92915050565b6001816000016000828254019250508190555050565b81601760008373ffffffffffffffffffffffffffffffffffffffff1673ffffffffffffffffffffffffffffffffffffffff1681526020019081526020016000206000828254613c1e91906147c6565b92505081905550613c2e826110ee565b5050565b6000613c3c61341e565b600073ffffffffffffffffffffffffffffffffffffffff168373ffffffffffffffffffffffffffffffffffffffff1603613c7557600080fd5b6000821015613c8357600080fd5b613c8d838361389b565b60019050613c99613481565b92915050565b6000613ca9613aef565b905080613cb884600001613d62565b1015613d155782600001819080600181540180825580915050600190039060005260206000200160009091909190915055826001018290806001815401808255809150506001900390600052602060002001600090919091909150555b505050565b60006002828418613d2b9190614a13565b828416613d389190614615565b905092915050565b60008083600052826020600020019050613d5981613dae565b91505092915050565b600080828054905003613d785760009050613da9565b8160018380549050613d8a91906147c6565b81548110613d9b57613d9a61468b565b5b906000526020600020015490505b919050565b6000819050919050565b6000604051905090565b600080fd5b600080fd5b600073ffffffffffffffffffffffffffffffffffffffff82169050919050565b6000613df782613dcc565b9050919050565b613e0781613dec565b8114613e1257600080fd5b50565b600081359050613e2481613dfe565b92915050565b600060208284031215613e4057613e3f613dc2565b5b6000613e4e84828501613e15565b91505092915050565b6000819050919050565b613e6a81613e57565b82525050565b6000604082019050613e856000830185613e61565b613e926020830184613e61565b9392505050565b6000819050919050565b6000613ebe613eb9613eb484613dcc565b613e99565b613dcc565b9050919050565b6000613ed082613ea3565b9050919050565b6000613ee282613ec5565b9050919050565b613ef281613ed7565b82525050565b6000602082019050613f0d6000830184613ee9565b92915050565b6000602082019050613f286000830184613e61565b92915050565b600081519050919050565b600082825260208201905092915050565b60005b83811015613f68578082015181840152602081019050613f4d565b60008484015250505050565b6000601f19601f8301169050919050565b6000613f9082613f2e565b613f9a8185613f39565b9350613faa818560208601613f4a565b613fb381613f74565b840191505092915050565b60006020820190508181036000830152613fd88184613f85565b905092915050565b613fe981613e57565b8114613ff457600080fd5b50565b60008135905061400681613fe0565b92915050565b6000806040838503121561402357614022613dc2565b5b600061403185828601613e15565b925050602061404285828601613ff7565b9150509250929050565b60008115159050919050565b6140618161404c565b82525050565b600060208201905061407c6000830184614058565b92915050565b61408b81613dec565b82525050565b60006020820190506140a66000830184614082565b92915050565b6000806000606084860312156140c5576140c4613dc2565b5b60006140d386828701613e15565b93505060206140e486828701613e15565b92505060406140f586828701613ff7565b9150509250925092565b60006020828403121561411557614114613dc2565b5b600061412384828501613ff7565b91505092915050565b600060ff82169050919050565b6141428161412c565b82525050565b600060208201905061415d6000830184614139565b92915050565b600080fd5b7f4e487b7100000000000000000000000000000000000000000000000000000000600052604160045260246000fd5b6141a082613f74565b810181811067ffffffffffffffff821117156141bf576141be614168565b5b80604052505050565b60006141d2613db8565b90506141de8282614197565b919050565b600067ffffffffffffffff8211156141fe576141fd614168565b5b602082029050602081019050919050565b600080fd5b6000614227614222846141e3565b6141c8565b9050808382526020820190506020840283018581111561424a5761424961420f565b5b835b81811015614273578061425f8882613e15565b84526020840193505060208101905061424c565b5050509392505050565b600082601f83011261429257614291614163565b5b81356142a2848260208601614214565b91505092915050565b600067ffffffffffffffff8211156142c6576142c5614168565b5b602082029050602081019050919050565b60006142ea6142e5846142ab565b6141c8565b9050808382526020820190506020840283018581111561430d5761430c61420f565b5b835b8181101561433657806143228882613ff7565b84526020840193505060208101905061430f565b5050509392505050565b600082601f83011261435557614354614163565b5b81356143658482602086016142d7565b91505092915050565b6000806040838503121561438557614384613dc2565b5b600083013567ffffffffffffffff8111156143a3576143a2613dc7565b5b6143af8582860161427d565b925050602083013567ffffffffffffffff8111156143d0576143cf613dc7565b5b6143dc85828601614340565b9150509250929050565b600080604083850312156143fd576143fc613dc2565b5b600061440b85828601613e15565b925050602061441c85828601613e15565b9150509250929050565b6000806040838503121561443d5761443c613dc2565b5b600061444b85828601613ff7565b925050602061445c85828601613e15565b9150509250929050565b6000806040838503121561447d5761447c613dc2565b5b600061448b85828601613ff7565b925050602061449c85828601613ff7565b9150509250929050565b600081519050919050565b600082825260208201905092915050565b6000819050602082019050919050565b6144db81613e57565b82525050565b60006144ed83836144d2565b60208301905092915050565b6000602082019050919050565b6000614511826144a6565b61451b81856144b1565b9350614526836144c2565b8060005b8381101561455757815161453e88826144e1565b9750614549836144f9565b92505060018101905061452a565b5085935050505092915050565b6000602082019050818103600083015261457e8184614506565b905092915050565b7f4e487b7100000000000000000000000000000000000000000000000000000000600052602260045260246000fd5b600060028204905060018216806145cd57607f821691505b6020821081036145e0576145df614586565b5b50919050565b7f4e487b7100000000000000000000000000000000000000000000000000000000600052601160045260246000fd5b600061462082613e57565b915061462b83613e57565b9250828201905080821115614643576146426145e6565b5b92915050565b600061465482613e57565b915061465f83613e57565b925082820261466d81613e57565b91508282048414831517614684576146836145e6565b5b5092915050565b7f4e487b7100000000000000000000000000000000000000000000000000000000600052603260045260246000fd5b6000815190506146c981613fe0565b92915050565b6000602082840312156146e5576146e4613dc2565b5b60006146f3848285016146ba565b91505092915050565b60006040820190506147116000830185614082565b61471e6020830184613e61565b9392505050565b61472e8161404c565b811461473957600080fd5b50565b60008151905061474b81614725565b92915050565b60006020828403121561476757614766613dc2565b5b60006147758482850161473c565b91505092915050565b600061478982613e57565b91507fffffffffffffffffffffffffffffffffffffffffffffffffffffffffffffffff82036147bb576147ba6145e6565b5b600182019050919050565b60006147d182613e57565b91506147dc83613e57565b92508282039050818111156147f4576147f36145e6565b5b92915050565b7f61697264726f7000000000000000000000000000000000000000000000000000600082015250565b6000614830600783613f39565b915061483b826147fa565b602082019050919050565b6000602082019050818103600083015261485f81614823565b9050919050565b60008160011c9050919050565b6000808291508390505b60018511156148bd57808604811115614899576148986145e6565b5b60018516156148a85780820291505b80810290506148b685614866565b945061487d565b94509492505050565b6000826148d65760019050614992565b816148e45760009050614992565b81600181146148fa576002811461490457614933565b6001915050614992565b60ff841115614916576149156145e6565b5b8360020a91508482111561492d5761492c6145e6565b5b50614992565b5060208310610133831016604e8410600b84101617156149685782820a905083811115614963576149626145e6565b5b614992565b6149758484846001614873565b9250905081840481111561498c5761498b6145e6565b5b81810290505b9392505050565b60006149a482613e57565b91506149af8361412c565b92506149dc7fffffffffffffffffffffffffffffffffffffffffffffffffffffffffffffffff84846148c6565b905092915050565b7f4e487b7100000000000000000000000000000000000000000000000000000000600052601260045260246000fd5b6000614a1e82613e57565b9150614a2983613e57565b925082614a3957614a386149e4565b5b828204905092915050565b6000606082019050614a596000830186614082565b614a666020830185614082565b614a736040830184613e61565b949350505050565b7f45524332303a2064656372656173656420616c6c6f77616e63652062656c6f7760008201527f207a65726f000000000000000000000000000000000000000000000000000000602082015250565b6000614ad7602583613f39565b9150614ae282614a7b565b604082019050919050565b60006020820190508181036000830152614b0681614aca565b9050919050565b6000614b188261412c565b9150614b238361412c565b9250828203905060ff811115614b3c57614b3b6145e6565b5b92915050565b600069ffffffffffffffffffff82169050919050565b614b6181614b42565b8114614b6c57600080fd5b50565b600081519050614b7e81614b58565b92915050565b6000819050919050565b614b9781614b84565b8114614ba257600080fd5b50565b600081519050614bb481614b8e565b92915050565b600080600080600060a08688031215614bd657614bd5613dc2565b5b6000614be488828901614b6f565b9550506020614bf588828901614ba5565b9450506040614c06888289016146ba565b9350506060614c17888289016146ba565b9250506080614c2888828901614b6f565b9150509295509295909350565b614c3e8161412c565b8114614c4957600080fd5b50565b600081519050614c5b81614c35565b92915050565b600060208284031215614c7757614c76613dc2565b5b6000614c8584828501614c4c565b91505092915050565b7f4f776e61626c653a206e6577206f776e657220697320746865207a65726f206160008201527f6464726573730000000000000000000000000000000000000000000000000000602082015250565b6000614cea602683613f39565b9150614cf582614c8e565b604082019050919050565b60006020820190508181036000830152614d1981614cdd565b9050919050565b7f45524332303a20617070726f76652066726f6d20746865207a65726f2061646460008201527f7265737300000000000000000000000000000000000000000000000000000000602082015250565b6000614d7c602483613f39565b9150614d8782614d20565b604082019050919050565b60006020820190508181036000830152614dab81614d6f565b9050919050565b7f45524332303a20617070726f766520746f20746865207a65726f20616464726560008201527f7373000000000000000000000000000000000000000000000000000000000000602082015250565b6000614e0e602283613f39565b9150614e1982614db2565b604082019050919050565b60006020820190508181036000830152614e3d81614e01565b9050919050565b7f45524332303a20696e73756666696369656e7420616c6c6f77616e6365000000600082015250565b6000614e7a601d83613f39565b9150614e8582614e44565b602082019050919050565b60006020820190508181036000830152614ea981614e6d565b9050919050565b7f45524332303a207472616e736665722066726f6d20746865207a65726f20616460008201527f6472657373000000000000000000000000000000000000000000000000000000602082015250565b6000614f0c602583613f39565b9150614f1782614eb0565b604082019050919050565b60006020820190508181036000830152614f3b81614eff565b9050919050565b7f45524332303a207472616e7366657220746f20746865207a65726f206164647260008201527f6573730000000000000000000000000000000000000000000000000000000000602082015250565b6000614f9e602383613f39565b9150614fa982614f42565b604082019050919050565b60006020820190508181036000830152614fcd81614f91565b9050919050565b7f45524332303a207472616e7366657220616d6f756e742065786365656473206260008201527f616c616e63650000000000000000000000000000000000000000000000000000602082015250565b6000615030602683613f39565b915061503b82614fd4565b604082019050919050565b6000602082019050818103600083015261505f81615023565b9050919050565b7f4f776e61626c653a2063616c6c6572206973206e6f7420746865206f776e6572600082015250565b600061509c602083613f39565b91506150a782615066565b602082019050919050565b600060208201905081810360008301526150cb8161508f565b9050919050565b7f5265656e7472616e637947756172643a207265656e7472616e742063616c6c00600082015250565b6000615108601f83613f39565b9150615113826150d2565b602082019050919050565b60006020820190508181036000830152615137816150fb565b9050919050565b7f4552433230536e617073686f743a206964206973203000000000000000000000600082015250565b6000615174601683613f39565b915061517f8261513e565b602082019050919050565b600060208201905081810360008301526151a381615167565b9050919050565b7f4552433230536e617073686f743a206e6f6e6578697374656e74206964000000600082015250565b60006151e0601d83613f39565b91506151eb826151aa565b602082019050919050565b6000602082019050818103600083015261520f816151d3565b9050919050565b7f45524332303a206275726e2066726f6d20746865207a65726f2061646472657360008201527f7300000000000000000000000000000000000000000000000000000000000000602082015250565b6000615272602183613f39565b915061527d82615216565b604082019050919050565b600060208201905081810360008301526152a181615265565b9050919050565b7f45524332303a206275726e20616d6f756e7420657863656564732062616c616e60008201527f6365000000000000000000000000000000000000000000000000000000000000602082015250565b6000615304602283613f39565b915061530f826152a8565b604082019050919050565b60006020820190508181036000830152615333816152f7565b9050919050565b7f45524332303a206d696e7420746f20746865207a65726f206164647265737300600082015250565b6000615370601f83613f39565b915061537b8261533a565b602082019050919050565b6000602082019050818103600083015261539f81615363565b905091905056fea264697066735822122063bafc80c34b8985b2bc76425231a23d6b2ebda4864b476ae4a0d97d26f9a36564736f6c63430008120033",
  "linkReferences": {},
  "deployedLinkReferences": {}
}