{
  "_format": "hh-sol-artifact-1",
  "contractName": "Streal",
  "sourceName": "contracts/streal2.sol",
  "abi": [
    {
      "inputs": [],
      "stateMutability": "nonpayable",
      "type": "constructor"
    },
    {
      "anonymous": false,
      "inputs": [
        {
          "indexed": true,
          "internalType": "address",
          "name": "owner",
          "type": "address"
        },
        {
          "indexed": true,
          "internalType": "address",
          "name": "spender",
          "type": "address"
        },
        {
          "indexed": false,
          "internalType": "uint256",
          "name": "value",
          "type": "uint256"
        }
      ],
      "name": "Approval",
      "type": "event"
    },
    {
      "anonymous": false,
      "inputs": [
        {
          "indexed": true,
          "internalType": "address",
          "name": "previousOwner",
          "type": "address"
        },
        {
          "indexed": true,
          "internalType": "address",
          "name": "newOwner",
          "type": "address"
        }
      ],
      "name": "OwnershipTransferred",
      "type": "event"
    },
    {
      "anonymous": false,
      "inputs": [
        {
          "indexed": true,
          "internalType": "bytes32",
          "name": "role",
          "type": "bytes32"
        },
        {
          "indexed": true,
          "internalType": "bytes32",
          "name": "previousAdminRole",
          "type": "bytes32"
        },
        {
          "indexed": true,
          "internalType": "bytes32",
          "name": "newAdminRole",
          "type": "bytes32"
        }
      ],
      "name": "RoleAdminChanged",
      "type": "event"
    },
    {
      "anonymous": false,
      "inputs": [
        {
          "indexed": true,
          "internalType": "bytes32",
          "name": "role",
          "type": "bytes32"
        },
        {
          "indexed": true,
          "internalType": "address",
          "name": "account",
          "type": "address"
        },
        {
          "indexed": true,
          "internalType": "address",
          "name": "sender",
          "type": "address"
        }
      ],
      "name": "RoleGranted",
      "type": "event"
    },
    {
      "anonymous": false,
      "inputs": [
        {
          "indexed": true,
          "internalType": "bytes32",
          "name": "role",
          "type": "bytes32"
        },
        {
          "indexed": true,
          "internalType": "address",
          "name": "account",
          "type": "address"
        },
        {
          "indexed": true,
          "internalType": "address",
          "name": "sender",
          "type": "address"
        }
      ],
      "name": "RoleRevoked",
      "type": "event"
    },
    {
      "anonymous": false,
      "inputs": [
        {
          "indexed": false,
          "internalType": "uint256",
          "name": "id",
          "type": "uint256"
        }
      ],
      "name": "Snapshot",
      "type": "event"
    },
    {
      "anonymous": false,
      "inputs": [
        {
          "indexed": true,
          "internalType": "address",
          "name": "from",
          "type": "address"
        },
        {
          "indexed": true,
          "internalType": "address",
          "name": "to",
          "type": "address"
        },
        {
          "indexed": false,
          "internalType": "uint256",
          "name": "value",
          "type": "uint256"
        }
      ],
      "name": "Transfer",
      "type": "event"
    },
    {
      "anonymous": false,
      "inputs": [
        {
          "indexed": true,
          "internalType": "address",
          "name": "user",
          "type": "address"
        },
        {
          "indexed": false,
          "internalType": "uint256",
          "name": "amount",
          "type": "uint256"
        }
      ],
      "name": "airdropped",
      "type": "event"
    },
    {
      "anonymous": false,
      "inputs": [
        {
          "indexed": true,
          "internalType": "address",
          "name": "user",
          "type": "address"
        },
        {
          "indexed": true,
          "internalType": "address",
          "name": "token",
          "type": "address"
        },
        {
          "indexed": false,
          "internalType": "uint256",
          "name": "amount",
          "type": "uint256"
        }
      ],
      "name": "collateralDeposited",
      "type": "event"
    },
    {
      "anonymous": false,
      "inputs": [
        {
          "indexed": true,
          "internalType": "address",
          "name": "recipients",
          "type": "address"
        }
      ],
      "name": "mintRewards",
      "type": "event"
    },
    {
      "anonymous": false,
      "inputs": [
        {
          "indexed": true,
          "internalType": "address",
          "name": "user",
          "type": "address"
        },
        {
          "indexed": false,
          "internalType": "uint256",
          "name": "amount",
          "type": "uint256"
        }
      ],
      "name": "redeemedCollateral",
      "type": "event"
    },
    {
      "anonymous": false,
      "inputs": [
        {
          "indexed": true,
          "internalType": "address",
          "name": "user",
          "type": "address"
        },
        {
          "indexed": false,
          "internalType": "uint256",
          "name": "amount",
          "type": "uint256"
        }
      ],
      "name": "strealDeposited",
      "type": "event"
    },
    {
      "anonymous": false,
      "inputs": [
        {
          "indexed": true,
          "internalType": "address",
          "name": "user",
          "type": "address"
        }
      ],
      "name": "voted",
      "type": "event"
    },
    {
      "anonymous": false,
      "inputs": [
        {
          "indexed": true,
          "internalType": "address",
          "name": "user",
          "type": "address"
        },
        {
          "indexed": false,
          "internalType": "uint256",
          "name": "amount",
          "type": "uint256"
        }
      ],
      "name": "withdrawal",
      "type": "event"
    },
    {
      "inputs": [],
      "name": "DEFAULT_ADMIN_ROLE",
      "outputs": [
        {
          "internalType": "bytes32",
          "name": "",
          "type": "bytes32"
        }
      ],
      "stateMutability": "view",
      "type": "function"
    },
    {
      "inputs": [
        {
          "internalType": "address",
          "name": "",
          "type": "address"
        },
        {
          "internalType": "address",
          "name": "",
          "type": "address"
        }
      ],
      "name": "_collateralDeposited",
      "outputs": [
        {
          "internalType": "uint256",
          "name": "",
          "type": "uint256"
        }
      ],
      "stateMutability": "view",
      "type": "function"
    },
    {
      "inputs": [
        {
          "internalType": "uint256",
          "name": "",
          "type": "uint256"
        }
      ],
      "name": "_collateralTokens",
      "outputs": [
        {
          "internalType": "address",
          "name": "",
          "type": "address"
        }
      ],
      "stateMutability": "view",
      "type": "function"
    },
    {
      "inputs": [
        {
          "internalType": "address",
          "name": "user",
          "type": "address"
        }
      ],
      "name": "_getAccountInfo",
      "outputs": [
        {
          "internalType": "uint256",
          "name": "totalStrealMinted",
          "type": "uint256"
        },
        {
          "internalType": "uint256",
          "name": "collateralValueInUsd",
          "type": "uint256"
        }
      ],
      "stateMutability": "view",
      "type": "function"
    },
    {
      "inputs": [
        {
          "internalType": "address[]",
          "name": "recipients",
          "type": "address[]"
        },
        {
          "internalType": "uint256[]",
          "name": "values",
          "type": "uint256[]"
        }
      ],
      "name": "airdrop",
      "outputs": [
        {
          "internalType": "bool",
          "name": "success",
          "type": "bool"
        }
      ],
      "stateMutability": "nonpayable",
      "type": "function"
    },
    {
      "inputs": [],
      "name": "airdropLockTime",
      "outputs": [
        {
          "internalType": "uint256",
          "name": "",
          "type": "uint256"
        }
      ],
      "stateMutability": "view",
      "type": "function"
    },
    {
      "inputs": [],
      "name": "airdropLockTimeSet",
      "outputs": [
        {
          "internalType": "uint256",
          "name": "",
          "type": "uint256"
        }
      ],
      "stateMutability": "view",
      "type": "function"
    },
    {
      "inputs": [
        {
          "internalType": "address",
          "name": "",
          "type": "address"
        }
      ],
      "name": "airdropTimes",
      "outputs": [
        {
          "internalType": "uint256",
          "name": "",
          "type": "uint256"
        }
      ],
      "stateMutability": "view",
      "type": "function"
    },
    {
      "inputs": [
        {
          "internalType": "address",
          "name": "",
          "type": "address"
        }
      ],
      "name": "airdroppedAddress",
      "outputs": [
        {
          "internalType": "bool",
          "name": "",
          "type": "bool"
        }
      ],
      "stateMutability": "view",
      "type": "function"
    },
    {
      "inputs": [
        {
          "internalType": "uint256",
          "name": "",
          "type": "uint256"
        }
      ],
      "name": "airdroppedAddresses",
      "outputs": [
        {
          "internalType": "address",
          "name": "",
          "type": "address"
        }
      ],
      "stateMutability": "view",
      "type": "function"
    },
    {
      "inputs": [],
      "name": "airdrops",
      "outputs": [
        {
          "internalType": "uint256",
          "name": "",
          "type": "uint256"
        }
      ],
      "stateMutability": "view",
      "type": "function"
    },
    {
      "inputs": [
        {
          "internalType": "address",
          "name": "owner",
          "type": "address"
        },
        {
          "internalType": "address",
          "name": "spender",
          "type": "address"
        }
      ],
      "name": "allowance",
      "outputs": [
        {
          "internalType": "uint256",
          "name": "",
          "type": "uint256"
        }
      ],
      "stateMutability": "view",
      "type": "function"
    },
    {
      "inputs": [
        {
          "internalType": "address",
          "name": "spender",
          "type": "address"
        },
        {
          "internalType": "uint256",
          "name": "amount",
          "type": "uint256"
        }
      ],
      "name": "approve",
      "outputs": [
        {
          "internalType": "bool",
          "name": "",
          "type": "bool"
        }
      ],
      "stateMutability": "nonpayable",
      "type": "function"
    },
    {
      "inputs": [],
      "name": "balance",
      "outputs": [
        {
          "internalType": "uint256[]",
          "name": "",
          "type": "uint256[]"
        }
      ],
      "stateMutability": "view",
      "type": "function"
    },
    {
      "inputs": [
        {
          "internalType": "address",
          "name": "account",
          "type": "address"
        }
      ],
      "name": "balanceOf",
      "outputs": [
        {
          "internalType": "uint256",
          "name": "",
          "type": "uint256"
        }
      ],
      "stateMutability": "view",
      "type": "function"
    },
    {
      "inputs": [
        {
          "internalType": "address",
          "name": "account",
          "type": "address"
        },
        {
          "internalType": "uint256",
          "name": "snapshotId",
          "type": "uint256"
        }
      ],
      "name": "balanceOfAt",
      "outputs": [
        {
          "internalType": "uint256",
          "name": "",
          "type": "uint256"
        }
      ],
      "stateMutability": "view",
      "type": "function"
    },
    {
      "inputs": [
        {
          "internalType": "uint256",
          "name": "_amount",
          "type": "uint256"
        }
      ],
      "name": "burn",
      "outputs": [],
      "stateMutability": "nonpayable",
      "type": "function"
    },
    {
      "inputs": [
        {
          "internalType": "uint256",
          "name": "_amount",
          "type": "uint256"
        }
      ],
      "name": "burnForCommerce",
      "outputs": [],
      "stateMutability": "nonpayable",
      "type": "function"
    },
    {
      "inputs": [
        {
          "internalType": "address",
          "name": "account",
          "type": "address"
        },
        {
          "internalType": "uint256",
          "name": "amount",
          "type": "uint256"
        }
      ],
      "name": "burnFrom",
      "outputs": [],
      "stateMutability": "nonpayable",
      "type": "function"
    },
    {
      "inputs": [
        {
          "internalType": "address",
          "name": "tokenCollateralAddress",
          "type": "address"
        },
        {
          "internalType": "uint256",
          "name": "amountCollateral",
          "type": "uint256"
        }
      ],
      "name": "calculateEquivalentAmountToMint",
      "outputs": [
        {
          "internalType": "uint256",
          "name": "",
          "type": "uint256"
        }
      ],
      "stateMutability": "view",
      "type": "function"
    },
    {
      "inputs": [],
      "name": "decimals",
      "outputs": [
        {
          "internalType": "uint8",
          "name": "",
          "type": "uint8"
        }
      ],
      "stateMutability": "view",
      "type": "function"
    },
    {
      "inputs": [
        {
          "internalType": "address",
          "name": "spender",
          "type": "address"
        },
        {
          "internalType": "uint256",
          "name": "subtractedValue",
          "type": "uint256"
        }
      ],
      "name": "decreaseAllowance",
      "outputs": [
        {
          "internalType": "bool",
          "name": "",
          "type": "bool"
        }
      ],
      "stateMutability": "nonpayable",
      "type": "function"
    },
    {
      "inputs": [
        {
          "internalType": "address",
          "name": "tokenCollateralAddress",
          "type": "address"
        },
        {
          "internalType": "uint256",
          "name": "amountCollateral",
          "type": "uint256"
        }
      ],
      "name": "depositCollateralAndMintStreal",
      "outputs": [],
      "stateMutability": "nonpayable",
      "type": "function"
    },
    {
      "inputs": [
        {
          "internalType": "uint256",
          "name": "amountStreal",
          "type": "uint256"
        },
        {
          "internalType": "address",
          "name": "tokenCollateralAddress",
          "type": "address"
        }
      ],
      "name": "depositStrealAndGetToken",
      "outputs": [],
      "stateMutability": "nonpayable",
      "type": "function"
    },
    {
      "inputs": [
        {
          "internalType": "address",
          "name": "user",
          "type": "address"
        }
      ],
      "name": "getAccountCollateralValueInUsd",
      "outputs": [
        {
          "internalType": "uint256",
          "name": "totalCollateralValueInUsd",
          "type": "uint256"
        }
      ],
      "stateMutability": "view",
      "type": "function"
    },
    {
      "inputs": [
        {
          "internalType": "bytes32",
          "name": "role",
          "type": "bytes32"
        }
      ],
      "name": "getRoleAdmin",
      "outputs": [
        {
          "internalType": "bytes32",
          "name": "",
          "type": "bytes32"
        }
      ],
      "stateMutability": "view",
      "type": "function"
    },
    {
      "inputs": [
        {
          "internalType": "address",
          "name": "token",
          "type": "address"
        },
        {
          "internalType": "uint256",
          "name": "amount",
          "type": "uint256"
        }
      ],
      "name": "getUsdValue",
      "outputs": [
        {
          "internalType": "uint256",
          "name": "",
          "type": "uint256"
        }
      ],
      "stateMutability": "view",
      "type": "function"
    },
    {
      "inputs": [
        {
          "internalType": "address",
          "name": "user",
          "type": "address"
        }
      ],
      "name": "getUserStartTime",
      "outputs": [
        {
          "internalType": "uint256",
          "name": "",
          "type": "uint256"
        }
      ],
      "stateMutability": "view",
      "type": "function"
    },
    {
      "inputs": [
        {
          "internalType": "bytes32",
          "name": "role",
          "type": "bytes32"
        },
        {
          "internalType": "address",
          "name": "account",
          "type": "address"
        }
      ],
      "name": "grantRole",
      "outputs": [],
      "stateMutability": "nonpayable",
      "type": "function"
    },
    {
      "inputs": [
        {
          "internalType": "bytes32",
          "name": "role",
          "type": "bytes32"
        },
        {
          "internalType": "address",
          "name": "account",
          "type": "address"
        }
      ],
      "name": "hasRole",
      "outputs": [
        {
          "internalType": "bool",
          "name": "",
          "type": "bool"
        }
      ],
      "stateMutability": "view",
      "type": "function"
    },
    {
      "inputs": [
        {
          "internalType": "address",
          "name": "",
          "type": "address"
        }
      ],
      "name": "hasVoted",
      "outputs": [
        {
          "internalType": "address",
          "name": "",
          "type": "address"
        }
      ],
      "stateMutability": "view",
      "type": "function"
    },
    {
      "inputs": [
        {
          "internalType": "address",
          "name": "spender",
          "type": "address"
        },
        {
          "internalType": "uint256",
          "name": "addedValue",
          "type": "uint256"
        }
      ],
      "name": "increaseAllowance",
      "outputs": [
        {
          "internalType": "bool",
          "name": "",
          "type": "bool"
        }
      ],
      "stateMutability": "nonpayable",
      "type": "function"
    },
    {
      "inputs": [
        {
          "internalType": "address",
          "name": "to",
          "type": "address"
        },
        {
          "internalType": "uint256",
          "name": "amount",
          "type": "uint256"
        }
      ],
      "name": "mintForCommerce",
      "outputs": [
        {
          "internalType": "bool",
          "name": "",
          "type": "bool"
        }
      ],
      "stateMutability": "nonpayable",
      "type": "function"
    },
    {
      "inputs": [
        {
          "internalType": "address[]",
          "name": "recipients",
          "type": "address[]"
        },
        {
          "internalType": "uint256[]",
          "name": "amounts",
          "type": "uint256[]"
        }
      ],
      "name": "mintReward",
      "outputs": [
        {
          "internalType": "bool",
          "name": "",
          "type": "bool"
        }
      ],
      "stateMutability": "nonpayable",
      "type": "function"
    },
    {
      "inputs": [
        {
          "internalType": "address",
          "name": "",
          "type": "address"
        }
      ],
      "name": "mintedStreal",
      "outputs": [
        {
          "internalType": "uint256",
          "name": "",
          "type": "uint256"
        }
      ],
      "stateMutability": "view",
      "type": "function"
    },
    {
      "inputs": [],
      "name": "name",
      "outputs": [
        {
          "internalType": "string",
          "name": "",
          "type": "string"
        }
      ],
      "stateMutability": "view",
      "type": "function"
    },
    {
      "inputs": [],
      "name": "owner",
      "outputs": [
        {
          "internalType": "address",
          "name": "",
          "type": "address"
        }
      ],
      "stateMutability": "view",
      "type": "function"
    },
    {
      "inputs": [
        {
          "internalType": "address",
          "name": "",
          "type": "address"
        }
      ],
      "name": "priceFeed",
      "outputs": [
        {
          "internalType": "address",
          "name": "",
          "type": "address"
        }
      ],
      "stateMutability": "view",
      "type": "function"
    },
    {
      "inputs": [
        {
          "internalType": "uint256",
          "name": "",
          "type": "uint256"
        }
      ],
      "name": "priceFeedAddress",
      "outputs": [
        {
          "internalType": "address",
          "name": "",
          "type": "address"
        }
      ],
      "stateMutability": "view",
      "type": "function"
    },
    {
      "inputs": [
        {
          "internalType": "address",
          "name": "tokenCollateralAddress",
          "type": "address"
        },
        {
          "internalType": "uint256",
          "name": "amountCollateral",
          "type": "uint256"
        }
      ],
      "name": "redeemCollateralForStreal",
      "outputs": [],
      "stateMutability": "nonpayable",
      "type": "function"
    },
    {
      "inputs": [],
      "name": "renounceOwnership",
      "outputs": [],
      "stateMutability": "nonpayable",
      "type": "function"
    },
    {
      "inputs": [
        {
          "internalType": "bytes32",
          "name": "role",
          "type": "bytes32"
        },
        {
          "internalType": "address",
          "name": "account",
          "type": "address"
        }
      ],
      "name": "renounceRole",
      "outputs": [],
      "stateMutability": "nonpayable",
      "type": "function"
    },
    {
      "inputs": [
        {
          "internalType": "bytes32",
          "name": "role",
          "type": "bytes32"
        },
        {
          "internalType": "address",
          "name": "account",
          "type": "address"
        }
      ],
      "name": "revokeRole",
      "outputs": [],
      "stateMutability": "nonpayable",
      "type": "function"
    },
    {
      "inputs": [
        {
          "internalType": "uint256",
          "name": "_airdropLockTime",
          "type": "uint256"
        }
      ],
      "name": "setAirdropLockTime",
      "outputs": [],
      "stateMutability": "nonpayable",
      "type": "function"
    },
    {
      "inputs": [],
      "name": "snapshot",
      "outputs": [],
      "stateMutability": "nonpayable",
      "type": "function"
    },
    {
      "inputs": [
        {
          "internalType": "uint256",
          "name": "",
          "type": "uint256"
        }
      ],
      "name": "supportedTokens",
      "outputs": [
        {
          "internalType": "address",
          "name": "",
          "type": "address"
        }
      ],
      "stateMutability": "view",
      "type": "function"
    },
    {
      "inputs": [
        {
          "internalType": "bytes4",
          "name": "interfaceId",
          "type": "bytes4"
        }
      ],
      "name": "supportsInterface",
      "outputs": [
        {
          "internalType": "bool",
          "name": "",
          "type": "bool"
        }
      ],
      "stateMutability": "view",
      "type": "function"
    },
    {
      "inputs": [],
      "name": "symbol",
      "outputs": [
        {
          "internalType": "string",
          "name": "",
          "type": "string"
        }
      ],
      "stateMutability": "view",
      "type": "function"
    },
    {
      "inputs": [],
      "name": "totalSupply",
      "outputs": [
        {
          "internalType": "uint256",
          "name": "",
          "type": "uint256"
        }
      ],
      "stateMutability": "view",
      "type": "function"
    },
    {
      "inputs": [
        {
          "internalType": "uint256",
          "name": "snapshotId",
          "type": "uint256"
        }
      ],
      "name": "totalSupplyAt",
      "outputs": [
        {
          "internalType": "uint256",
          "name": "",
          "type": "uint256"
        }
      ],
      "stateMutability": "view",
      "type": "function"
    },
    {
      "inputs": [
        {
          "internalType": "address",
          "name": "to",
          "type": "address"
        },
        {
          "internalType": "uint256",
          "name": "amount",
          "type": "uint256"
        }
      ],
      "name": "transfer",
      "outputs": [
        {
          "internalType": "bool",
          "name": "",
          "type": "bool"
        }
      ],
      "stateMutability": "nonpayable",
      "type": "function"
    },
    {
      "inputs": [
        {
          "internalType": "address",
          "name": "from",
          "type": "address"
        },
        {
          "internalType": "address",
          "name": "to",
          "type": "address"
        },
        {
          "internalType": "uint256",
          "name": "amount",
          "type": "uint256"
        }
      ],
      "name": "transferFrom",
      "outputs": [
        {
          "internalType": "bool",
          "name": "",
          "type": "bool"
        }
      ],
      "stateMutability": "nonpayable",
      "type": "function"
    },
    {
      "inputs": [
        {
          "internalType": "address",
          "name": "newOwner",
          "type": "address"
        }
      ],
      "name": "transferOwnership",
      "outputs": [],
      "stateMutability": "nonpayable",
      "type": "function"
    },
    {
      "inputs": [
        {
          "internalType": "address",
          "name": "candidate",
          "type": "address"
        }
      ],
      "name": "vote",
      "outputs": [
        {
          "internalType": "bool",
          "name": "success",
          "type": "bool"
        }
      ],
      "stateMutability": "nonpayable",
      "type": "function"
    },
    {
      "inputs": [
        {
          "internalType": "address",
          "name": "",
          "type": "address"
        }
      ],
      "name": "votes",
      "outputs": [
        {
          "internalType": "uint256",
          "name": "",
          "type": "uint256"
        }
      ],
      "stateMutability": "view",
      "type": "function"
    },
    {
      "inputs": [],
      "name": "withdraw",
      "outputs": [],
      "stateMutability": "nonpayable",
      "type": "function"
    }
  ],
  "bytecode": "0x60806040526a52b7d2dcc80cd2e40000006010556aa56fa5b99019a5c80000006011553480156200002f57600080fd5b506040518060400160405280600681526020017f53747265616c00000000000000000000000000000000000000000000000000008152506040518060400160405280600681526020017f53747265616c00000000000000000000000000000000000000000000000000008152508160039081620000ad919062000ecf565b508060049081620000bf919062000ecf565b505050620000e2620000d6620004f560201b60201c565b620004fd60201b60201c565b6001600b81905550604051806060016040528073acde43b9e5f72a4f554d4346e69e8e7ac8f352f073ffffffffffffffffffffffffffffffffffffffff1673ffffffffffffffffffffffffffffffffffffffff16815260200173e9dce89b076ba6107bb64ef30678efec1193923473ffffffffffffffffffffffffffffffffffffffff1673ffffffffffffffffffffffffffffffffffffffff16815260200173f14f9596430931e177469715c591513308244e8f73ffffffffffffffffffffffffffffffffffffffff1673ffffffffffffffffffffffffffffffffffffffff16815250600d906003620001d792919062000ba7565b5060405180606001604052807392c09849638959196e976289418e5973cc96d64573ffffffffffffffffffffffffffffffffffffffff1673ffffffffffffffffffffffffffffffffffffffff16815260200173572ddec9087154dc5dfbb1546bb62713147e0ab073ffffffffffffffffffffffffffffffffffffffff1673ffffffffffffffffffffffffffffffffffffffff168152602001730fcaa9c899ec5a91ebc3d5dd869de833b06fb04673ffffffffffffffffffffffffffffffffffffffff1673ffffffffffffffffffffffffffffffffffffffff16815250600e906003620002c592919062000ba7565b50600e80549050600d8054905014620002dd57600080fd5b60005b600d80549050811015620004a857600e818154811062000305576200030462000fb6565b5b9060005260206000200160009054906101000a900473ffffffffffffffffffffffffffffffffffffffff1660166000600d84815481106200034b576200034a62000fb6565b5b9060005260206000200160009054906101000a900473ffffffffffffffffffffffffffffffffffffffff1673ffffffffffffffffffffffffffffffffffffffff1673ffffffffffffffffffffffffffffffffffffffff16815260200190815260200160002060006101000a81548173ffffffffffffffffffffffffffffffffffffffff021916908373ffffffffffffffffffffffffffffffffffffffff160217905550600c600d828154811062000407576200040662000fb6565b5b9060005260206000200160009054906101000a900473ffffffffffffffffffffffffffffffffffffffff169080600181540180825580915050600190039060005260206000200160009091909190916101000a81548173ffffffffffffffffffffffffffffffffffffffff021916908373ffffffffffffffffffffffffffffffffffffffff16021790555080806200049f9062001014565b915050620002e0565b50620004be6000801b33620005c360201b60201c565b620004d233601154620005d960201b60201c565b60105460116000828254620004e8919062001061565b9250508190555062001188565b600033905090565b6000600960009054906101000a900473ffffffffffffffffffffffffffffffffffffffff16905081600960006101000a81548173ffffffffffffffffffffffffffffffffffffffff021916908373ffffffffffffffffffffffffffffffffffffffff1602179055508173ffffffffffffffffffffffffffffffffffffffff168173ffffffffffffffffffffffffffffffffffffffff167f8be0079c531659141344cd1fd0a4f28419497f9722a3daafe3b4186f6b6457e060405160405180910390a35050565b620005d582826200074660201b60201c565b5050565b600073ffffffffffffffffffffffffffffffffffffffff168273ffffffffffffffffffffffffffffffffffffffff16036200064b576040517f08c379a00000000000000000000000000000000000000000000000000000000081526004016200064290620010fd565b60405180910390fd5b6200065f600083836200083860201b60201c565b80600260008282546200067391906200111f565b92505081905550806000808473ffffffffffffffffffffffffffffffffffffffff1673ffffffffffffffffffffffffffffffffffffffff168152602001908152602001600020600082825401925050819055508173ffffffffffffffffffffffffffffffffffffffff16600073ffffffffffffffffffffffffffffffffffffffff167fddf252ad1be2c89b69c2b068fc378daa952ba7f163c4a11628f55a4df523b3ef836040516200072691906200116b565b60405180910390a362000742600083836200085560201b60201c565b5050565b6200075882826200085a60201b60201c565b62000834576001600a600084815260200190815260200160002060000160008373ffffffffffffffffffffffffffffffffffffffff1673ffffffffffffffffffffffffffffffffffffffff16815260200190815260200160002060006101000a81548160ff021916908315150217905550620007d9620004f560201b60201c565b73ffffffffffffffffffffffffffffffffffffffff168173ffffffffffffffffffffffffffffffffffffffff16837f2f8788117e7eff1d82e926ec794901d17c78024a50270940304540a733656f0d60405160405180910390a45b5050565b62000850838383620008c560201b62002bd21760201c565b505050565b505050565b6000600a600084815260200190815260200160002060000160008373ffffffffffffffffffffffffffffffffffffffff1673ffffffffffffffffffffffffffffffffffffffff16815260200190815260200160002060009054906101000a900460ff16905092915050565b620008dd838383620009be60201b62002c8a1760201c565b600073ffffffffffffffffffffffffffffffffffffffff168373ffffffffffffffffffffffffffffffffffffffff160362000939576200092382620009c360201b60201c565b6200093362000a2660201b60201c565b620009b9565b600073ffffffffffffffffffffffffffffffffffffffff168273ffffffffffffffffffffffffffffffffffffffff160362000995576200097f83620009c360201b60201c565b6200098f62000a2660201b60201c565b620009b8565b620009a683620009c360201b60201c565b620009b782620009c360201b60201c565b5b5b505050565b505050565b62000a23600560008373ffffffffffffffffffffffffffffffffffffffff1673ffffffffffffffffffffffffffffffffffffffff16815260200190815260200160002062000a178362000a4a60201b60201c565b62000a9260201b60201c565b50565b62000a48600662000a3c62000b1e60201b60201c565b62000a9260201b60201c565b565b60008060008373ffffffffffffffffffffffffffffffffffffffff1673ffffffffffffffffffffffffffffffffffffffff168152602001908152602001600020549050919050565b600062000aa462000b2860201b60201c565b90508062000abb8460000162000b4660201b60201c565b101562000b195782600001819080600181540180825580915050600190039060005260206000200160009091909190915055826001018290806001815401808255809150506001900390600052602060002001600090919091909150555b505050565b6000600254905090565b600062000b41600862000b9960201b62002c8f1760201c565b905090565b60008082805490500362000b5e576000905062000b94565b816001838054905062000b72919062001061565b8154811062000b865762000b8562000fb6565b5b906000526020600020015490505b919050565b600081600001549050919050565b82805482825590600052602060002090810192821562000c23579160200282015b8281111562000c225782518260006101000a81548173ffffffffffffffffffffffffffffffffffffffff021916908373ffffffffffffffffffffffffffffffffffffffff1602179055509160200191906001019062000bc8565b5b50905062000c32919062000c36565b5090565b5b8082111562000c5157600081600090555060010162000c37565b5090565b600081519050919050565b7f4e487b7100000000000000000000000000000000000000000000000000000000600052604160045260246000fd5b7f4e487b7100000000000000000000000000000000000000000000000000000000600052602260045260246000fd5b6000600282049050600182168062000cd757607f821691505b60208210810362000ced5762000cec62000c8f565b5b50919050565b60008190508160005260206000209050919050565b60006020601f8301049050919050565b600082821b905092915050565b60006008830262000d577fffffffffffffffffffffffffffffffffffffffffffffffffffffffffffffffff8262000d18565b62000d63868362000d18565b95508019841693508086168417925050509392505050565b6000819050919050565b6000819050919050565b600062000db062000daa62000da48462000d7b565b62000d85565b62000d7b565b9050919050565b6000819050919050565b62000dcc8362000d8f565b62000de462000ddb8262000db7565b84845462000d25565b825550505050565b600090565b62000dfb62000dec565b62000e0881848462000dc1565b505050565b5b8181101562000e305762000e2460008262000df1565b60018101905062000e0e565b5050565b601f82111562000e7f5762000e498162000cf3565b62000e548462000d08565b8101602085101562000e64578190505b62000e7c62000e738562000d08565b83018262000e0d565b50505b505050565b600082821c905092915050565b600062000ea46000198460080262000e84565b1980831691505092915050565b600062000ebf838362000e91565b9150826002028217905092915050565b62000eda8262000c55565b67ffffffffffffffff81111562000ef65762000ef562000c60565b5b62000f02825462000cbe565b62000f0f82828562000e34565b600060209050601f83116001811462000f47576000841562000f32578287015190505b62000f3e858262000eb1565b86555062000fae565b601f19841662000f578662000cf3565b60005b8281101562000f815784890151825560018201915060208501945060208101905062000f5a565b8683101562000fa1578489015162000f9d601f89168262000e91565b8355505b6001600288020188555050505b505050505050565b7f4e487b7100000000000000000000000000000000000000000000000000000000600052603260045260246000fd5b7f4e487b7100000000000000000000000000000000000000000000000000000000600052601160045260246000fd5b6000620010218262000d7b565b91507fffffffffffffffffffffffffffffffffffffffffffffffffffffffffffffffff820362001056576200105562000fe5565b5b600182019050919050565b60006200106e8262000d7b565b91506200107b8362000d7b565b925082820390508181111562001096576200109562000fe5565b5b92915050565b600082825260208201905092915050565b7f45524332303a206d696e7420746f20746865207a65726f206164647265737300600082015250565b6000620010e5601f836200109c565b9150620010f282620010ad565b602082019050919050565b600060208201905081810360008301526200111881620010d6565b9050919050565b60006200112c8262000d7b565b9150620011398362000d7b565b925082820190508082111562001154576200115362000fe5565b5b92915050565b620011658162000d7b565b82525050565b60006020820190506200118260008301846200115a565b92915050565b615faf80620011986000396000f3fe608060405234801561001057600080fd5b50600436106103785760003560e01c806379cc6790116101d3578063ae9fea2d11610104578063d88b2bee116100a2578063e2f764a31161007c578063e2f764a314610b76578063f2fde38b14610ba6578063fd489a8e14610bc2578063ff51359114610bde57610378565b8063d88b2bee14610afa578063d8bff5a514610b16578063dd62ed3e14610b4657610378565b8063c6255626116100de578063c625562614610a4e578063c660d11214610a7e578063cc20743d14610aae578063d547741f14610ade57610378565b8063ae9fea2d146109e2578063b69ef8a814610a00578063bf8daa9514610a1e57610378565b8063981b24d011610171578063a217fddf1161014b578063a217fddf14610934578063a457c2d714610952578063a595483414610982578063a9059cbb146109b257610378565b8063981b24d0146108b85780639998dcbe146108e85780639f222fe01461091857610378565b806391d14854116101ad57806391d148541461083057806393a23c8c1461086057806395d89b41146108905780639711715a146108ae57610378565b806379cc6790146107d85780638b94b84b146107f45780638da5cb5b1461081257610378565b806336568abe116102ad578063545af4fe1161024b5780636724348211610225578063672434821461073e5780636dd7d8ea1461076e57806370a082311461079e578063715018a6146107ce57610378565b8063545af4fe146106ae57806358b35ce4146106de5780635f66a7681461070e57610378565b80633ccfd60b116102875780633ccfd60b1461063c57806342966c68146106465780634d4dc0e9146106625780634ee2cd7e1461067e57610378565b806336568abe146105d457806339509351146105f05780633c44d7401461062057610378565b80631fd48b9a1161031a578063248a9ca3116102f4578063248a9ca31461053a5780632f2ff15d1461056a5780632f61ebc814610586578063313ce567146105b657610378565b80631fd48b9a146104aa5780631ff9b703146104da57806323b872dd1461050a57610378565b8063095ea7b311610356578063095ea7b3146103fc57806309eef43e1461042c5780630c59ef341461045c57806318160ddd1461048c57610378565b806301ffc9a71461037d578063037768c2146103ad57806306fdde03146103de575b600080fd5b6103976004803603810190610392919061450e565b610bfc565b6040516103a49190614556565b60405180910390f35b6103c760048036038101906103c291906145cf565b610c76565b6040516103d5929190614615565b60405180910390f35b6103e6610ccb565b6040516103f391906146ce565b60405180910390f35b6104166004803603810190610411919061471c565b610d5d565b6040516104239190614556565b60405180910390f35b610446600480360381019061044191906145cf565b610d80565b604051610453919061476b565b60405180910390f35b610476600480360381019061047191906145cf565b610db3565b6040516104839190614786565b60405180910390f35b610494610e59565b6040516104a19190614786565b60405180910390f35b6104c460048036038101906104bf91906145cf565b610e63565b6040516104d1919061476b565b60405180910390f35b6104f460048036038101906104ef91906145cf565b610e96565b6040516105019190614786565b60405180910390f35b610524600480360381019061051f91906147a1565b610eae565b6040516105319190614556565b60405180910390f35b610554600480360381019061054f919061482a565b610edd565b6040516105619190614866565b60405180910390f35b610584600480360381019061057f9190614881565b610efd565b005b6105a0600480360381019061059b91906148c1565b610f1e565b6040516105ad919061476b565b60405180910390f35b6105be610f5d565b6040516105cb919061490a565b60405180910390f35b6105ee60048036038101906105e99190614881565b610f66565b005b61060a6004803603810190610605919061471c565b610fe9565b6040516106179190614556565b60405180910390f35b61063a600480360381019061063591906148c1565b611020565b005b6106446110b7565b005b610660600480360381019061065b91906148c1565b61127f565b005b61067c600480360381019061067791906148c1565b6112e9565b005b6106986004803603810190610693919061471c565b611302565b6040516106a59190614786565b60405180910390f35b6106c860048036038101906106c391906145cf565b611372565b6040516106d59190614786565b60405180910390f35b6106f860048036038101906106f391906148c1565b61147d565b604051610705919061476b565b60405180910390f35b610728600480360381019061072391906148c1565b6114bc565b604051610735919061476b565b60405180910390f35b61075860048036038101906107539190614b30565b6114fb565b6040516107659190614556565b60405180910390f35b610788600480360381019061078391906145cf565b611879565b6040516107959190614556565b60405180910390f35b6107b860048036038101906107b391906145cf565b611a6b565b6040516107c59190614786565b60405180910390f35b6107d6611ab3565b005b6107f260048036038101906107ed919061471c565b611ac7565b005b6107fc611ae7565b6040516108099190614786565b60405180910390f35b61081a611aed565b604051610827919061476b565b60405180910390f35b61084a60048036038101906108459190614881565b611b17565b6040516108579190614556565b60405180910390f35b61087a600480360381019061087591906145cf565b611b82565b6040516108879190614786565b60405180910390f35b610898611b9a565b6040516108a591906146ce565b60405180910390f35b6108b6611c2c565b005b6108d260048036038101906108cd91906148c1565b611c3f565b6040516108df9190614786565b60405180910390f35b61090260048036038101906108fd9190614ba8565b611c70565b60405161090f9190614786565b60405180910390f35b610932600480360381019061092d9190614be8565b611c95565b005b61093c61201a565b6040516109499190614866565b60405180910390f35b61096c6004803603810190610967919061471c565b612021565b6040516109799190614556565b60405180910390f35b61099c6004803603810190610997919061471c565b612098565b6040516109a99190614786565b60405180910390f35b6109cc60048036038101906109c7919061471c565b61210f565b6040516109d99190614556565b60405180910390f35b6109ea612132565b6040516109f79190614786565b60405180910390f35b610a08612138565b604051610a159190614ce6565b60405180910390f35b610a386004803603810190610a33919061471c565b612294565b604051610a459190614556565b60405180910390f35b610a686004803603810190610a6391906148c1565b6122e6565b604051610a75919061476b565b60405180910390f35b610a986004803603810190610a93919061471c565b612325565b604051610aa59190614786565b60405180910390f35b610ac86004803603810190610ac391906145cf565b61243a565b604051610ad59190614556565b60405180910390f35b610af86004803603810190610af39190614881565b61245a565b005b610b146004803603810190610b0f919061471c565b61247b565b005b610b306004803603810190610b2b91906145cf565b612918565b604051610b3d9190614786565b60405180910390f35b610b606004803603810190610b5b9190614ba8565b612930565b604051610b6d9190614786565b60405180910390f35b610b906004803603810190610b8b9190614b30565b6129b7565b604051610b9d9190614556565b60405180910390f35b610bc06004803603810190610bbb91906145cf565b612b0a565b005b610bdc6004803603810190610bd7919061471c565b612b8d565b005b610be6612bcc565b604051610bf39190614786565b60405180910390f35b60007f7965db0b000000000000000000000000000000000000000000000000000000007bffffffffffffffffffffffffffffffffffffffffffffffffffffffff1916827bffffffffffffffffffffffffffffffffffffffffffffffffffffffff19161480610c6f5750610c6e82612c9d565b5b9050919050565b600080601460008473ffffffffffffffffffffffffffffffffffffffff1673ffffffffffffffffffffffffffffffffffffffff168152602001908152602001600020549150610cc483611372565b9050915091565b606060038054610cda90614d37565b80601f0160208091040260200160405190810160405280929190818152602001828054610d0690614d37565b8015610d535780601f10610d2857610100808354040283529160200191610d53565b820191906000526020600020905b815481529060010190602001808311610d3657829003601f168201915b5050505050905090565b600080610d68612d07565b9050610d75818585612d0f565b600191505092915050565b60186020528060005260406000206000915054906101000a900473ffffffffffffffffffffffffffffffffffffffff1681565b6000601a60008373ffffffffffffffffffffffffffffffffffffffff1673ffffffffffffffffffffffffffffffffffffffff16815260200190815260200160002060009054906101000a900460ff1615610e4e57601960008373ffffffffffffffffffffffffffffffffffffffff1673ffffffffffffffffffffffffffffffffffffffff168152602001908152602001600020549050610e54565b60135490505b919050565b6000600254905090565b60166020528060005260406000206000915054906101000a900473ffffffffffffffffffffffffffffffffffffffff1681565b60146020528060005260406000206000915090505481565b600080610eb9612d07565b9050610ec6858285612ed8565b610ed1858585612f64565b60019150509392505050565b6000600a6000838152602001908152602001600020600101549050919050565b610f0682610edd565b610f0f816131da565b610f1983836131ee565b505050565b600e8181548110610f2e57600080fd5b906000526020600020016000915054906101000a900473ffffffffffffffffffffffffffffffffffffffff1681565b60006012905090565b610f6e612d07565b73ffffffffffffffffffffffffffffffffffffffff168173ffffffffffffffffffffffffffffffffffffffff1614610fdb576040517f08c379a0000000000000000000000000000000000000000000000000000000008152600401610fd290614dda565b60405180910390fd5b610fe582826132cf565b5050565b600080610ff4612d07565b90506110158185856110068589612930565b6110109190614e29565b612d0f565b600191505092915050565b6110286133b1565b806000811161106c576040517f08c379a000000000000000000000000000000000000000000000000000000000815260040161106390614ea9565b60405180910390fd5b61107461342f565b600061107f33611a6b565b90508281101561108e57600080fd5b6110aa670de0b6b3a7640000846110a59190614ec9565b61347e565b506110b3613492565b5050565b6110bf6133b1565b60005b600d8054905081101561127c576000600d82815481106110e5576110e4614f0b565b5b9060005260206000200160009054906101000a900473ffffffffffffffffffffffffffffffffffffffff16905060008173ffffffffffffffffffffffffffffffffffffffff166370a08231306040518263ffffffff1660e01b815260040161114d919061476b565b602060405180830381865afa15801561116a573d6000803e3d6000fd5b505050506040513d601f19601f8201168201806040525081019061118e9190614f4f565b90506000811115611219578173ffffffffffffffffffffffffffffffffffffffff1663a9059cbb33836040518363ffffffff1660e01b81526004016111d4929190614f7c565b6020604051808303816000875af11580156111f3573d6000803e3d6000fd5b505050506040513d601f19601f820116820180604052508101906112179190614fd1565b505b3373ffffffffffffffffffffffffffffffffffffffff167f5a6b26bafd3957bf06ea3b4915f51221953ed272573c779820e6e39df3e646cf8260405161125f9190614786565b60405180910390a25050808061127490614ffe565b9150506110c2565b50565b600061128a33611a6b565b90506000821161129957600080fd5b818110156112dc576040517f08c379a00000000000000000000000000000000000000000000000000000000081526004016112d390615092565b60405180910390fd5b6112e58261347e565b5050565b6112f16133b1565b806012819055504260138190555050565b600080600061134f84600560008873ffffffffffffffffffffffffffffffffffffffff1673ffffffffffffffffffffffffffffffffffffffff16815260200190815260200160002061349c565b91509150816113665761136185611a6b565b611368565b805b9250505092915050565b600080600090505b600c80549050811015611477576000600c828154811061139d5761139c614f0b565b5b9060005260206000200160009054906101000a900473ffffffffffffffffffffffffffffffffffffffff1690506000601560008673ffffffffffffffffffffffffffffffffffffffff1673ffffffffffffffffffffffffffffffffffffffff16815260200190815260200160002060008373ffffffffffffffffffffffffffffffffffffffff1673ffffffffffffffffffffffffffffffffffffffff1681526020019081526020016000205490506114558282612325565b846114609190614e29565b93505050808061146f90614ffe565b91505061137a565b50919050565b600f818154811061148d57600080fd5b906000526020600020016000915054906101000a900473ffffffffffffffffffffffffffffffffffffffff1681565b600c81815481106114cc57600080fd5b906000526020600020016000915054906101000a900473ffffffffffffffffffffffffffffffffffffffff1681565b60006115056133b1565b61150d61342f565b815183511461151b57600080fd5b6000805b84518110156115b657600073ffffffffffffffffffffffffffffffffffffffff1685828151811061155357611552614f0b565b5b602002602001015173ffffffffffffffffffffffffffffffffffffffff160361157b57600080fd5b83818151811061158e5761158d614f0b565b5b6020026020010151826115a19190614e29565b915080806115ae90614ffe565b91505061151f565b506010548111156115c657600080fd5b60005b84518110156117bb576116238582815181106115e8576115e7614f0b565b5b6020026020010151670de0b6b3a764000086848151811061160c5761160b614f0b565b5b602002602001015161161e9190614ec9565b61210f565b50600f85828151811061163957611638614f0b565b5b60200260200101519080600181540180825580915050600190039060005260206000200160009091909190916101000a81548173ffffffffffffffffffffffffffffffffffffffff021916908373ffffffffffffffffffffffffffffffffffffffff1602179055506001601a60008784815181106116ba576116b9614f0b565b5b602002602001015173ffffffffffffffffffffffffffffffffffffffff1673ffffffffffffffffffffffffffffffffffffffff16815260200190815260200160002060006101000a81548160ff02191690831515021790555084818151811061172657611725614f0b565b5b602002602001015173ffffffffffffffffffffffffffffffffffffffff167f3ea1f7fd2e5f2a54346a9c36803b810392514eea944090aa52756d8044b140ae670de0b6b3a764000086848151811061178157611780614f0b565b5b60200260200101516117939190614ec9565b6040516117a09190614786565b60405180910390a280806117b390614ffe565b9150506115c9565b5060005b84518110156118395742601960008784815181106117e0576117df614f0b565b5b602002602001015173ffffffffffffffffffffffffffffffffffffffff1673ffffffffffffffffffffffffffffffffffffffff16815260200190815260200160002081905550808061183190614ffe565b9150506117bf565b50670de0b6b3a76400008161184e9190614ec9565b6010600082825461185f91906150b2565b925050819055506001915050611873613492565b92915050565b60003373ffffffffffffffffffffffffffffffffffffffff168273ffffffffffffffffffffffffffffffffffffffff16036118b357600080fd5b8173ffffffffffffffffffffffffffffffffffffffff16601860003373ffffffffffffffffffffffffffffffffffffffff1673ffffffffffffffffffffffffffffffffffffffff16815260200190815260200160002060009054906101000a900473ffffffffffffffffffffffffffffffffffffffff1673ffffffffffffffffffffffffffffffffffffffff160361194a57600080fd5b6001601760008473ffffffffffffffffffffffffffffffffffffffff1673ffffffffffffffffffffffffffffffffffffffff168152602001908152602001600020600082825461199a9190614e29565b9250508190555081601860003373ffffffffffffffffffffffffffffffffffffffff1673ffffffffffffffffffffffffffffffffffffffff16815260200190815260200160002060006101000a81548173ffffffffffffffffffffffffffffffffffffffff021916908373ffffffffffffffffffffffffffffffffffffffff1602179055508173ffffffffffffffffffffffffffffffffffffffff167faec2ccae8681fd01ad220ecb7e9b5f7d485b1cc3cc01599acb1578016b30a6bd60405160405180910390a260019050919050565b60008060008373ffffffffffffffffffffffffffffffffffffffff1673ffffffffffffffffffffffffffffffffffffffff168152602001908152602001600020549050919050565b611abb6133b1565b611ac56000613591565b565b611ad982611ad3612d07565b83612ed8565b611ae38282613657565b5050565b60135481565b6000600960009054906101000a900473ffffffffffffffffffffffffffffffffffffffff16905090565b6000600a600084815260200190815260200160002060000160008373ffffffffffffffffffffffffffffffffffffffff1673ffffffffffffffffffffffffffffffffffffffff16815260200190815260200160002060009054906101000a900460ff16905092915050565b60196020528060005260406000206000915090505481565b606060048054611ba990614d37565b80601f0160208091040260200160405190810160405280929190818152602001828054611bd590614d37565b8015611c225780601f10611bf757610100808354040283529160200191611c22565b820191906000526020600020905b815481529060010190602001808311611c0557829003601f168201915b5050505050905090565b611c346133b1565b611c3c613824565b50565b6000806000611c4f84600661349c565b9150915081611c6557611c60610e59565b611c67565b805b92505050919050565b6015602052816000526040600020602052806000526040600020600091509150505481565b601254611ca133610db3565b611cab9190614e29565b421015611ced576040517f08c379a0000000000000000000000000000000000000000000000000000000008152600401611ce490615132565b60405180910390fd5b601a60003373ffffffffffffffffffffffffffffffffffffffff1673ffffffffffffffffffffffffffffffffffffffff16815260200190815260200160002060009054906101000a900460ff1615611d7a576040517f08c379a0000000000000000000000000000000000000000000000000000000008152600401611d719061519e565b60405180910390fd5b6000611d858261387a565b9050600081600a611d9691906152f1565b600585611da39190614ec9565b611dad9190614ec9565b905060006064600383611dc09190614ec9565b611dca919061536b565b905060008183611dda91906150b2565b9050600084600a611deb91906152f1565b82611df6919061536b565b9050838673ffffffffffffffffffffffffffffffffffffffff166370a08231306040518263ffffffff1660e01b8152600401611e32919061476b565b602060405180830381865afa158015611e4f573d6000803e3d6000fd5b505050506040513d601f19601f82011682018060405250810190611e739190614f4f565b1015611e7e57600080fd5b611e9a670de0b6b3a764000088611e959190614ec9565b6138f7565b611ebe611ea5611aed565b670de0b6b3a764000089611eb99190614ec9565b61395f565b8573ffffffffffffffffffffffffffffffffffffffff1663a9059cbb611ee2611aed565b856040518363ffffffff1660e01b8152600401611f00929190614f7c565b6020604051808303816000875af1158015611f1f573d6000803e3d6000fd5b505050506040513d601f19601f82011682018060405250810190611f439190614fd1565b508573ffffffffffffffffffffffffffffffffffffffff1663a9059cbb33846040518363ffffffff1660e01b8152600401611f7f929190614f7c565b6020604051808303816000875af1158015611f9e573d6000803e3d6000fd5b505050506040513d601f19601f82011682018060405250810190611fc29190614fd1565b503373ffffffffffffffffffffffffffffffffffffffff167f60d1fd7fd855dfe756b409098634ddac69f2cab9378c527ea6f5683bb8421b03826040516120099190614786565b60405180910390a250505050505050565b6000801b81565b60008061202c612d07565b9050600061203a8286612930565b90508381101561207f576040517f08c379a00000000000000000000000000000000000000000000000000000000081526004016120769061540e565b60405180910390fd5b61208c8286868403612d0f565b60019250505092915050565b6000806120a48461387a565b9050600081600a6120b591906152f1565b846120c09190614ec9565b90506000674563918244f4000090506000818460126120df919061542e565b600a6120eb91906152f1565b846120f69190614ec9565b612100919061536b565b90508094505050505092915050565b60008061211a612d07565b9050612127818585612f64565b600191505092915050565b60125481565b60606000600d8054905067ffffffffffffffff81111561215b5761215a61492a565b5b6040519080825280602002602001820160405280156121895781602001602082028036833780820191505090505b50905060005b600d8054905081101561228c576000600d82815481106121b2576121b1614f0b565b5b9060005260206000200160009054906101000a900473ffffffffffffffffffffffffffffffffffffffff1690508073ffffffffffffffffffffffffffffffffffffffff166370a08231306040518263ffffffff1660e01b8152600401612218919061476b565b602060405180830381865afa158015612235573d6000803e3d6000fd5b505050506040513d601f19601f820116820180604052508101906122599190614f4f565b83838151811061226c5761226b614f0b565b5b60200260200101818152505050808061228490614ffe565b91505061218f565b508091505090565b600061229e61342f565b6122a66133b1565b33925060008210156122b757600080fd5b6122d483670de0b6b3a7640000846122cf9190614ec9565b61395f565b600190506122e0613492565b92915050565b600d81815481106122f657600080fd5b906000526020600020016000915054906101000a900473ffffffffffffffffffffffffffffffffffffffff1681565b600080601660008573ffffffffffffffffffffffffffffffffffffffff1673ffffffffffffffffffffffffffffffffffffffff16815260200190815260200160002060009054906101000a900473ffffffffffffffffffffffffffffffffffffffff16905060008173ffffffffffffffffffffffffffffffffffffffff1663feaf968c6040518163ffffffff1660e01b815260040160a060405180830381865afa1580156123d7573d6000803e3d6000fd5b505050506040513d601f19601f820116820180604052508101906123fb91906154db565b505050915050670de0b6b3a7640000846402540be4008361241c9190614ec9565b6124269190614ec9565b612430919061536b565b9250505092915050565b601a6020528060005260406000206000915054906101000a900460ff1681565b61246382610edd565b61246c816131da565b61247683836132cf565b505050565b60125461248733610db3565b6124919190614e29565b4210156124d3576040517f08c379a00000000000000000000000000000000000000000000000000000000081526004016124ca90615132565b60405180910390fd5b601a60003373ffffffffffffffffffffffffffffffffffffffff1673ffffffffffffffffffffffffffffffffffffffff16815260200190815260200160002060009054906101000a900460ff1615612560576040517f08c379a00000000000000000000000000000000000000000000000000000000081526004016125579061519e565b60405180910390fd5b600061256b8361387a565b9050600081600a61257c91906152f1565b836125879190614ec9565b905060006125958585612098565b90506000670de0b6b3a7640000826125ad9190614ec9565b9050600060646005856125c09190614ec9565b6125ca919061536b565b905083601560003373ffffffffffffffffffffffffffffffffffffffff1673ffffffffffffffffffffffffffffffffffffffff16815260200190815260200160002060008973ffffffffffffffffffffffffffffffffffffffff1673ffffffffffffffffffffffffffffffffffffffff16815260200190815260200160002054101561265557600080fd5b83601560003373ffffffffffffffffffffffffffffffffffffffff1673ffffffffffffffffffffffffffffffffffffffff16815260200190815260200160002060008973ffffffffffffffffffffffffffffffffffffffff1673ffffffffffffffffffffffffffffffffffffffff16815260200190815260200160002060008282546126e191906150b2565b92505081905550600081856126f691906150b2565b9450849050600086600a61270a91906152f1565b82612715919061536b565b905060008973ffffffffffffffffffffffffffffffffffffffff166370a08231306040518263ffffffff1660e01b8152600401612752919061476b565b602060405180830381865afa15801561276f573d6000803e3d6000fd5b505050506040513d601f19601f820116820180604052508101906127939190614f4f565b9050828110156127a257600080fd5b60008a73ffffffffffffffffffffffffffffffffffffffff1663a9059cbb33866040518363ffffffff1660e01b81526004016127df929190614f7c565b6020604051808303816000875af11580156127fe573d6000803e3d6000fd5b505050506040513d601f19601f820116820180604052508101906128229190614fd1565b90508061282e57600080fd5b8a73ffffffffffffffffffffffffffffffffffffffff1663a9059cbb612852611aed565b876040518363ffffffff1660e01b8152600401612870929190614f7c565b6020604051808303816000875af115801561288f573d6000803e3d6000fd5b505050506040513d601f19601f820116820180604052508101906128b39190614fd1565b506128bd866138f7565b3373ffffffffffffffffffffffffffffffffffffffff167f920a3c8586f296bd0cf50659d78531871da77c0699c12e5fd7afd2fb95c592a0846040516129039190614786565b60405180910390a25050505050505050505050565b60176020528060005260406000206000915090505481565b6000600160008473ffffffffffffffffffffffffffffffffffffffff1673ffffffffffffffffffffffffffffffffffffffff16815260200190815260200160002060008373ffffffffffffffffffffffffffffffffffffffff1673ffffffffffffffffffffffffffffffffffffffff16815260200190815260200160002054905092915050565b60006129c16133b1565b6129c961342f565b81518351146129d757600080fd5b60005b8351811015612af75760008482815181106129f8576129f7614f0b565b5b602002602001015190506000848381518110612a1757612a16614f0b565b5b60200260200101519050600073ffffffffffffffffffffffffffffffffffffffff168273ffffffffffffffffffffffffffffffffffffffff1603612a5a57600080fd5b6000811015612a6857600080fd5b858381518110612a7b57612a7a614f0b565b5b602002602001015173ffffffffffffffffffffffffffffffffffffffff167f896dadd6e1b6d419e549525c037d8d20b5a294b61dacda17b7de7632fbf8893360405160405180910390a2612ae282670de0b6b3a764000083612add9190614ec9565b61395f565b50508080612aef90614ffe565b9150506129da565b5060019050612b04613492565b92915050565b612b126133b1565b600073ffffffffffffffffffffffffffffffffffffffff168173ffffffffffffffffffffffffffffffffffffffff1603612b81576040517f08c379a0000000000000000000000000000000000000000000000000000000008152600401612b78906155c8565b60405180910390fd5b612b8a81613591565b50565b612b978282613ab5565b6000612ba38383612098565b90506000670de0b6b3a764000082612bbb9190614ec9565b9050612bc681613d82565b50505050565b60105481565b612bdd838383612c8a565b600073ffffffffffffffffffffffffffffffffffffffff168373ffffffffffffffffffffffffffffffffffffffff1603612c2757612c1a82613e39565b612c22613e8c565b612c85565b600073ffffffffffffffffffffffffffffffffffffffff168273ffffffffffffffffffffffffffffffffffffffff1603612c7157612c6483613e39565b612c6c613e8c565b612c84565b612c7a83613e39565b612c8382613e39565b5b5b505050565b505050565b600081600001549050919050565b60007f01ffc9a7000000000000000000000000000000000000000000000000000000007bffffffffffffffffffffffffffffffffffffffffffffffffffffffff1916827bffffffffffffffffffffffffffffffffffffffffffffffffffffffff1916149050919050565b600033905090565b600073ffffffffffffffffffffffffffffffffffffffff168373ffffffffffffffffffffffffffffffffffffffff1603612d7e576040517f08c379a0000000000000000000000000000000000000000000000000000000008152600401612d759061565a565b60405180910390fd5b600073ffffffffffffffffffffffffffffffffffffffff168273ffffffffffffffffffffffffffffffffffffffff1603612ded576040517f08c379a0000000000000000000000000000000000000000000000000000000008152600401612de4906156ec565b60405180910390fd5b80600160008573ffffffffffffffffffffffffffffffffffffffff1673ffffffffffffffffffffffffffffffffffffffff16815260200190815260200160002060008473ffffffffffffffffffffffffffffffffffffffff1673ffffffffffffffffffffffffffffffffffffffff168152602001908152602001600020819055508173ffffffffffffffffffffffffffffffffffffffff168373ffffffffffffffffffffffffffffffffffffffff167f8c5be1e5ebec7d5bd14f71427d1e84f3dd0314c0f7b2291e5b200ac8c7c3b92583604051612ecb9190614786565b60405180910390a3505050565b6000612ee48484612930565b90507fffffffffffffffffffffffffffffffffffffffffffffffffffffffffffffffff8114612f5e5781811015612f50576040517f08c379a0000000000000000000000000000000000000000000000000000000008152600401612f4790615758565b60405180910390fd5b612f5d8484848403612d0f565b5b50505050565b600073ffffffffffffffffffffffffffffffffffffffff168373ffffffffffffffffffffffffffffffffffffffff1603612fd3576040517f08c379a0000000000000000000000000000000000000000000000000000000008152600401612fca906157ea565b60405180910390fd5b600073ffffffffffffffffffffffffffffffffffffffff168273ffffffffffffffffffffffffffffffffffffffff1603613042576040517f08c379a00000000000000000000000000000000000000000000000000000000081526004016130399061587c565b60405180910390fd5b61304d838383613ea0565b60008060008573ffffffffffffffffffffffffffffffffffffffff1673ffffffffffffffffffffffffffffffffffffffff168152602001908152602001600020549050818110156130d3576040517f08c379a00000000000000000000000000000000000000000000000000000000081526004016130ca9061590e565b60405180910390fd5b8181036000808673ffffffffffffffffffffffffffffffffffffffff1673ffffffffffffffffffffffffffffffffffffffff16815260200190815260200160002081905550816000808573ffffffffffffffffffffffffffffffffffffffff1673ffffffffffffffffffffffffffffffffffffffff168152602001908152602001600020600082825401925050819055508273ffffffffffffffffffffffffffffffffffffffff168473ffffffffffffffffffffffffffffffffffffffff167fddf252ad1be2c89b69c2b068fc378daa952ba7f163c4a11628f55a4df523b3ef846040516131c19190614786565b60405180910390a36131d4848484613eb0565b50505050565b6131eb816131e6612d07565b613eb5565b50565b6131f88282611b17565b6132cb576001600a600084815260200190815260200160002060000160008373ffffffffffffffffffffffffffffffffffffffff1673ffffffffffffffffffffffffffffffffffffffff16815260200190815260200160002060006101000a81548160ff021916908315150217905550613270612d07565b73ffffffffffffffffffffffffffffffffffffffff168173ffffffffffffffffffffffffffffffffffffffff16837f2f8788117e7eff1d82e926ec794901d17c78024a50270940304540a733656f0d60405160405180910390a45b5050565b6132d98282611b17565b156133ad576000600a600084815260200190815260200160002060000160008373ffffffffffffffffffffffffffffffffffffffff1673ffffffffffffffffffffffffffffffffffffffff16815260200190815260200160002060006101000a81548160ff021916908315150217905550613352612d07565b73ffffffffffffffffffffffffffffffffffffffff168173ffffffffffffffffffffffffffffffffffffffff16837ff6391f5c32d9c69d2a47ea670b442974b53935d1edc7fd64eb21e047a839171b60405160405180910390a45b5050565b6133b9612d07565b73ffffffffffffffffffffffffffffffffffffffff166133d7611aed565b73ffffffffffffffffffffffffffffffffffffffff161461342d576040517f08c379a00000000000000000000000000000000000000000000000000000000081526004016134249061597a565b60405180910390fd5b565b6002600b5403613474576040517f08c379a000000000000000000000000000000000000000000000000000000000815260040161346b906159e6565b60405180910390fd5b6002600b81905550565b61348f613489612d07565b82613657565b50565b6001600b81905550565b600080600084116134e2576040517f08c379a00000000000000000000000000000000000000000000000000000000081526004016134d990615a52565b60405180910390fd5b6134ea613f3a565b84111561352c576040517f08c379a000000000000000000000000000000000000000000000000000000000815260040161352390615abe565b60405180910390fd5b60006135448585600001613f4b90919063ffffffff16565b90508360000180549050810361356157600080925092505061358a565b600184600101828154811061357957613578614f0b565b5b906000526020600020015492509250505b9250929050565b6000600960009054906101000a900473ffffffffffffffffffffffffffffffffffffffff16905081600960006101000a81548173ffffffffffffffffffffffffffffffffffffffff021916908373ffffffffffffffffffffffffffffffffffffffff1602179055508173ffffffffffffffffffffffffffffffffffffffff168173ffffffffffffffffffffffffffffffffffffffff167f8be0079c531659141344cd1fd0a4f28419497f9722a3daafe3b4186f6b6457e060405160405180910390a35050565b600073ffffffffffffffffffffffffffffffffffffffff168273ffffffffffffffffffffffffffffffffffffffff16036136c6576040517f08c379a00000000000000000000000000000000000000000000000000000000081526004016136bd90615b50565b60405180910390fd5b6136d282600083613ea0565b60008060008473ffffffffffffffffffffffffffffffffffffffff1673ffffffffffffffffffffffffffffffffffffffff16815260200190815260200160002054905081811015613758576040517f08c379a000000000000000000000000000000000000000000000000000000000815260040161374f90615be2565b60405180910390fd5b8181036000808573ffffffffffffffffffffffffffffffffffffffff1673ffffffffffffffffffffffffffffffffffffffff1681526020019081526020016000208190555081600260008282540392505081905550600073ffffffffffffffffffffffffffffffffffffffff168373ffffffffffffffffffffffffffffffffffffffff167fddf252ad1be2c89b69c2b068fc378daa952ba7f163c4a11628f55a4df523b3ef8460405161380b9190614786565b60405180910390a361381f83600084613eb0565b505050565b60006138306008614004565b600061383a613f3a565b90507f8030e83b04d87bef53480e26263266d6ca66863aa8506aca6f2559d18aa1cb678160405161386b9190614786565b60405180910390a18091505090565b6000808290508073ffffffffffffffffffffffffffffffffffffffff1663313ce5676040518163ffffffff1660e01b8152600401602060405180830381865afa1580156138cb573d6000803e3d6000fd5b505050506040513d601f19601f820116820180604052508101906138ef9190615c2e565b915050919050565b806000811161393b576040517f08c379a000000000000000000000000000000000000000000000000000000000815260040161393290614ea9565b60405180910390fd5b61394361342f565b6000829050613952813361401a565b5061395b613492565b5050565b600073ffffffffffffffffffffffffffffffffffffffff168273ffffffffffffffffffffffffffffffffffffffff16036139ce576040517f08c379a00000000000000000000000000000000000000000000000000000000081526004016139c590615ca7565b60405180910390fd5b6139da60008383613ea0565b80600260008282546139ec9190614e29565b92505081905550806000808473ffffffffffffffffffffffffffffffffffffffff1673ffffffffffffffffffffffffffffffffffffffff168152602001908152602001600020600082825401925050819055508173ffffffffffffffffffffffffffffffffffffffff16600073ffffffffffffffffffffffffffffffffffffffff167fddf252ad1be2c89b69c2b068fc378daa952ba7f163c4a11628f55a4df523b3ef83604051613a9d9190614786565b60405180910390a3613ab160008383613eb0565b5050565b8060008111613af9576040517f08c379a0000000000000000000000000000000000000000000000000000000008152600401613af090614ea9565b60405180910390fd5b613b0161342f565b82600073ffffffffffffffffffffffffffffffffffffffff16601660008373ffffffffffffffffffffffffffffffffffffffff1673ffffffffffffffffffffffffffffffffffffffff16815260200190815260200160002060009054906101000a900473ffffffffffffffffffffffffffffffffffffffff1673ffffffffffffffffffffffffffffffffffffffff1603613bd0576040517f08c379a0000000000000000000000000000000000000000000000000000000008152600401613bc790615d13565b60405180910390fd5b6000613bdb8561387a565b9050600081600a613bec91906152f1565b85613bf79190614ec9565b905080601560003373ffffffffffffffffffffffffffffffffffffffff1673ffffffffffffffffffffffffffffffffffffffff16815260200190815260200160002060008873ffffffffffffffffffffffffffffffffffffffff1673ffffffffffffffffffffffffffffffffffffffff1681526020019081526020016000206000828254613c859190614e29565b925050819055508573ffffffffffffffffffffffffffffffffffffffff163373ffffffffffffffffffffffffffffffffffffffff167fe4c032bd651f378a59936633a0f92b7497fd3577f65c95dc20a01acface334cc83604051613ce99190614786565b60405180910390a38573ffffffffffffffffffffffffffffffffffffffff166323b872dd3330846040518463ffffffff1660e01b8152600401613d2e93929190615d33565b6020604051808303816000875af1158015613d4d573d6000803e3d6000fd5b505050506040513d601f19601f82011682018060405250810190613d719190614fd1565b50505050613d7d613492565b505050565b8060008111613dc6576040517f08c379a0000000000000000000000000000000000000000000000000000000008152600401613dbd90614ea9565b60405180910390fd5b81601460003373ffffffffffffffffffffffffffffffffffffffff1673ffffffffffffffffffffffffffffffffffffffff1681526020019081526020016000206000828254613e159190614e29565b925050819055506000613e28338461407d565b905080613e3457600080fd5b505050565b613e89600560008373ffffffffffffffffffffffffffffffffffffffff1673ffffffffffffffffffffffffffffffffffffffff168152602001908152602001600020613e8483611a6b565b614120565b50565b613e9e6006613e99610e59565b614120565b565b613eab838383612bd2565b505050565b505050565b613ebf8282611b17565b613f3657613ecc8161419b565b613eda8360001c60206141c8565b604051602001613eeb929190615e3e565b6040516020818303038152906040526040517f08c379a0000000000000000000000000000000000000000000000000000000008152600401613f2d91906146ce565b60405180910390fd5b5050565b6000613f466008612c8f565b905090565b600080838054905003613f615760009050613ffe565b600080848054905090505b80821015613fb5576000613f808383614404565b905084613f8d878361442a565b600001541115613f9f57809150613faf565b600181613fac9190614e29565b92505b50613f6c565b600082118015613fdd575083613fd786600185613fd291906150b2565b61442a565b60000154145b15613ff857600182613fef91906150b2565b92505050613ffe565b81925050505b92915050565b6001816000016000828254019250508190555050565b81601460008373ffffffffffffffffffffffffffffffffffffffff1673ffffffffffffffffffffffffffffffffffffffff168152602001908152602001600020600082825461406991906150b2565b925050819055506140798261127f565b5050565b600061408761342f565b600073ffffffffffffffffffffffffffffffffffffffff168373ffffffffffffffffffffffffffffffffffffffff16036140f6576040517f08c379a00000000000000000000000000000000000000000000000000000000081526004016140ed90615ec4565b60405180910390fd5b600082101561410457600080fd5b61410e838361395f565b6001905061411a613492565b92915050565b600061412a613f3a565b9050806141398460000161444c565b10156141965782600001819080600181540180825580915050600190039060005260206000200160009091909190915055826001018290806001815401808255809150506001900390600052602060002001600090919091909150555b505050565b60606141c18273ffffffffffffffffffffffffffffffffffffffff16601460ff166141c8565b9050919050565b6060600060028360026141db9190614ec9565b6141e59190614e29565b67ffffffffffffffff8111156141fe576141fd61492a565b5b6040519080825280601f01601f1916602001820160405280156142305781602001600182028036833780820191505090505b5090507f30000000000000000000000000000000000000000000000000000000000000008160008151811061426857614267614f0b565b5b60200101907effffffffffffffffffffffffffffffffffffffffffffffffffffffffffffff1916908160001a9053507f7800000000000000000000000000000000000000000000000000000000000000816001815181106142cc576142cb614f0b565b5b60200101907effffffffffffffffffffffffffffffffffffffffffffffffffffffffffffff1916908160001a9053506000600184600261430c9190614ec9565b6143169190614e29565b90505b60018111156143b6577f3031323334353637383961626364656600000000000000000000000000000000600f86166010811061435857614357614f0b565b5b1a60f81b82828151811061436f5761436e614f0b565b5b60200101907effffffffffffffffffffffffffffffffffffffffffffffffffffffffffffff1916908160001a905350600485901c9450806143af90615ee4565b9050614319565b50600084146143fa576040517f08c379a00000000000000000000000000000000000000000000000000000000081526004016143f190615f59565b60405180910390fd5b8091505092915050565b60006002828418614415919061536b565b8284166144229190614e29565b905092915050565b6000808360005282602060002001905061444381614498565b91505092915050565b6000808280549050036144625760009050614493565b816001838054905061447491906150b2565b8154811061448557614484614f0b565b5b906000526020600020015490505b919050565b6000819050919050565b6000604051905090565b600080fd5b600080fd5b60007fffffffff0000000000000000000000000000000000000000000000000000000082169050919050565b6144eb816144b6565b81146144f657600080fd5b50565b600081359050614508816144e2565b92915050565b600060208284031215614524576145236144ac565b5b6000614532848285016144f9565b91505092915050565b60008115159050919050565b6145508161453b565b82525050565b600060208201905061456b6000830184614547565b92915050565b600073ffffffffffffffffffffffffffffffffffffffff82169050919050565b600061459c82614571565b9050919050565b6145ac81614591565b81146145b757600080fd5b50565b6000813590506145c9816145a3565b92915050565b6000602082840312156145e5576145e46144ac565b5b60006145f3848285016145ba565b91505092915050565b6000819050919050565b61460f816145fc565b82525050565b600060408201905061462a6000830185614606565b6146376020830184614606565b9392505050565b600081519050919050565b600082825260208201905092915050565b60005b8381101561467857808201518184015260208101905061465d565b60008484015250505050565b6000601f19601f8301169050919050565b60006146a08261463e565b6146aa8185614649565b93506146ba81856020860161465a565b6146c381614684565b840191505092915050565b600060208201905081810360008301526146e88184614695565b905092915050565b6146f9816145fc565b811461470457600080fd5b50565b600081359050614716816146f0565b92915050565b60008060408385031215614733576147326144ac565b5b6000614741858286016145ba565b925050602061475285828601614707565b9150509250929050565b61476581614591565b82525050565b6000602082019050614780600083018461475c565b92915050565b600060208201905061479b6000830184614606565b92915050565b6000806000606084860312156147ba576147b96144ac565b5b60006147c8868287016145ba565b93505060206147d9868287016145ba565b92505060406147ea86828701614707565b9150509250925092565b6000819050919050565b614807816147f4565b811461481257600080fd5b50565b600081359050614824816147fe565b92915050565b6000602082840312156148405761483f6144ac565b5b600061484e84828501614815565b91505092915050565b614860816147f4565b82525050565b600060208201905061487b6000830184614857565b92915050565b60008060408385031215614898576148976144ac565b5b60006148a685828601614815565b92505060206148b7858286016145ba565b9150509250929050565b6000602082840312156148d7576148d66144ac565b5b60006148e584828501614707565b91505092915050565b600060ff82169050919050565b614904816148ee565b82525050565b600060208201905061491f60008301846148fb565b92915050565b600080fd5b7f4e487b7100000000000000000000000000000000000000000000000000000000600052604160045260246000fd5b61496282614684565b810181811067ffffffffffffffff821117156149815761498061492a565b5b80604052505050565b60006149946144a2565b90506149a08282614959565b919050565b600067ffffffffffffffff8211156149c0576149bf61492a565b5b602082029050602081019050919050565b600080fd5b60006149e96149e4846149a5565b61498a565b90508083825260208201905060208402830185811115614a0c57614a0b6149d1565b5b835b81811015614a355780614a2188826145ba565b845260208401935050602081019050614a0e565b5050509392505050565b600082601f830112614a5457614a53614925565b5b8135614a648482602086016149d6565b91505092915050565b600067ffffffffffffffff821115614a8857614a8761492a565b5b602082029050602081019050919050565b6000614aac614aa784614a6d565b61498a565b90508083825260208201905060208402830185811115614acf57614ace6149d1565b5b835b81811015614af85780614ae48882614707565b845260208401935050602081019050614ad1565b5050509392505050565b600082601f830112614b1757614b16614925565b5b8135614b27848260208601614a99565b91505092915050565b60008060408385031215614b4757614b466144ac565b5b600083013567ffffffffffffffff811115614b6557614b646144b1565b5b614b7185828601614a3f565b925050602083013567ffffffffffffffff811115614b9257614b916144b1565b5b614b9e85828601614b02565b9150509250929050565b60008060408385031215614bbf57614bbe6144ac565b5b6000614bcd858286016145ba565b9250506020614bde858286016145ba565b9150509250929050565b60008060408385031215614bff57614bfe6144ac565b5b6000614c0d85828601614707565b9250506020614c1e858286016145ba565b9150509250929050565b600081519050919050565b600082825260208201905092915050565b6000819050602082019050919050565b614c5d816145fc565b82525050565b6000614c6f8383614c54565b60208301905092915050565b6000602082019050919050565b6000614c9382614c28565b614c9d8185614c33565b9350614ca883614c44565b8060005b83811015614cd9578151614cc08882614c63565b9750614ccb83614c7b565b925050600181019050614cac565b5085935050505092915050565b60006020820190508181036000830152614d008184614c88565b905092915050565b7f4e487b7100000000000000000000000000000000000000000000000000000000600052602260045260246000fd5b60006002820490506001821680614d4f57607f821691505b602082108103614d6257614d61614d08565b5b50919050565b7f416363657373436f6e74726f6c3a2063616e206f6e6c792072656e6f756e636560008201527f20726f6c657320666f722073656c660000000000000000000000000000000000602082015250565b6000614dc4602f83614649565b9150614dcf82614d68565b604082019050919050565b60006020820190508181036000830152614df381614db7565b9050919050565b7f4e487b7100000000000000000000000000000000000000000000000000000000600052601160045260246000fd5b6000614e34826145fc565b9150614e3f836145fc565b9250828201905080821115614e5757614e56614dfa565b5b92915050565b7f616d6f756e74206d7573742062652067726561746572207468616e207a65726f600082015250565b6000614e93602083614649565b9150614e9e82614e5d565b602082019050919050565b60006020820190508181036000830152614ec281614e86565b9050919050565b6000614ed4826145fc565b9150614edf836145fc565b9250828202614eed816145fc565b91508282048414831517614f0457614f03614dfa565b5b5092915050565b7f4e487b7100000000000000000000000000000000000000000000000000000000600052603260045260246000fd5b600081519050614f49816146f0565b92915050565b600060208284031215614f6557614f646144ac565b5b6000614f7384828501614f3a565b91505092915050565b6000604082019050614f91600083018561475c565b614f9e6020830184614606565b9392505050565b614fae8161453b565b8114614fb957600080fd5b50565b600081519050614fcb81614fa5565b92915050565b600060208284031215614fe757614fe66144ac565b5b6000614ff584828501614fbc565b91505092915050565b6000615009826145fc565b91507fffffffffffffffffffffffffffffffffffffffffffffffffffffffffffffffff820361503b5761503a614dfa565b5b600182019050919050565b7f6275726e61626c6520657863656564732062616c616e63650000000000000000600082015250565b600061507c601883614649565b915061508782615046565b602082019050919050565b600060208201905081810360008301526150ab8161506f565b9050919050565b60006150bd826145fc565b91506150c8836145fc565b92508282039050818111156150e0576150df614dfa565b5b92915050565b7f74696d6500000000000000000000000000000000000000000000000000000000600082015250565b600061511c600483614649565b9150615127826150e6565b602082019050919050565b6000602082019050818103600083015261514b8161510f565b9050919050565b7f61697264726f7000000000000000000000000000000000000000000000000000600082015250565b6000615188600783614649565b915061519382615152565b602082019050919050565b600060208201905081810360008301526151b78161517b565b9050919050565b60008160011c9050919050565b6000808291508390505b6001851115615215578086048111156151f1576151f0614dfa565b5b60018516156152005780820291505b808102905061520e856151be565b94506151d5565b94509492505050565b60008261522e57600190506152ea565b8161523c57600090506152ea565b8160018114615252576002811461525c5761528b565b60019150506152ea565b60ff84111561526e5761526d614dfa565b5b8360020a91508482111561528557615284614dfa565b5b506152ea565b5060208310610133831016604e8410600b84101617156152c05782820a9050838111156152bb576152ba614dfa565b5b6152ea565b6152cd84848460016151cb565b925090508184048111156152e4576152e3614dfa565b5b81810290505b9392505050565b60006152fc826145fc565b9150615307836148ee565b92506153347fffffffffffffffffffffffffffffffffffffffffffffffffffffffffffffffff848461521e565b905092915050565b7f4e487b7100000000000000000000000000000000000000000000000000000000600052601260045260246000fd5b6000615376826145fc565b9150615381836145fc565b9250826153915761539061533c565b5b828204905092915050565b7f45524332303a2064656372656173656420616c6c6f77616e63652062656c6f7760008201527f207a65726f000000000000000000000000000000000000000000000000000000602082015250565b60006153f8602583614649565b91506154038261539c565b604082019050919050565b60006020820190508181036000830152615427816153eb565b9050919050565b6000615439826148ee565b9150615444836148ee565b9250828203905060ff81111561545d5761545c614dfa565b5b92915050565b600069ffffffffffffffffffff82169050919050565b61548281615463565b811461548d57600080fd5b50565b60008151905061549f81615479565b92915050565b6000819050919050565b6154b8816154a5565b81146154c357600080fd5b50565b6000815190506154d5816154af565b92915050565b600080600080600060a086880312156154f7576154f66144ac565b5b600061550588828901615490565b9550506020615516888289016154c6565b945050604061552788828901614f3a565b935050606061553888828901614f3a565b925050608061554988828901615490565b9150509295509295909350565b7f4f776e61626c653a206e6577206f776e657220697320746865207a65726f206160008201527f6464726573730000000000000000000000000000000000000000000000000000602082015250565b60006155b2602683614649565b91506155bd82615556565b604082019050919050565b600060208201905081810360008301526155e1816155a5565b9050919050565b7f45524332303a20617070726f76652066726f6d20746865207a65726f2061646460008201527f7265737300000000000000000000000000000000000000000000000000000000602082015250565b6000615644602483614649565b915061564f826155e8565b604082019050919050565b6000602082019050818103600083015261567381615637565b9050919050565b7f45524332303a20617070726f766520746f20746865207a65726f20616464726560008201527f7373000000000000000000000000000000000000000000000000000000000000602082015250565b60006156d6602283614649565b91506156e18261567a565b604082019050919050565b60006020820190508181036000830152615705816156c9565b9050919050565b7f45524332303a20696e73756666696369656e7420616c6c6f77616e6365000000600082015250565b6000615742601d83614649565b915061574d8261570c565b602082019050919050565b6000602082019050818103600083015261577181615735565b9050919050565b7f45524332303a207472616e736665722066726f6d20746865207a65726f20616460008201527f6472657373000000000000000000000000000000000000000000000000000000602082015250565b60006157d4602583614649565b91506157df82615778565b604082019050919050565b60006020820190508181036000830152615803816157c7565b9050919050565b7f45524332303a207472616e7366657220746f20746865207a65726f206164647260008201527f6573730000000000000000000000000000000000000000000000000000000000602082015250565b6000615866602383614649565b91506158718261580a565b604082019050919050565b6000602082019050818103600083015261589581615859565b9050919050565b7f45524332303a207472616e7366657220616d6f756e742065786365656473206260008201527f616c616e63650000000000000000000000000000000000000000000000000000602082015250565b60006158f8602683614649565b91506159038261589c565b604082019050919050565b60006020820190508181036000830152615927816158eb565b9050919050565b7f4f776e61626c653a2063616c6c6572206973206e6f7420746865206f776e6572600082015250565b6000615964602083614649565b915061596f8261592e565b602082019050919050565b6000602082019050818103600083015261599381615957565b9050919050565b7f5265656e7472616e637947756172643a207265656e7472616e742063616c6c00600082015250565b60006159d0601f83614649565b91506159db8261599a565b602082019050919050565b600060208201905081810360008301526159ff816159c3565b9050919050565b7f4552433230536e617073686f743a206964206973203000000000000000000000600082015250565b6000615a3c601683614649565b9150615a4782615a06565b602082019050919050565b60006020820190508181036000830152615a6b81615a2f565b9050919050565b7f4552433230536e617073686f743a206e6f6e6578697374656e74206964000000600082015250565b6000615aa8601d83614649565b9150615ab382615a72565b602082019050919050565b60006020820190508181036000830152615ad781615a9b565b9050919050565b7f45524332303a206275726e2066726f6d20746865207a65726f2061646472657360008201527f7300000000000000000000000000000000000000000000000000000000000000602082015250565b6000615b3a602183614649565b9150615b4582615ade565b604082019050919050565b60006020820190508181036000830152615b6981615b2d565b9050919050565b7f45524332303a206275726e20616d6f756e7420657863656564732062616c616e60008201527f6365000000000000000000000000000000000000000000000000000000000000602082015250565b6000615bcc602283614649565b9150615bd782615b70565b604082019050919050565b60006020820190508181036000830152615bfb81615bbf565b9050919050565b615c0b816148ee565b8114615c1657600080fd5b50565b600081519050615c2881615c02565b92915050565b600060208284031215615c4457615c436144ac565b5b6000615c5284828501615c19565b91505092915050565b7f45524332303a206d696e7420746f20746865207a65726f206164647265737300600082015250565b6000615c91601f83614649565b9150615c9c82615c5b565b602082019050919050565b60006020820190508181036000830152615cc081615c84565b9050919050565b7f696e76616c696420746f6b656e00000000000000000000000000000000000000600082015250565b6000615cfd600d83614649565b9150615d0882615cc7565b602082019050919050565b60006020820190508181036000830152615d2c81615cf0565b9050919050565b6000606082019050615d48600083018661475c565b615d55602083018561475c565b615d626040830184614606565b949350505050565b600081905092915050565b7f416363657373436f6e74726f6c3a206163636f756e7420000000000000000000600082015250565b6000615dab601783615d6a565b9150615db682615d75565b601782019050919050565b6000615dcc8261463e565b615dd68185615d6a565b9350615de681856020860161465a565b80840191505092915050565b7f206973206d697373696e6720726f6c6520000000000000000000000000000000600082015250565b6000615e28601183615d6a565b9150615e3382615df2565b601182019050919050565b6000615e4982615d9e565b9150615e558285615dc1565b9150615e6082615e1b565b9150615e6c8284615dc1565b91508190509392505050565b7f696e76616c696420616464726573730000000000000000000000000000000000600082015250565b6000615eae600f83614649565b9150615eb982615e78565b602082019050919050565b60006020820190508181036000830152615edd81615ea1565b9050919050565b6000615eef826145fc565b915060008203615f0257615f01614dfa565b5b600182039050919050565b7f537472696e67733a20686578206c656e67746820696e73756666696369656e74600082015250565b6000615f43602083614649565b9150615f4e82615f0d565b602082019050919050565b60006020820190508181036000830152615f7281615f36565b905091905056fea2646970667358221220c9866fcf9ec3f1fdd84ccc17387a428944765dfbd844dada95752400b12fc70664736f6c63430008120033",
  "linkReferences": {},
  "deployedLinkReferences": {}
}